{
  "_format": "hh-sol-artifact-1",
  "contractName": "PolyBricks",
  "sourceName": "contracts/PolyBricks.sol",
  "abi": [
    {
      "inputs": [],
      "stateMutability": "nonpayable",
      "type": "constructor"
    },
    {
      "anonymous": false,
      "inputs": [
        {
          "indexed": true,
          "internalType": "address",
          "name": "owner",
          "type": "address"
        },
        {
          "indexed": true,
          "internalType": "address",
          "name": "approved",
          "type": "address"
        },
        {
          "indexed": true,
          "internalType": "uint256",
          "name": "tokenId",
          "type": "uint256"
        }
      ],
      "name": "Approval",
      "type": "event"
    },
    {
      "anonymous": false,
      "inputs": [
        {
          "indexed": true,
          "internalType": "address",
          "name": "owner",
          "type": "address"
        },
        {
          "indexed": true,
          "internalType": "address",
          "name": "operator",
          "type": "address"
        },
        {
          "indexed": false,
          "internalType": "bool",
          "name": "approved",
          "type": "bool"
        }
      ],
      "name": "ApprovalForAll",
      "type": "event"
    },
    {
      "anonymous": false,
      "inputs": [
        {
          "indexed": true,
          "internalType": "address",
          "name": "previousOwner",
          "type": "address"
        },
        {
          "indexed": true,
          "internalType": "address",
          "name": "newOwner",
          "type": "address"
        }
      ],
      "name": "OwnershipTransferred",
      "type": "event"
    },
    {
      "anonymous": false,
      "inputs": [
        {
          "indexed": true,
          "internalType": "address",
          "name": "from",
          "type": "address"
        },
        {
          "indexed": true,
          "internalType": "address",
          "name": "to",
          "type": "address"
        },
        {
          "indexed": true,
          "internalType": "uint256",
          "name": "tokenId",
          "type": "uint256"
        }
      ],
      "name": "Transfer",
      "type": "event"
    },
    {
      "inputs": [
        {
          "internalType": "uint256",
          "name": "tokenId",
          "type": "uint256"
        },
        {
          "internalType": "address",
          "name": "chosenBuyer",
          "type": "address"
        }
      ],
      "name": "NFTOwnerStartEscrow",
      "outputs": [],
      "stateMutability": "payable",
      "type": "function"
    },
    {
      "inputs": [],
      "name": "_tokenIdCounter",
      "outputs": [
        {
          "internalType": "uint256",
          "name": "_value",
          "type": "uint256"
        }
      ],
      "stateMutability": "view",
      "type": "function"
    },
    {
      "inputs": [
        {
          "internalType": "address",
          "name": "to",
          "type": "address"
        },
        {
          "internalType": "uint256",
          "name": "tokenId",
          "type": "uint256"
        }
      ],
      "name": "approve",
      "outputs": [],
      "stateMutability": "nonpayable",
      "type": "function"
    },
    {
      "inputs": [
        {
          "internalType": "address",
          "name": "owner",
          "type": "address"
        }
      ],
      "name": "balanceOf",
      "outputs": [
        {
          "internalType": "uint256",
          "name": "",
          "type": "uint256"
        }
      ],
      "stateMutability": "view",
      "type": "function"
    },
    {
      "inputs": [
        {
          "internalType": "address",
          "name": "",
          "type": "address"
        }
      ],
      "name": "buyerAddressToBuyerPayableAddress",
      "outputs": [
        {
          "internalType": "address payable",
          "name": "",
          "type": "address"
        }
      ],
      "stateMutability": "view",
      "type": "function"
    },
    {
      "inputs": [
        {
          "internalType": "address",
          "name": "",
          "type": "address"
        }
      ],
      "name": "buyerAddressToDownPayment",
      "outputs": [
        {
          "internalType": "uint256",
          "name": "",
          "type": "uint256"
        }
      ],
      "stateMutability": "view",
      "type": "function"
    },
    {
      "inputs": [
        {
          "internalType": "uint256",
          "name": "tokenId",
          "type": "uint256"
        }
      ],
      "name": "completePaymentAndEsrow",
      "outputs": [],
      "stateMutability": "payable",
      "type": "function"
    },
    {
      "inputs": [
        {
          "internalType": "uint256",
          "name": "tokenId",
          "type": "uint256"
        },
        {
          "internalType": "uint256",
          "name": "_propertyPrice",
          "type": "uint256"
        },
        {
          "internalType": "uint256",
          "name": "_downPayment",
          "type": "uint256"
        }
      ],
      "name": "createPropertyListing",
      "outputs": [],
      "stateMutability": "nonpayable",
      "type": "function"
    },
    {
      "inputs": [
        {
          "internalType": "uint256",
          "name": "",
          "type": "uint256"
        }
      ],
      "name": "downPayment",
      "outputs": [
        {
          "internalType": "uint256",
          "name": "",
          "type": "uint256"
        }
      ],
      "stateMutability": "view",
      "type": "function"
    },
    {
      "inputs": [
        {
          "internalType": "uint256",
          "name": "tokenId",
          "type": "uint256"
        }
      ],
      "name": "getApproved",
      "outputs": [
        {
          "internalType": "address",
          "name": "",
          "type": "address"
        }
      ],
      "stateMutability": "view",
      "type": "function"
    },
    {
      "inputs": [],
      "name": "getBalance",
      "outputs": [
        {
          "internalType": "uint256",
          "name": "",
          "type": "uint256"
        }
      ],
      "stateMutability": "view",
      "type": "function"
    },
    {
      "inputs": [],
      "name": "getCurrentTokenIdCounter",
      "outputs": [
        {
          "internalType": "uint256",
          "name": "",
          "type": "uint256"
        }
      ],
      "stateMutability": "view",
      "type": "function"
    },
    {
      "inputs": [
        {
          "internalType": "address",
          "name": "owner",
          "type": "address"
        },
        {
          "internalType": "address",
          "name": "operator",
          "type": "address"
        }
      ],
      "name": "isApprovedForAll",
      "outputs": [
        {
          "internalType": "bool",
          "name": "",
          "type": "bool"
        }
      ],
      "stateMutability": "view",
      "type": "function"
    },
    {
      "inputs": [
        {
          "internalType": "string",
          "name": "uri",
          "type": "string"
        }
      ],
      "name": "isContentOwned",
      "outputs": [
        {
          "internalType": "bool",
          "name": "",
          "type": "bool"
        }
      ],
      "stateMutability": "view",
      "type": "function"
    },
    {
      "inputs": [
        {
          "internalType": "uint256",
          "name": "tokenId",
          "type": "uint256"
        },
        {
          "internalType": "address payable",
          "name": "userPayableAddress",
          "type": "address"
        }
      ],
      "name": "makeDownPayment",
      "outputs": [],
      "stateMutability": "payable",
      "type": "function"
    },
    {
      "inputs": [
        {
          "internalType": "address",
          "name": "recipient",
          "type": "address"
        },
        {
          "internalType": "string",
          "name": "ipfsTitleDeedURI",
          "type": "string"
        },
        {
          "internalType": "string",
          "name": "propertyId",
          "type": "string"
        }
      ],
      "name": "mintNFT",
      "outputs": [
        {
          "internalType": "uint256",
          "name": "",
          "type": "uint256"
        }
      ],
      "stateMutability": "nonpayable",
      "type": "function"
    },
    {
      "inputs": [],
      "name": "name",
      "outputs": [
        {
          "internalType": "string",
          "name": "",
          "type": "string"
        }
      ],
      "stateMutability": "view",
      "type": "function"
    },
    {
      "inputs": [],
      "name": "owner",
      "outputs": [
        {
          "internalType": "address",
          "name": "",
          "type": "address"
        }
      ],
      "stateMutability": "view",
      "type": "function"
    },
    {
      "inputs": [
        {
          "internalType": "uint256",
          "name": "tokenId",
          "type": "uint256"
        }
      ],
      "name": "ownerOf",
      "outputs": [
        {
          "internalType": "address",
          "name": "",
          "type": "address"
        }
      ],
      "stateMutability": "view",
      "type": "function"
    },
    {
      "inputs": [
        {
          "internalType": "uint256",
          "name": "",
          "type": "uint256"
        }
      ],
      "name": "propertyPrice",
      "outputs": [
        {
          "internalType": "uint256",
          "name": "",
          "type": "uint256"
        }
      ],
      "stateMutability": "view",
      "type": "function"
    },
    {
      "inputs": [],
      "name": "renounceOwnership",
      "outputs": [],
      "stateMutability": "nonpayable",
      "type": "function"
    },
    {
      "inputs": [
        {
          "internalType": "address",
          "name": "from",
          "type": "address"
        },
        {
          "internalType": "address",
          "name": "to",
          "type": "address"
        },
        {
          "internalType": "uint256",
          "name": "tokenId",
          "type": "uint256"
        }
      ],
      "name": "safeTransferFrom",
      "outputs": [],
      "stateMutability": "nonpayable",
      "type": "function"
    },
    {
      "inputs": [
        {
          "internalType": "address",
          "name": "from",
          "type": "address"
        },
        {
          "internalType": "address",
          "name": "to",
          "type": "address"
        },
        {
          "internalType": "uint256",
          "name": "tokenId",
          "type": "uint256"
        },
        {
          "internalType": "bytes",
          "name": "data",
          "type": "bytes"
        }
      ],
      "name": "safeTransferFrom",
      "outputs": [],
      "stateMutability": "nonpayable",
      "type": "function"
    },
    {
      "inputs": [
        {
          "internalType": "address",
          "name": "operator",
          "type": "address"
        },
        {
          "internalType": "bool",
          "name": "approved",
          "type": "bool"
        }
      ],
      "name": "setApprovalForAll",
      "outputs": [],
      "stateMutability": "nonpayable",
      "type": "function"
    },
    {
      "inputs": [
        {
          "internalType": "bytes4",
          "name": "interfaceId",
          "type": "bytes4"
        }
      ],
      "name": "supportsInterface",
      "outputs": [
        {
          "internalType": "bool",
          "name": "",
          "type": "bool"
        }
      ],
      "stateMutability": "view",
      "type": "function"
    },
    {
      "inputs": [],
      "name": "symbol",
      "outputs": [
        {
          "internalType": "string",
          "name": "",
          "type": "string"
        }
      ],
      "stateMutability": "view",
      "type": "function"
    },
    {
      "inputs": [
        {
          "internalType": "uint256",
          "name": "",
          "type": "uint256"
        },
        {
          "internalType": "uint256",
          "name": "",
          "type": "uint256"
        }
      ],
      "name": "tokenIdToBuyerAddress",
      "outputs": [
        {
          "internalType": "address",
          "name": "",
          "type": "address"
        }
      ],
      "stateMutability": "view",
      "type": "function"
    },
    {
      "inputs": [
        {
          "internalType": "uint256",
          "name": "",
          "type": "uint256"
        }
      ],
      "name": "tokenIdToSellerPayableAddress",
      "outputs": [
        {
          "internalType": "address payable",
          "name": "",
          "type": "address"
        }
      ],
      "stateMutability": "view",
      "type": "function"
    },
    {
      "inputs": [
        {
          "internalType": "uint256",
          "name": "tokenId",
          "type": "uint256"
        }
      ],
      "name": "tokenURI",
      "outputs": [
        {
          "internalType": "string",
          "name": "",
          "type": "string"
        }
      ],
      "stateMutability": "view",
      "type": "function"
    },
    {
      "inputs": [
        {
          "internalType": "address",
          "name": "from",
          "type": "address"
        },
        {
          "internalType": "address",
          "name": "to",
          "type": "address"
        },
        {
          "internalType": "uint256",
          "name": "tokenId",
          "type": "uint256"
        }
      ],
      "name": "tranfer",
      "outputs": [],
      "stateMutability": "nonpayable",
      "type": "function"
    },
    {
      "inputs": [
        {
          "internalType": "address",
          "name": "from",
          "type": "address"
        },
        {
          "internalType": "address",
          "name": "to",
          "type": "address"
        },
        {
          "internalType": "uint256",
          "name": "tokenId",
          "type": "uint256"
        }
      ],
      "name": "transferFrom",
      "outputs": [],
      "stateMutability": "nonpayable",
      "type": "function"
    },
    {
      "inputs": [
        {
          "internalType": "address",
          "name": "newOwner",
          "type": "address"
        }
      ],
      "name": "transferOwnership",
      "outputs": [],
      "stateMutability": "nonpayable",
      "type": "function"
    }
  ],
  "bytecode": "0x60806040523480156200001157600080fd5b506040518060400160405280600a81526020017f506f6c79427269636b73000000000000000000000000000000000000000000008152506040518060400160405280600481526020017f504252530000000000000000000000000000000000000000000000000000000081525081600090816200008f919062000412565b508060019081620000a1919062000412565b505050620000c4620000b8620000ca60201b60201c565b620000d260201b60201c565b620004f9565b600033905090565b6000600760009054906101000a900473ffffffffffffffffffffffffffffffffffffffff16905081600760006101000a81548173ffffffffffffffffffffffffffffffffffffffff021916908373ffffffffffffffffffffffffffffffffffffffff1602179055508173ffffffffffffffffffffffffffffffffffffffff168173ffffffffffffffffffffffffffffffffffffffff167f8be0079c531659141344cd1fd0a4f28419497f9722a3daafe3b4186f6b6457e060405160405180910390a35050565b600081519050919050565b7f4e487b7100000000000000000000000000000000000000000000000000000000600052604160045260246000fd5b7f4e487b7100000000000000000000000000000000000000000000000000000000600052602260045260246000fd5b600060028204905060018216806200021a57607f821691505b60208210810362000230576200022f620001d2565b5b50919050565b60008190508160005260206000209050919050565b60006020601f8301049050919050565b600082821b905092915050565b6000600883026200029a7fffffffffffffffffffffffffffffffffffffffffffffffffffffffffffffffff826200025b565b620002a686836200025b565b95508019841693508086168417925050509392505050565b6000819050919050565b6000819050919050565b6000620002f3620002ed620002e784620002be565b620002c8565b620002be565b9050919050565b6000819050919050565b6200030f83620002d2565b620003276200031e82620002fa565b84845462000268565b825550505050565b600090565b6200033e6200032f565b6200034b81848462000304565b505050565b5b8181101562000373576200036760008262000334565b60018101905062000351565b5050565b601f821115620003c2576200038c8162000236565b62000397846200024b565b81016020851015620003a7578190505b620003bf620003b6856200024b565b83018262000350565b50505b505050565b600082821c905092915050565b6000620003e760001984600802620003c7565b1980831691505092915050565b6000620004028383620003d4565b9150826002028217905092915050565b6200041d8262000198565b67ffffffffffffffff811115620004395762000438620001a3565b5b62000445825462000201565b6200045282828562000377565b600060209050601f8311600181146200048a576000841562000475578287015190505b620004818582620003f4565b865550620004f1565b601f1984166200049a8662000236565b60005b82811015620004c4578489015182556001820191506020850194506020810190506200049d565b86831015620004e45784890151620004e0601f891682620003d4565b8355505b6001600288020188555050505b505050505050565b61445d80620005096000396000f3fe6080604052600436106101e35760003560e01c806384c4bd4b11610102578063a983fa4911610095578063c12e1a0711610064578063c12e1a0714610727578063c87b56dd14610750578063e985e9c51461078d578063f2fde38b146107ca576101e3565b8063a983fa4914610689578063b364cf7d146106a5578063b88d4fde146106c1578063bd1157a9146106ea576101e3565b806395d89b41116100d157806395d89b41146105bb5780639f1cabc6146105e6578063a22cb46514610623578063a3ee38ae1461064c576101e3565b806384c4bd4b146104fd5780638c6743e0146105285780638da5cb5b14610553578063914e58f51461057e576101e3565b806326530f391161017a5780636352211e116101495780636352211e1461042f57806370a082311461046c578063715018a6146104a9578063747f9b4f146104c0576101e3565b806326530f39146103635780633a28551e1461038c57806342842e0e146103c95780634412e439146103f2576101e3565b806309f5c475116101b657806309f5c475146102b657806312065fe0146102d257806314050c5a146102fd57806323b872dd1461033a576101e3565b806301ffc9a7146101e857806306fdde0314610225578063081812fc14610250578063095ea7b31461028d575b600080fd5b3480156101f457600080fd5b5061020f600480360381019061020a9190612b8a565b6107f3565b60405161021c9190612bd2565b60405180910390f35b34801561023157600080fd5b5061023a6108d5565b6040516102479190612c7d565b60405180910390f35b34801561025c57600080fd5b5061027760048036038101906102729190612cd5565b610967565b6040516102849190612d43565b60405180910390f35b34801561029957600080fd5b506102b460048036038101906102af9190612d8a565b6109ad565b005b6102d060048036038101906102cb9190612cd5565b610ac4565b005b3480156102de57600080fd5b506102e7610bdf565b6040516102f49190612dd9565b60405180910390f35b34801561030957600080fd5b50610324600480360381019061031f9190612cd5565b610be7565b6040516103319190612dd9565b60405180910390f35b34801561034657600080fd5b50610361600480360381019061035c9190612df4565b610bff565b005b34801561036f57600080fd5b5061038a60048036038101906103859190612df4565b610c5f565b005b34801561039857600080fd5b506103b360048036038101906103ae9190612e47565b610c6f565b6040516103c09190612e95565b60405180910390f35b3480156103d557600080fd5b506103f060048036038101906103eb9190612df4565b610ca2565b005b3480156103fe57600080fd5b5061041960048036038101906104149190612e47565b610dd9565b6040516104269190612dd9565b60405180910390f35b34801561043b57600080fd5b5061045660048036038101906104519190612cd5565b610df1565b6040516104639190612d43565b60405180910390f35b34801561047857600080fd5b50610493600480360381019061048e9190612e47565b610e77565b6040516104a09190612dd9565b60405180910390f35b3480156104b557600080fd5b506104be610f2e565b005b3480156104cc57600080fd5b506104e760048036038101906104e29190612cd5565b610f42565b6040516104f49190612dd9565b60405180910390f35b34801561050957600080fd5b50610512610f5a565b60405161051f9190612dd9565b60405180910390f35b34801561053457600080fd5b5061053d610f66565b60405161054a9190612dd9565b60405180910390f35b34801561055f57600080fd5b50610568610f7c565b6040516105759190612d43565b60405180910390f35b34801561058a57600080fd5b506105a560048036038101906105a09190612cd5565b610fa6565b6040516105b29190612e95565b60405180910390f35b3480156105c757600080fd5b506105d0610fd9565b6040516105dd9190612c7d565b60405180910390f35b3480156105f257600080fd5b5061060d60048036038101906106089190612fe5565b61106b565b60405161061a9190612bd2565b60405180910390f35b34801561062f57600080fd5b5061064a6004803603810190610645919061305a565b6110a6565b005b34801561065857600080fd5b50610673600480360381019061066e919061309a565b6110bc565b6040516106809190612dd9565b60405180910390f35b6106a3600480360381019061069e9190613151565b6111c2565b005b6106bf60048036038101906106ba9190613191565b611337565b005b3480156106cd57600080fd5b506106e860048036038101906106e39190613272565b611579565b005b3480156106f657600080fd5b50610711600480360381019061070c91906132f5565b6115db565b60405161071e9190612d43565b60405180910390f35b34801561073357600080fd5b5061074e60048036038101906107499190613335565b611629565b005b34801561075c57600080fd5b5061077760048036038101906107729190612cd5565b611705565b6040516107849190612c7d565b60405180910390f35b34801561079957600080fd5b506107b460048036038101906107af9190613388565b611717565b6040516107c19190612bd2565b60405180910390f35b3480156107d657600080fd5b506107f160048036038101906107ec9190612e47565b6117ab565b005b60007f80ac58cd000000000000000000000000000000000000000000000000000000007bffffffffffffffffffffffffffffffffffffffffffffffffffffffff1916827bffffffffffffffffffffffffffffffffffffffffffffffffffffffff191614806108be57507f5b5e139f000000000000000000000000000000000000000000000000000000007bffffffffffffffffffffffffffffffffffffffffffffffffffffffff1916827bffffffffffffffffffffffffffffffffffffffffffffffffffffffff1916145b806108ce57506108cd8261182e565b5b9050919050565b6060600080546108e4906133f7565b80601f0160208091040260200160405190810160405280929190818152602001828054610910906133f7565b801561095d5780601f106109325761010080835404028352916020019161095d565b820191906000526020600020905b81548152906001019060200180831161094057829003601f168201915b5050505050905090565b600061097282611898565b6004600083815260200190815260200160002060009054906101000a900473ffffffffffffffffffffffffffffffffffffffff169050919050565b60006109b882610df1565b90508073ffffffffffffffffffffffffffffffffffffffff168373ffffffffffffffffffffffffffffffffffffffff1603610a28576040517f08c379a0000000000000000000000000000000000000000000000000000000008152600401610a1f9061349a565b60405180910390fd5b8073ffffffffffffffffffffffffffffffffffffffff16610a476118e3565b73ffffffffffffffffffffffffffffffffffffffff161480610a765750610a7581610a706118e3565b611717565b5b610ab5576040517f08c379a0000000000000000000000000000000000000000000000000000000008152600401610aac9061352c565b60405180910390fd5b610abf83836118eb565b505050565b600c600082815260200190815260200160002054600b600083815260200190815260200160002054610af6919061357b565b341015610b38576040517f08c379a0000000000000000000000000000000000000000000000000000000008152600401610b2f906135fb565b60405180910390fd5b610b43303383610c5f565b60006010600083815260200190815260200160002060009054906101000a900473ffffffffffffffffffffffffffffffffffffffff1690506000600b60008481526020019081526020016000205490508173ffffffffffffffffffffffffffffffffffffffff166108fc829081150290604051600060405180830381858888f19350505050158015610bd9573d6000803e3d6000fd5b50505050565b600047905090565b600b6020528060005260406000206000915090505481565b610c10610c0a6118e3565b826119a4565b610c4f576040517f08c379a0000000000000000000000000000000000000000000000000000000008152600401610c469061368d565b60405180910390fd5b610c5a838383611a39565b505050565b610c6a838383610ca2565b505050565b600f6020528060005260406000206000915054906101000a900473ffffffffffffffffffffffffffffffffffffffff1681565b600073ffffffffffffffffffffffffffffffffffffffff168373ffffffffffffffffffffffffffffffffffffffff1603610d11576040517f08c379a0000000000000000000000000000000000000000000000000000000008152600401610d08906136f9565b60405180910390fd5b600073ffffffffffffffffffffffffffffffffffffffff168273ffffffffffffffffffffffffffffffffffffffff1603610d80576040517f08c379a0000000000000000000000000000000000000000000000000000000008152600401610d7790613765565b60405180910390fd5b610d8a83826119a4565b610dc9576040517f08c379a0000000000000000000000000000000000000000000000000000000008152600401610dc0906137d1565b60405180910390fd5b610dd4838383611a39565b505050565b600e6020528060005260406000206000915090505481565b600080610dfd83611d32565b9050600073ffffffffffffffffffffffffffffffffffffffff168173ffffffffffffffffffffffffffffffffffffffff1603610e6e576040517f08c379a0000000000000000000000000000000000000000000000000000000008152600401610e659061383d565b60405180910390fd5b80915050919050565b60008073ffffffffffffffffffffffffffffffffffffffff168273ffffffffffffffffffffffffffffffffffffffff1603610ee7576040517f08c379a0000000000000000000000000000000000000000000000000000000008152600401610ede906138cf565b60405180910390fd5b600360008373ffffffffffffffffffffffffffffffffffffffff1673ffffffffffffffffffffffffffffffffffffffff168152602001908152602001600020549050919050565b610f36611d6f565b610f406000611ded565b565b600c6020528060005260406000206000915090505481565b60088060000154905081565b600080610f736008611eb3565b90508091505090565b6000600760009054906101000a900473ffffffffffffffffffffffffffffffffffffffff16905090565b60106020528060005260406000206000915054906101000a900473ffffffffffffffffffffffffffffffffffffffff1681565b606060018054610fe8906133f7565b80601f0160208091040260200160405190810160405280929190818152602001828054611014906133f7565b80156110615780601f1061103657610100808354040283529160200191611061565b820191906000526020600020905b81548152906001019060200180831161104457829003601f168201915b5050505050905090565b6000600160098360405161107f919061392b565b908152602001604051809103902060009054906101000a900460ff1660ff16149050919050565b6110b86110b16118e3565b8383611ec1565b5050565b60006110c6611d6f565b6110cf8361106b565b1561110f576040517f08c379a00000000000000000000000000000000000000000000000000000000081526004016111069061398e565b60405180910390fd5b6000611119610f66565b9050611125600861202d565b6001600985604051611137919061392b565b908152602001604051809103902060006101000a81548160ff021916908360ff160217905550604051806020016040528084815250600a8560405161117c919061392b565b90815260200160405180910390209060016111989291906129f2565b506111a38582612043565b6111ad8185612260565b6111b733826118eb565b809150509392505050565b600c600083815260200190815260200160002054341015611218576040517f08c379a000000000000000000000000000000000000000000000000000000000815260040161120f906139fa565b60405180910390fd5b80600f60003373ffffffffffffffffffffffffffffffffffffffff1673ffffffffffffffffffffffffffffffffffffffff16815260200190815260200160002060006101000a81548173ffffffffffffffffffffffffffffffffffffffff021916908373ffffffffffffffffffffffffffffffffffffffff1602179055506000600d6000848152602001908152602001600020905080829080600181540180825580915050600190039060005260206000200160009091909190916101000a81548173ffffffffffffffffffffffffffffffffffffffff021916908373ffffffffffffffffffffffffffffffffffffffff16021790555080600d6000858152602001908152602001600020908054611331929190612a4b565b50505050565b61134133836119a4565b611380576040517f08c379a000000000000000000000000000000000000000000000000000000000815260040161137790613a8c565b60405180910390fd5b61138b333084610c5f565b6000600d600084815260200190815260200160002080548060200260200160405190810160405280929190818152602001828054801561142057602002820191906000526020600020905b8160009054906101000a900473ffffffffffffffffffffffffffffffffffffffff1673ffffffffffffffffffffffffffffffffffffffff16815260200190600101908083116113d6575b5050505050905060005b8151811015611573578273ffffffffffffffffffffffffffffffffffffffff1682828151811061145d5761145c613aac565b5b602002602001015173ffffffffffffffffffffffffffffffffffffffff1614611560576000600f600084848151811061149957611498613aac565b5b602002602001015173ffffffffffffffffffffffffffffffffffffffff1673ffffffffffffffffffffffffffffffffffffffff16815260200190815260200160002060009054906101000a900473ffffffffffffffffffffffffffffffffffffffff1690506000600c60008781526020019081526020016000205490508173ffffffffffffffffffffffffffffffffffffffff166108fc829081150290604051600060405180830381858888f1935050505015801561155c573d6000803e3d6000fd5b5050505b808061156b90613adb565b91505061142a565b50505050565b61158a6115846118e3565b836119a4565b6115c9576040517f08c379a00000000000000000000000000000000000000000000000000000000081526004016115c09061368d565b60405180910390fd5b6115d5848484846122cd565b50505050565b600d60205281600052604060002081815481106115f757600080fd5b906000526020600020016000915091509054906101000a900473ffffffffffffffffffffffffffffffffffffffff1681565b61163333846119a4565b611672576040517f08c379a000000000000000000000000000000000000000000000000000000000815260040161166990613b95565b60405180910390fd5b81600b60008581526020019081526020016000208190555080600c60008581526020019081526020016000208190555060003390506000819050806010600087815260200190815260200160002060006101000a81548173ffffffffffffffffffffffffffffffffffffffff021916908373ffffffffffffffffffffffffffffffffffffffff1602179055505050505050565b606061171082612329565b9050919050565b6000600560008473ffffffffffffffffffffffffffffffffffffffff1673ffffffffffffffffffffffffffffffffffffffff16815260200190815260200160002060008373ffffffffffffffffffffffffffffffffffffffff1673ffffffffffffffffffffffffffffffffffffffff16815260200190815260200160002060009054906101000a900460ff16905092915050565b6117b3611d6f565b600073ffffffffffffffffffffffffffffffffffffffff168173ffffffffffffffffffffffffffffffffffffffff1603611822576040517f08c379a000000000000000000000000000000000000000000000000000000000815260040161181990613c27565b60405180910390fd5b61182b81611ded565b50565b60007f01ffc9a7000000000000000000000000000000000000000000000000000000007bffffffffffffffffffffffffffffffffffffffffffffffffffffffff1916827bffffffffffffffffffffffffffffffffffffffffffffffffffffffff1916149050919050565b6118a18161243b565b6118e0576040517f08c379a00000000000000000000000000000000000000000000000000000000081526004016118d79061383d565b60405180910390fd5b50565b600033905090565b816004600083815260200190815260200160002060006101000a81548173ffffffffffffffffffffffffffffffffffffffff021916908373ffffffffffffffffffffffffffffffffffffffff160217905550808273ffffffffffffffffffffffffffffffffffffffff1661195e83610df1565b73ffffffffffffffffffffffffffffffffffffffff167f8c5be1e5ebec7d5bd14f71427d1e84f3dd0314c0f7b2291e5b200ac8c7c3b92560405160405180910390a45050565b6000806119b083610df1565b90508073ffffffffffffffffffffffffffffffffffffffff168473ffffffffffffffffffffffffffffffffffffffff1614806119f257506119f18185611717565b5b80611a3057508373ffffffffffffffffffffffffffffffffffffffff16611a1884610967565b73ffffffffffffffffffffffffffffffffffffffff16145b91505092915050565b8273ffffffffffffffffffffffffffffffffffffffff16611a5982610df1565b73ffffffffffffffffffffffffffffffffffffffff1614611aaf576040517f08c379a0000000000000000000000000000000000000000000000000000000008152600401611aa690613cb9565b60405180910390fd5b600073ffffffffffffffffffffffffffffffffffffffff168273ffffffffffffffffffffffffffffffffffffffff1603611b1e576040517f08c379a0000000000000000000000000000000000000000000000000000000008152600401611b1590613d4b565b60405180910390fd5b611b2b838383600161247c565b8273ffffffffffffffffffffffffffffffffffffffff16611b4b82610df1565b73ffffffffffffffffffffffffffffffffffffffff1614611ba1576040517f08c379a0000000000000000000000000000000000000000000000000000000008152600401611b9890613cb9565b60405180910390fd5b6004600082815260200190815260200160002060006101000a81549073ffffffffffffffffffffffffffffffffffffffff02191690556001600360008573ffffffffffffffffffffffffffffffffffffffff1673ffffffffffffffffffffffffffffffffffffffff168152602001908152602001600020600082825403925050819055506001600360008473ffffffffffffffffffffffffffffffffffffffff1673ffffffffffffffffffffffffffffffffffffffff16815260200190815260200160002060008282540192505081905550816002600083815260200190815260200160002060006101000a81548173ffffffffffffffffffffffffffffffffffffffff021916908373ffffffffffffffffffffffffffffffffffffffff160217905550808273ffffffffffffffffffffffffffffffffffffffff168473ffffffffffffffffffffffffffffffffffffffff167fddf252ad1be2c89b69c2b068fc378daa952ba7f163c4a11628f55a4df523b3ef60405160405180910390a4611d2d83838360016125a2565b505050565b60006002600083815260200190815260200160002060009054906101000a900473ffffffffffffffffffffffffffffffffffffffff169050919050565b611d776118e3565b73ffffffffffffffffffffffffffffffffffffffff16611d95610f7c565b73ffffffffffffffffffffffffffffffffffffffff1614611deb576040517f08c379a0000000000000000000000000000000000000000000000000000000008152600401611de290613db7565b60405180910390fd5b565b6000600760009054906101000a900473ffffffffffffffffffffffffffffffffffffffff16905081600760006101000a81548173ffffffffffffffffffffffffffffffffffffffff021916908373ffffffffffffffffffffffffffffffffffffffff1602179055508173ffffffffffffffffffffffffffffffffffffffff168173ffffffffffffffffffffffffffffffffffffffff167f8be0079c531659141344cd1fd0a4f28419497f9722a3daafe3b4186f6b6457e060405160405180910390a35050565b600081600001549050919050565b8173ffffffffffffffffffffffffffffffffffffffff168373ffffffffffffffffffffffffffffffffffffffff1603611f2f576040517f08c379a0000000000000000000000000000000000000000000000000000000008152600401611f2690613e23565b60405180910390fd5b80600560008573ffffffffffffffffffffffffffffffffffffffff1673ffffffffffffffffffffffffffffffffffffffff16815260200190815260200160002060008473ffffffffffffffffffffffffffffffffffffffff1673ffffffffffffffffffffffffffffffffffffffff16815260200190815260200160002060006101000a81548160ff0219169083151502179055508173ffffffffffffffffffffffffffffffffffffffff168373ffffffffffffffffffffffffffffffffffffffff167f17307eab39ab6107e8899845ad3d59bd9653f200f220920489ca2b5937696c31836040516120209190612bd2565b60405180910390a3505050565b6001816000016000828254019250508190555050565b600073ffffffffffffffffffffffffffffffffffffffff168273ffffffffffffffffffffffffffffffffffffffff16036120b2576040517f08c379a00000000000000000000000000000000000000000000000000000000081526004016120a990613e8f565b60405180910390fd5b6120bb8161243b565b156120fb576040517f08c379a00000000000000000000000000000000000000000000000000000000081526004016120f290613efb565b60405180910390fd5b61210960008383600161247c565b6121128161243b565b15612152576040517f08c379a000000000000000000000000000000000000000000000000000000000815260040161214990613efb565b60405180910390fd5b6001600360008473ffffffffffffffffffffffffffffffffffffffff1673ffffffffffffffffffffffffffffffffffffffff16815260200190815260200160002060008282540192505081905550816002600083815260200190815260200160002060006101000a81548173ffffffffffffffffffffffffffffffffffffffff021916908373ffffffffffffffffffffffffffffffffffffffff160217905550808273ffffffffffffffffffffffffffffffffffffffff16600073ffffffffffffffffffffffffffffffffffffffff167fddf252ad1be2c89b69c2b068fc378daa952ba7f163c4a11628f55a4df523b3ef60405160405180910390a461225c6000838360016125a2565b5050565b6122698261243b565b6122a8576040517f08c379a000000000000000000000000000000000000000000000000000000000815260040161229f90613f8d565b60405180910390fd5b806006600084815260200190815260200160002090816122c89190614159565b505050565b6122d8848484611a39565b6122e4848484846125a8565b612323576040517f08c379a000000000000000000000000000000000000000000000000000000000815260040161231a9061429d565b60405180910390fd5b50505050565b606061233482611898565b6000600660008481526020019081526020016000208054612354906133f7565b80601f0160208091040260200160405190810160405280929190818152602001828054612380906133f7565b80156123cd5780601f106123a2576101008083540402835291602001916123cd565b820191906000526020600020905b8154815290600101906020018083116123b057829003601f168201915b5050505050905060006123de61272f565b905060008151036123f3578192505050612436565b6000825111156124285780826040516020016124109291906142bd565b60405160208183030381529060405292505050612436565b61243184612746565b925050505b919050565b60008073ffffffffffffffffffffffffffffffffffffffff1661245d83611d32565b73ffffffffffffffffffffffffffffffffffffffff1614159050919050565b600181111561259c57600073ffffffffffffffffffffffffffffffffffffffff168473ffffffffffffffffffffffffffffffffffffffff16146125105780600360008673ffffffffffffffffffffffffffffffffffffffff1673ffffffffffffffffffffffffffffffffffffffff1681526020019081526020016000206000828254612508919061357b565b925050819055505b600073ffffffffffffffffffffffffffffffffffffffff168373ffffffffffffffffffffffffffffffffffffffff161461259b5780600360008573ffffffffffffffffffffffffffffffffffffffff1673ffffffffffffffffffffffffffffffffffffffff168152602001908152602001600020600082825461259391906142e1565b925050819055505b5b50505050565b50505050565b60006125c98473ffffffffffffffffffffffffffffffffffffffff166127ae565b15612722578373ffffffffffffffffffffffffffffffffffffffff1663150b7a026125f26118e3565b8786866040518563ffffffff1660e01b8152600401612614949392919061436a565b6020604051808303816000875af192505050801561265057506040513d601f19601f8201168201806040525081019061264d91906143cb565b60015b6126d2573d8060008114612680576040519150601f19603f3d011682016040523d82523d6000602084013e612685565b606091505b5060008151036126ca576040517f08c379a00000000000000000000000000000000000000000000000000000000081526004016126c19061429d565b60405180910390fd5b805181602001fd5b63150b7a0260e01b7bffffffffffffffffffffffffffffffffffffffffffffffffffffffff1916817bffffffffffffffffffffffffffffffffffffffffffffffffffffffff191614915050612727565b600190505b949350505050565b606060405180602001604052806000815250905090565b606061275182611898565b600061275b61272f565b9050600081511161277b57604051806020016040528060008152506127a6565b80612785846127d1565b6040516020016127969291906142bd565b6040516020818303038152906040525b915050919050565b6000808273ffffffffffffffffffffffffffffffffffffffff163b119050919050565b6060600060016127e08461289f565b01905060008167ffffffffffffffff8111156127ff576127fe612eba565b5b6040519080825280601f01601f1916602001820160405280156128315781602001600182028036833780820191505090505b509050600082602001820190505b600115612894578080600190039150507f3031323334353637383961626364656600000000000000000000000000000000600a86061a8153600a8581612888576128876143f8565b5b0494506000850361283f575b819350505050919050565b600080600090507a184f03e93ff9f4daa797ed6e38ed64bf6a1f01000000000000000083106128fd577a184f03e93ff9f4daa797ed6e38ed64bf6a1f01000000000000000083816128f3576128f26143f8565b5b0492506040810190505b6d04ee2d6d415b85acef8100000000831061293a576d04ee2d6d415b85acef810000000083816129305761292f6143f8565b5b0492506020810190505b662386f26fc10000831061296957662386f26fc10000838161295f5761295e6143f8565b5b0492506010810190505b6305f5e1008310612992576305f5e1008381612988576129876143f8565b5b0492506008810190505b61271083106129b75761271083816129ad576129ac6143f8565b5b0492506004810190505b606483106129da57606483816129d0576129cf6143f8565b5b0492506002810190505b600a83106129e9576001810190505b80915050919050565b828054828255906000526020600020908101928215612a3a579160200282015b82811115612a39578251829081612a299190614159565b5091602001919060010190612a12565b5b509050612a479190612a9d565b5090565b828054828255906000526020600020908101928215612a8c5760005260206000209182015b82811115612a8b578254825591600101919060010190612a70565b5b509050612a999190612ac1565b5090565b5b80821115612abd5760008181612ab49190612ade565b50600101612a9e565b5090565b5b80821115612ada576000816000905550600101612ac2565b5090565b508054612aea906133f7565b6000825580601f10612afc5750612b1b565b601f016020900490600052602060002090810190612b1a9190612ac1565b5b50565b6000604051905090565b600080fd5b600080fd5b60007fffffffff0000000000000000000000000000000000000000000000000000000082169050919050565b612b6781612b32565b8114612b7257600080fd5b50565b600081359050612b8481612b5e565b92915050565b600060208284031215612ba057612b9f612b28565b5b6000612bae84828501612b75565b91505092915050565b60008115159050919050565b612bcc81612bb7565b82525050565b6000602082019050612be76000830184612bc3565b92915050565b600081519050919050565b600082825260208201905092915050565b60005b83811015612c27578082015181840152602081019050612c0c565b60008484015250505050565b6000601f19601f8301169050919050565b6000612c4f82612bed565b612c598185612bf8565b9350612c69818560208601612c09565b612c7281612c33565b840191505092915050565b60006020820190508181036000830152612c978184612c44565b905092915050565b6000819050919050565b612cb281612c9f565b8114612cbd57600080fd5b50565b600081359050612ccf81612ca9565b92915050565b600060208284031215612ceb57612cea612b28565b5b6000612cf984828501612cc0565b91505092915050565b600073ffffffffffffffffffffffffffffffffffffffff82169050919050565b6000612d2d82612d02565b9050919050565b612d3d81612d22565b82525050565b6000602082019050612d586000830184612d34565b92915050565b612d6781612d22565b8114612d7257600080fd5b50565b600081359050612d8481612d5e565b92915050565b60008060408385031215612da157612da0612b28565b5b6000612daf85828601612d75565b9250506020612dc085828601612cc0565b9150509250929050565b612dd381612c9f565b82525050565b6000602082019050612dee6000830184612dca565b92915050565b600080600060608486031215612e0d57612e0c612b28565b5b6000612e1b86828701612d75565b9350506020612e2c86828701612d75565b9250506040612e3d86828701612cc0565b9150509250925092565b600060208284031215612e5d57612e5c612b28565b5b6000612e6b84828501612d75565b91505092915050565b6000612e7f82612d02565b9050919050565b612e8f81612e74565b82525050565b6000602082019050612eaa6000830184612e86565b92915050565b600080fd5b600080fd5b7f4e487b7100000000000000000000000000000000000000000000000000000000600052604160045260246000fd5b612ef282612c33565b810181811067ffffffffffffffff82111715612f1157612f10612eba565b5b80604052505050565b6000612f24612b1e565b9050612f308282612ee9565b919050565b600067ffffffffffffffff821115612f5057612f4f612eba565b5b612f5982612c33565b9050602081019050919050565b82818337600083830152505050565b6000612f88612f8384612f35565b612f1a565b905082815260208101848484011115612fa457612fa3612eb5565b5b612faf848285612f66565b509392505050565b600082601f830112612fcc57612fcb612eb0565b5b8135612fdc848260208601612f75565b91505092915050565b600060208284031215612ffb57612ffa612b28565b5b600082013567ffffffffffffffff81111561301957613018612b2d565b5b61302584828501612fb7565b91505092915050565b61303781612bb7565b811461304257600080fd5b50565b6000813590506130548161302e565b92915050565b6000806040838503121561307157613070612b28565b5b600061307f85828601612d75565b925050602061309085828601613045565b9150509250929050565b6000806000606084860312156130b3576130b2612b28565b5b60006130c186828701612d75565b935050602084013567ffffffffffffffff8111156130e2576130e1612b2d565b5b6130ee86828701612fb7565b925050604084013567ffffffffffffffff81111561310f5761310e612b2d565b5b61311b86828701612fb7565b9150509250925092565b61312e81612e74565b811461313957600080fd5b50565b60008135905061314b81613125565b92915050565b6000806040838503121561316857613167612b28565b5b600061317685828601612cc0565b92505060206131878582860161313c565b9150509250929050565b600080604083850312156131a8576131a7612b28565b5b60006131b685828601612cc0565b92505060206131c785828601612d75565b9150509250929050565b600067ffffffffffffffff8211156131ec576131eb612eba565b5b6131f582612c33565b9050602081019050919050565b6000613215613210846131d1565b612f1a565b90508281526020810184848401111561323157613230612eb5565b5b61323c848285612f66565b509392505050565b600082601f83011261325957613258612eb0565b5b8135613269848260208601613202565b91505092915050565b6000806000806080858703121561328c5761328b612b28565b5b600061329a87828801612d75565b94505060206132ab87828801612d75565b93505060406132bc87828801612cc0565b925050606085013567ffffffffffffffff8111156132dd576132dc612b2d565b5b6132e987828801613244565b91505092959194509250565b6000806040838503121561330c5761330b612b28565b5b600061331a85828601612cc0565b925050602061332b85828601612cc0565b9150509250929050565b60008060006060848603121561334e5761334d612b28565b5b600061335c86828701612cc0565b935050602061336d86828701612cc0565b925050604061337e86828701612cc0565b9150509250925092565b6000806040838503121561339f5761339e612b28565b5b60006133ad85828601612d75565b92505060206133be85828601612d75565b9150509250929050565b7f4e487b7100000000000000000000000000000000000000000000000000000000600052602260045260246000fd5b6000600282049050600182168061340f57607f821691505b602082108103613422576134216133c8565b5b50919050565b7f4552433732313a20617070726f76616c20746f2063757272656e74206f776e6560008201527f7200000000000000000000000000000000000000000000000000000000000000602082015250565b6000613484602183612bf8565b915061348f82613428565b604082019050919050565b600060208201905081810360008301526134b381613477565b9050919050565b7f4552433732313a20617070726f76652063616c6c6572206973206e6f7420746f60008201527f6b656e206f776e6572206f7220617070726f76656420666f7220616c6c000000602082015250565b6000613516603d83612bf8565b9150613521826134ba565b604082019050919050565b6000602082019050818103600083015261354581613509565b9050919050565b7f4e487b7100000000000000000000000000000000000000000000000000000000600052601160045260246000fd5b600061358682612c9f565b915061359183612c9f565b92508282039050818111156135a9576135a861354c565b5b92915050565b7f706c656173652070617920636f727265637420616d6f756e7400000000000000600082015250565b60006135e5601983612bf8565b91506135f0826135af565b602082019050919050565b60006020820190508181036000830152613614816135d8565b9050919050565b7f4552433732313a2063616c6c6572206973206e6f7420746f6b656e206f776e6560008201527f72206f7220617070726f76656400000000000000000000000000000000000000602082015250565b6000613677602d83612bf8565b91506136828261361b565b604082019050919050565b600060208201905081810360008301526136a68161366a565b9050919050565b7f46726f6d2061646472657373206973206e6f742076616c696400000000000000600082015250565b60006136e3601983612bf8565b91506136ee826136ad565b602082019050919050565b60006020820190508181036000830152613712816136d6565b9050919050565b7f546f2061646472657373206973206e6f742076616c6964000000000000000000600082015250565b600061374f601783612bf8565b915061375a82613719565b602082019050919050565b6000602082019050818103600083015261377e81613742565b9050919050565b7f5472616e73666572206e6f74207065726d697474656400000000000000000000600082015250565b60006137bb601683612bf8565b91506137c682613785565b602082019050919050565b600060208201905081810360008301526137ea816137ae565b9050919050565b7f4552433732313a20696e76616c696420746f6b656e2049440000000000000000600082015250565b6000613827601883612bf8565b9150613832826137f1565b602082019050919050565b600060208201905081810360008301526138568161381a565b9050919050565b7f4552433732313a2061646472657373207a65726f206973206e6f74206120766160008201527f6c6964206f776e65720000000000000000000000000000000000000000000000602082015250565b60006138b9602983612bf8565b91506138c48261385d565b604082019050919050565b600060208201905081810360008301526138e8816138ac565b9050919050565b600081905092915050565b600061390582612bed565b61390f81856138ef565b935061391f818560208601612c09565b80840191505092915050565b600061393782846138fa565b915081905092915050565b7f4e465420616c7265616479206d696e7465640000000000000000000000000000600082015250565b6000613978601283612bf8565b915061398382613942565b602082019050919050565b600060208201905081810360008301526139a78161396b565b9050919050565b7f706c65617365206465706f73697420636f727265637420616d6f756e74000000600082015250565b60006139e4601d83612bf8565b91506139ef826139ae565b602082019050919050565b60006020820190508181036000830152613a13816139d7565b9050919050565b7f6f6e6c79206f776e6572206f66204e46542063616e207374617274206573637260008201527f6f772070726f6365737300000000000000000000000000000000000000000000602082015250565b6000613a76602a83612bf8565b9150613a8182613a1a565b604082019050919050565b60006020820190508181036000830152613aa581613a69565b9050919050565b7f4e487b7100000000000000000000000000000000000000000000000000000000600052603260045260246000fd5b6000613ae682612c9f565b91507fffffffffffffffffffffffffffffffffffffffffffffffffffffffffffffffff8203613b1857613b1761354c565b5b600182019050919050565b7f6f6e6c79206f776e6572206f66204e46542063616e20637265617465206c697360008201527f74696e6700000000000000000000000000000000000000000000000000000000602082015250565b6000613b7f602483612bf8565b9150613b8a82613b23565b604082019050919050565b60006020820190508181036000830152613bae81613b72565b9050919050565b7f4f776e61626c653a206e6577206f776e657220697320746865207a65726f206160008201527f6464726573730000000000000000000000000000000000000000000000000000602082015250565b6000613c11602683612bf8565b9150613c1c82613bb5565b604082019050919050565b60006020820190508181036000830152613c4081613c04565b9050919050565b7f4552433732313a207472616e736665722066726f6d20696e636f72726563742060008201527f6f776e6572000000000000000000000000000000000000000000000000000000602082015250565b6000613ca3602583612bf8565b9150613cae82613c47565b604082019050919050565b60006020820190508181036000830152613cd281613c96565b9050919050565b7f4552433732313a207472616e7366657220746f20746865207a65726f2061646460008201527f7265737300000000000000000000000000000000000000000000000000000000602082015250565b6000613d35602483612bf8565b9150613d4082613cd9565b604082019050919050565b60006020820190508181036000830152613d6481613d28565b9050919050565b7f4f776e61626c653a2063616c6c6572206973206e6f7420746865206f776e6572600082015250565b6000613da1602083612bf8565b9150613dac82613d6b565b602082019050919050565b60006020820190508181036000830152613dd081613d94565b9050919050565b7f4552433732313a20617070726f766520746f2063616c6c657200000000000000600082015250565b6000613e0d601983612bf8565b9150613e1882613dd7565b602082019050919050565b60006020820190508181036000830152613e3c81613e00565b9050919050565b7f4552433732313a206d696e7420746f20746865207a65726f2061646472657373600082015250565b6000613e79602083612bf8565b9150613e8482613e43565b602082019050919050565b60006020820190508181036000830152613ea881613e6c565b9050919050565b7f4552433732313a20746f6b656e20616c7265616479206d696e74656400000000600082015250565b6000613ee5601c83612bf8565b9150613ef082613eaf565b602082019050919050565b60006020820190508181036000830152613f1481613ed8565b9050919050565b7f45524337323155524953746f726167653a2055524920736574206f66206e6f6e60008201527f6578697374656e7420746f6b656e000000000000000000000000000000000000602082015250565b6000613f77602e83612bf8565b9150613f8282613f1b565b604082019050919050565b60006020820190508181036000830152613fa681613f6a565b9050919050565b60008190508160005260206000209050919050565b60006020601f8301049050919050565b600082821b905092915050565b60006008830261400f7fffffffffffffffffffffffffffffffffffffffffffffffffffffffffffffffff82613fd2565b6140198683613fd2565b95508019841693508086168417925050509392505050565b6000819050919050565b600061405661405161404c84612c9f565b614031565b612c9f565b9050919050565b6000819050919050565b6140708361403b565b61408461407c8261405d565b848454613fdf565b825550505050565b600090565b61409961408c565b6140a4818484614067565b505050565b5b818110156140c8576140bd600082614091565b6001810190506140aa565b5050565b601f82111561410d576140de81613fad565b6140e784613fc2565b810160208510156140f6578190505b61410a61410285613fc2565b8301826140a9565b50505b505050565b600082821c905092915050565b600061413060001984600802614112565b1980831691505092915050565b6000614149838361411f565b9150826002028217905092915050565b61416282612bed565b67ffffffffffffffff81111561417b5761417a612eba565b5b61418582546133f7565b6141908282856140cc565b600060209050601f8311600181146141c357600084156141b1578287015190505b6141bb858261413d565b865550614223565b601f1984166141d186613fad565b60005b828110156141f9578489015182556001820191506020850194506020810190506141d4565b868310156142165784890151614212601f89168261411f565b8355505b6001600288020188555050505b505050505050565b7f4552433732313a207472616e7366657220746f206e6f6e20455243373231526560008201527f63656976657220696d706c656d656e7465720000000000000000000000000000602082015250565b6000614287603283612bf8565b91506142928261422b565b604082019050919050565b600060208201905081810360008301526142b68161427a565b9050919050565b60006142c982856138fa565b91506142d582846138fa565b91508190509392505050565b60006142ec82612c9f565b91506142f783612c9f565b925082820190508082111561430f5761430e61354c565b5b92915050565b600081519050919050565b600082825260208201905092915050565b600061433c82614315565b6143468185614320565b9350614356818560208601612c09565b61435f81612c33565b840191505092915050565b600060808201905061437f6000830187612d34565b61438c6020830186612d34565b6143996040830185612dca565b81810360608301526143ab8184614331565b905095945050505050565b6000815190506143c581612b5e565b92915050565b6000602082840312156143e1576143e0612b28565b5b60006143ef848285016143b6565b91505092915050565b7f4e487b7100000000000000000000000000000000000000000000000000000000600052601260045260246000fdfea26469706673582212207a1ec7bb0737be9255667788837b7d880feacb914c8ee4936a1146f022b285b364736f6c63430008110033",
  "linkReferences": {},
  "deployedLinkReferences": {}
}