{
  "_format": "hh-sol-artifact-1",
  "contractName": "PolyBricks",
  "sourceName": "contracts/PolyBricks.sol",
  "abi": [
    {
      "inputs": [],
      "stateMutability": "nonpayable",
      "type": "constructor"
    },
    {
      "anonymous": false,
      "inputs": [
        {
          "indexed": true,
          "internalType": "address",
          "name": "owner",
          "type": "address"
        },
        {
          "indexed": true,
          "internalType": "address",
          "name": "approved",
          "type": "address"
        },
        {
          "indexed": true,
          "internalType": "uint256",
          "name": "tokenId",
          "type": "uint256"
        }
      ],
      "name": "Approval",
      "type": "event"
    },
    {
      "anonymous": false,
      "inputs": [
        {
          "indexed": true,
          "internalType": "address",
          "name": "owner",
          "type": "address"
        },
        {
          "indexed": true,
          "internalType": "address",
          "name": "operator",
          "type": "address"
        },
        {
          "indexed": false,
          "internalType": "bool",
          "name": "approved",
          "type": "bool"
        }
      ],
      "name": "ApprovalForAll",
      "type": "event"
    },
    {
      "anonymous": false,
      "inputs": [
        {
          "indexed": true,
          "internalType": "address",
          "name": "previousOwner",
          "type": "address"
        },
        {
          "indexed": true,
          "internalType": "address",
          "name": "newOwner",
          "type": "address"
        }
      ],
      "name": "OwnershipTransferred",
      "type": "event"
    },
    {
      "anonymous": false,
      "inputs": [
        {
          "indexed": true,
          "internalType": "address",
          "name": "from",
          "type": "address"
        },
        {
          "indexed": true,
          "internalType": "address",
          "name": "to",
          "type": "address"
        },
        {
          "indexed": true,
          "internalType": "uint256",
          "name": "tokenId",
          "type": "uint256"
        }
      ],
      "name": "Transfer",
      "type": "event"
    },
    {
      "inputs": [
        {
          "internalType": "uint256",
          "name": "tokenId",
          "type": "uint256"
        },
        {
          "internalType": "address",
          "name": "chosenBuyer",
          "type": "address"
        }
      ],
      "name": "NFTOwnerStartEscrow",
      "outputs": [],
      "stateMutability": "payable",
      "type": "function"
    },
    {
      "inputs": [],
      "name": "_tokenIdCounter",
      "outputs": [
        {
          "internalType": "uint256",
          "name": "_value",
          "type": "uint256"
        }
      ],
      "stateMutability": "view",
      "type": "function"
    },
    {
      "inputs": [
        {
          "internalType": "address",
          "name": "to",
          "type": "address"
        },
        {
          "internalType": "uint256",
          "name": "tokenId",
          "type": "uint256"
        }
      ],
      "name": "approve",
      "outputs": [],
      "stateMutability": "nonpayable",
      "type": "function"
    },
    {
      "inputs": [
        {
          "internalType": "address",
          "name": "owner",
          "type": "address"
        }
      ],
      "name": "balanceOf",
      "outputs": [
        {
          "internalType": "uint256",
          "name": "",
          "type": "uint256"
        }
      ],
      "stateMutability": "view",
      "type": "function"
    },
    {
      "inputs": [
        {
          "internalType": "address",
          "name": "",
          "type": "address"
        }
      ],
      "name": "buyerAddressToBuyerPayableAddress",
      "outputs": [
        {
          "internalType": "address payable",
          "name": "",
          "type": "address"
        }
      ],
      "stateMutability": "view",
      "type": "function"
    },
    {
      "inputs": [
        {
          "internalType": "address",
          "name": "",
          "type": "address"
        }
      ],
      "name": "buyerAddressToDownPayment",
      "outputs": [
        {
          "internalType": "uint256",
          "name": "",
          "type": "uint256"
        }
      ],
      "stateMutability": "view",
      "type": "function"
    },
    {
      "inputs": [
        {
          "internalType": "uint256",
          "name": "tokenId",
          "type": "uint256"
        }
      ],
      "name": "buyerPayRentAndDeposit",
      "outputs": [],
      "stateMutability": "payable",
      "type": "function"
    },
    {
      "inputs": [
        {
          "internalType": "uint256",
          "name": "tokenId",
          "type": "uint256"
        }
      ],
      "name": "completePaymentAndEsrow",
      "outputs": [],
      "stateMutability": "payable",
      "type": "function"
    },
    {
      "inputs": [
        {
          "internalType": "uint256",
          "name": "tokenId",
          "type": "uint256"
        },
        {
          "internalType": "uint256",
          "name": "_propertyPrice",
          "type": "uint256"
        },
        {
          "internalType": "uint256",
          "name": "_downPayment",
          "type": "uint256"
        }
      ],
      "name": "createPropertyListing",
      "outputs": [],
      "stateMutability": "nonpayable",
      "type": "function"
    },
    {
      "inputs": [
        {
          "internalType": "uint256",
          "name": "",
          "type": "uint256"
        }
      ],
      "name": "depositAmount",
      "outputs": [
        {
          "internalType": "uint256",
          "name": "",
          "type": "uint256"
        }
      ],
      "stateMutability": "view",
      "type": "function"
    },
    {
      "inputs": [
        {
          "internalType": "uint256",
          "name": "",
          "type": "uint256"
        }
      ],
      "name": "downPayment",
      "outputs": [
        {
          "internalType": "uint256",
          "name": "",
          "type": "uint256"
        }
      ],
      "stateMutability": "view",
      "type": "function"
    },
    {
      "inputs": [
        {
          "internalType": "uint256",
          "name": "tokenId",
          "type": "uint256"
        }
      ],
      "name": "getApproved",
      "outputs": [
        {
          "internalType": "address",
          "name": "",
          "type": "address"
        }
      ],
      "stateMutability": "view",
      "type": "function"
    },
    {
      "inputs": [],
      "name": "getBalance",
      "outputs": [
        {
          "internalType": "uint256",
          "name": "",
          "type": "uint256"
        }
      ],
      "stateMutability": "view",
      "type": "function"
    },
    {
      "inputs": [],
      "name": "getCurrentTokenIdCounter",
      "outputs": [
        {
          "internalType": "uint256",
          "name": "",
          "type": "uint256"
        }
      ],
      "stateMutability": "view",
      "type": "function"
    },
    {
      "inputs": [
        {
          "internalType": "address",
          "name": "owner",
          "type": "address"
        },
        {
          "internalType": "address",
          "name": "operator",
          "type": "address"
        }
      ],
      "name": "isApprovedForAll",
      "outputs": [
        {
          "internalType": "bool",
          "name": "",
          "type": "bool"
        }
      ],
      "stateMutability": "view",
      "type": "function"
    },
    {
      "inputs": [
        {
          "internalType": "string",
          "name": "uri",
          "type": "string"
        }
      ],
      "name": "isContentOwned",
      "outputs": [
        {
          "internalType": "bool",
          "name": "",
          "type": "bool"
        }
      ],
      "stateMutability": "view",
      "type": "function"
    },
    {
      "inputs": [
        {
          "internalType": "uint256",
          "name": "tokenId",
          "type": "uint256"
        },
        {
          "internalType": "uint256",
          "name": "_depositAmount",
          "type": "uint256"
        },
        {
          "internalType": "uint256",
          "name": "_monthlyRentAmount",
          "type": "uint256"
        }
      ],
      "name": "listPropertyForRent",
      "outputs": [],
      "stateMutability": "nonpayable",
      "type": "function"
    },
    {
      "inputs": [
        {
          "internalType": "uint256",
          "name": "tokenId",
          "type": "uint256"
        },
        {
          "internalType": "address payable",
          "name": "userPayableAddress",
          "type": "address"
        }
      ],
      "name": "makeDownPayment",
      "outputs": [],
      "stateMutability": "payable",
      "type": "function"
    },
    {
      "inputs": [
        {
          "internalType": "address",
          "name": "recipient",
          "type": "address"
        },
        {
          "internalType": "string",
          "name": "ipfsTitleDeedURI",
          "type": "string"
        },
        {
          "internalType": "string",
          "name": "propertyId",
          "type": "string"
        }
      ],
      "name": "mintNFT",
      "outputs": [
        {
          "internalType": "uint256",
          "name": "",
          "type": "uint256"
        }
      ],
      "stateMutability": "nonpayable",
      "type": "function"
    },
    {
      "inputs": [
        {
          "internalType": "uint256",
          "name": "",
          "type": "uint256"
        }
      ],
      "name": "monthlyRentAmount",
      "outputs": [
        {
          "internalType": "uint256",
          "name": "",
          "type": "uint256"
        }
      ],
      "stateMutability": "view",
      "type": "function"
    },
    {
      "inputs": [],
      "name": "name",
      "outputs": [
        {
          "internalType": "string",
          "name": "",
          "type": "string"
        }
      ],
      "stateMutability": "view",
      "type": "function"
    },
    {
      "inputs": [],
      "name": "owner",
      "outputs": [
        {
          "internalType": "address",
          "name": "",
          "type": "address"
        }
      ],
      "stateMutability": "view",
      "type": "function"
    },
    {
      "inputs": [
        {
          "internalType": "uint256",
          "name": "tokenId",
          "type": "uint256"
        }
      ],
      "name": "ownerOf",
      "outputs": [
        {
          "internalType": "address",
          "name": "",
          "type": "address"
        }
      ],
      "stateMutability": "view",
      "type": "function"
    },
    {
      "inputs": [
        {
          "internalType": "uint256",
          "name": "tokenId",
          "type": "uint256"
        }
      ],
      "name": "payRent",
      "outputs": [],
      "stateMutability": "payable",
      "type": "function"
    },
    {
      "inputs": [
        {
          "internalType": "uint256",
          "name": "",
          "type": "uint256"
        }
      ],
      "name": "propertyPrice",
      "outputs": [
        {
          "internalType": "uint256",
          "name": "",
          "type": "uint256"
        }
      ],
      "stateMutability": "view",
      "type": "function"
    },
    {
      "inputs": [],
      "name": "renounceOwnership",
      "outputs": [],
      "stateMutability": "nonpayable",
      "type": "function"
    },
    {
      "inputs": [
        {
          "internalType": "address",
          "name": "",
          "type": "address"
        }
      ],
      "name": "renterAddressToMonthsPaid",
      "outputs": [
        {
          "internalType": "uint256",
          "name": "",
          "type": "uint256"
        }
      ],
      "stateMutability": "view",
      "type": "function"
    },
    {
      "inputs": [
        {
          "internalType": "address",
          "name": "from",
          "type": "address"
        },
        {
          "internalType": "address",
          "name": "to",
          "type": "address"
        },
        {
          "internalType": "uint256",
          "name": "tokenId",
          "type": "uint256"
        }
      ],
      "name": "safeTransferFrom",
      "outputs": [],
      "stateMutability": "nonpayable",
      "type": "function"
    },
    {
      "inputs": [
        {
          "internalType": "address",
          "name": "from",
          "type": "address"
        },
        {
          "internalType": "address",
          "name": "to",
          "type": "address"
        },
        {
          "internalType": "uint256",
          "name": "tokenId",
          "type": "uint256"
        },
        {
          "internalType": "bytes",
          "name": "data",
          "type": "bytes"
        }
      ],
      "name": "safeTransferFrom",
      "outputs": [],
      "stateMutability": "nonpayable",
      "type": "function"
    },
    {
      "inputs": [
        {
          "internalType": "address",
          "name": "operator",
          "type": "address"
        },
        {
          "internalType": "bool",
          "name": "approved",
          "type": "bool"
        }
      ],
      "name": "setApprovalForAll",
      "outputs": [],
      "stateMutability": "nonpayable",
      "type": "function"
    },
    {
      "inputs": [
        {
          "internalType": "bytes4",
          "name": "interfaceId",
          "type": "bytes4"
        }
      ],
      "name": "supportsInterface",
      "outputs": [
        {
          "internalType": "bool",
          "name": "",
          "type": "bool"
        }
      ],
      "stateMutability": "view",
      "type": "function"
    },
    {
      "inputs": [],
      "name": "symbol",
      "outputs": [
        {
          "internalType": "string",
          "name": "",
          "type": "string"
        }
      ],
      "stateMutability": "view",
      "type": "function"
    },
    {
      "inputs": [
        {
          "internalType": "uint256",
          "name": "",
          "type": "uint256"
        },
        {
          "internalType": "uint256",
          "name": "",
          "type": "uint256"
        }
      ],
      "name": "tokenIdToBuyerAddress",
      "outputs": [
        {
          "internalType": "address",
          "name": "",
          "type": "address"
        }
      ],
      "stateMutability": "view",
      "type": "function"
    },
    {
      "inputs": [
        {
          "internalType": "uint256",
          "name": "",
          "type": "uint256"
        }
      ],
      "name": "tokenIdToSellerPayableAddress",
      "outputs": [
        {
          "internalType": "address payable",
          "name": "",
          "type": "address"
        }
      ],
      "stateMutability": "view",
      "type": "function"
    },
    {
      "inputs": [
        {
          "internalType": "uint256",
          "name": "tokenId",
          "type": "uint256"
        }
      ],
      "name": "tokenURI",
      "outputs": [
        {
          "internalType": "string",
          "name": "",
          "type": "string"
        }
      ],
      "stateMutability": "view",
      "type": "function"
    },
    {
      "inputs": [
        {
          "internalType": "address",
          "name": "from",
          "type": "address"
        },
        {
          "internalType": "address",
          "name": "to",
          "type": "address"
        },
        {
          "internalType": "uint256",
          "name": "tokenId",
          "type": "uint256"
        }
      ],
      "name": "tranfer",
      "outputs": [],
      "stateMutability": "nonpayable",
      "type": "function"
    },
    {
      "inputs": [
        {
          "internalType": "address",
          "name": "from",
          "type": "address"
        },
        {
          "internalType": "address",
          "name": "to",
          "type": "address"
        },
        {
          "internalType": "uint256",
          "name": "tokenId",
          "type": "uint256"
        }
      ],
      "name": "transferFrom",
      "outputs": [],
      "stateMutability": "nonpayable",
      "type": "function"
    },
    {
      "inputs": [
        {
          "internalType": "address",
          "name": "newOwner",
          "type": "address"
        }
      ],
      "name": "transferOwnership",
      "outputs": [],
      "stateMutability": "nonpayable",
      "type": "function"
    }
  ],
  "bytecode": "0x60806040523480156200001157600080fd5b506040518060400160405280600a81526020017f506f6c79427269636b73000000000000000000000000000000000000000000008152506040518060400160405280600481526020017f504252530000000000000000000000000000000000000000000000000000000081525081600090816200008f919062000412565b508060019081620000a1919062000412565b505050620000c4620000b8620000ca60201b60201c565b620000d260201b60201c565b620004f9565b600033905090565b6000600760009054906101000a900473ffffffffffffffffffffffffffffffffffffffff16905081600760006101000a81548173ffffffffffffffffffffffffffffffffffffffff021916908373ffffffffffffffffffffffffffffffffffffffff1602179055508173ffffffffffffffffffffffffffffffffffffffff168173ffffffffffffffffffffffffffffffffffffffff167f8be0079c531659141344cd1fd0a4f28419497f9722a3daafe3b4186f6b6457e060405160405180910390a35050565b600081519050919050565b7f4e487b7100000000000000000000000000000000000000000000000000000000600052604160045260246000fd5b7f4e487b7100000000000000000000000000000000000000000000000000000000600052602260045260246000fd5b600060028204905060018216806200021a57607f821691505b60208210810362000230576200022f620001d2565b5b50919050565b60008190508160005260206000209050919050565b60006020601f8301049050919050565b600082821b905092915050565b6000600883026200029a7fffffffffffffffffffffffffffffffffffffffffffffffffffffffffffffffff826200025b565b620002a686836200025b565b95508019841693508086168417925050509392505050565b6000819050919050565b6000819050919050565b6000620002f3620002ed620002e784620002be565b620002c8565b620002be565b9050919050565b6000819050919050565b6200030f83620002d2565b620003276200031e82620002fa565b84845462000268565b825550505050565b600090565b6200033e6200032f565b6200034b81848462000304565b505050565b5b8181101562000373576200036760008262000334565b60018101905062000351565b5050565b601f821115620003c2576200038c8162000236565b62000397846200024b565b81016020851015620003a7578190505b620003bf620003b6856200024b565b83018262000350565b50505b505050565b600082821c905092915050565b6000620003e760001984600802620003c7565b1980831691505092915050565b6000620004028383620003d4565b9150826002028217905092915050565b6200041d8262000198565b67ffffffffffffffff811115620004395762000438620001a3565b5b62000445825462000201565b6200045282828562000377565b600060209050601f8311600181146200048a576000841562000475578287015190505b620004818582620003f4565b865550620004f1565b601f1984166200049a8662000236565b60005b82811015620004c4578489015182556001820191506020850194506020810190506200049d565b86831015620004e45784890151620004e0601f891682620003d4565b8355505b6001600288020188555050505b505050505050565b61488d80620005096000396000f3fe6080604052600436106102255760003560e01c806384c4bd4b11610123578063a983fa49116100ab578063c87b56dd1161006f578063c87b56dd14610851578063d9e8843f1461088e578063e985e9c5146108aa578063f2fde38b146108e7578063f60c91b01461091057610225565b8063a983fa491461078a578063b364cf7d146107a6578063b88d4fde146107c2578063bd1157a9146107eb578063c12e1a071461082857610225565b8063914e58f5116100f2578063914e58f51461067f57806395d89b41146106bc5780639f1cabc6146106e7578063a22cb46514610724578063a3ee38ae1461074d57610225565b806384c4bd4b146105c157806387f8ab26146105ec5780638c6743e0146106295780638da5cb5b1461065457610225565b806326530f39116101b15780636352211e116101755780636352211e146104ca57806370a0823114610507578063715018a614610544578063747f9b4f1461055b57806377c5ab0e1461059857610225565b806326530f39146103e25780633a28551e1461040b578063401d765b1461044857806342842e0e146104645780634412e4391461048d57610225565b806309f5c475116101f857806309f5c475146102f857806312065fe0146103145780631358d4491461033f57806314050c5a1461037c57806323b872dd146103b957610225565b806301ffc9a71461022a57806306fdde0314610267578063081812fc14610292578063095ea7b3146102cf575b600080fd5b34801561023657600080fd5b50610251600480360381019061024c9190612f28565b61094d565b60405161025e9190612f70565b60405180910390f35b34801561027357600080fd5b5061027c610a2f565b604051610289919061301b565b60405180910390f35b34801561029e57600080fd5b506102b960048036038101906102b49190613073565b610ac1565b6040516102c691906130e1565b60405180910390f35b3480156102db57600080fd5b506102f660048036038101906102f19190613128565b610b07565b005b610312600480360381019061030d9190613073565b610c1e565b005b34801561032057600080fd5b50610329610d39565b6040516103369190613177565b60405180910390f35b34801561034b57600080fd5b5061036660048036038101906103619190613073565b610d41565b6040516103739190613177565b60405180910390f35b34801561038857600080fd5b506103a3600480360381019061039e9190613073565b610d59565b6040516103b09190613177565b60405180910390f35b3480156103c557600080fd5b506103e060048036038101906103db9190613192565b610d71565b005b3480156103ee57600080fd5b5061040960048036038101906104049190613192565b610dd1565b005b34801561041757600080fd5b50610432600480360381019061042d91906131e5565b610de1565b60405161043f9190613233565b60405180910390f35b610462600480360381019061045d9190613073565b610e14565b005b34801561047057600080fd5b5061048b60048036038101906104869190613192565b610ee2565b005b34801561049957600080fd5b506104b460048036038101906104af91906131e5565b611019565b6040516104c19190613177565b60405180910390f35b3480156104d657600080fd5b506104f160048036038101906104ec9190613073565b611031565b6040516104fe91906130e1565b60405180910390f35b34801561051357600080fd5b5061052e600480360381019061052991906131e5565b6110b7565b60405161053b9190613177565b60405180910390f35b34801561055057600080fd5b5061055961116e565b005b34801561056757600080fd5b50610582600480360381019061057d9190613073565b611182565b60405161058f9190613177565b60405180910390f35b3480156105a457600080fd5b506105bf60048036038101906105ba919061324e565b61119a565b005b3480156105cd57600080fd5b506105d6611218565b6040516105e39190613177565b60405180910390f35b3480156105f857600080fd5b50610613600480360381019061060e9190613073565b611224565b6040516106209190613177565b60405180910390f35b34801561063557600080fd5b5061063e61123c565b60405161064b9190613177565b60405180910390f35b34801561066057600080fd5b50610669611252565b60405161067691906130e1565b60405180910390f35b34801561068b57600080fd5b506106a660048036038101906106a19190613073565b61127c565b6040516106b39190613233565b60405180910390f35b3480156106c857600080fd5b506106d16112af565b6040516106de919061301b565b60405180910390f35b3480156106f357600080fd5b5061070e600480360381019061070991906133d6565b611341565b60405161071b9190612f70565b60405180910390f35b34801561073057600080fd5b5061074b6004803603810190610746919061344b565b61137c565b005b34801561075957600080fd5b50610774600480360381019061076f919061348b565b611392565b6040516107819190613177565b60405180910390f35b6107a4600480360381019061079f9190613542565b611498565b005b6107c060048036038101906107bb9190613582565b61160d565b005b3480156107ce57600080fd5b506107e960048036038101906107e49190613663565b61184f565b005b3480156107f757600080fd5b50610812600480360381019061080d91906136e6565b6118b1565b60405161081f91906130e1565b60405180910390f35b34801561083457600080fd5b5061084f600480360381019061084a919061324e565b6118ff565b005b34801561085d57600080fd5b5061087860048036038101906108739190613073565b6119db565b604051610885919061301b565b60405180910390f35b6108a860048036038101906108a39190613073565b6119ed565b005b3480156108b657600080fd5b506108d160048036038101906108cc9190613726565b611a9d565b6040516108de9190612f70565b60405180910390f35b3480156108f357600080fd5b5061090e600480360381019061090991906131e5565b611b31565b005b34801561091c57600080fd5b50610937600480360381019061093291906131e5565b611bb4565b6040516109449190613177565b60405180910390f35b60007f80ac58cd000000000000000000000000000000000000000000000000000000007bffffffffffffffffffffffffffffffffffffffffffffffffffffffff1916827bffffffffffffffffffffffffffffffffffffffffffffffffffffffff19161480610a1857507f5b5e139f000000000000000000000000000000000000000000000000000000007bffffffffffffffffffffffffffffffffffffffffffffffffffffffff1916827bffffffffffffffffffffffffffffffffffffffffffffffffffffffff1916145b80610a285750610a2782611bcc565b5b9050919050565b606060008054610a3e90613795565b80601f0160208091040260200160405190810160405280929190818152602001828054610a6a90613795565b8015610ab75780601f10610a8c57610100808354040283529160200191610ab7565b820191906000526020600020905b815481529060010190602001808311610a9a57829003601f168201915b5050505050905090565b6000610acc82611c36565b6004600083815260200190815260200160002060009054906101000a900473ffffffffffffffffffffffffffffffffffffffff169050919050565b6000610b1282611031565b90508073ffffffffffffffffffffffffffffffffffffffff168373ffffffffffffffffffffffffffffffffffffffff1603610b82576040517f08c379a0000000000000000000000000000000000000000000000000000000008152600401610b7990613838565b60405180910390fd5b8073ffffffffffffffffffffffffffffffffffffffff16610ba1611c81565b73ffffffffffffffffffffffffffffffffffffffff161480610bd05750610bcf81610bca611c81565b611a9d565b5b610c0f576040517f08c379a0000000000000000000000000000000000000000000000000000000008152600401610c06906138ca565b60405180910390fd5b610c198383611c89565b505050565b600c600082815260200190815260200160002054600b600083815260200190815260200160002054610c509190613919565b341015610c92576040517f08c379a0000000000000000000000000000000000000000000000000000000008152600401610c8990613999565b60405180910390fd5b610c9d303383610dd1565b60006010600083815260200190815260200160002060009054906101000a900473ffffffffffffffffffffffffffffffffffffffff1690506000600b60008481526020019081526020016000205490508173ffffffffffffffffffffffffffffffffffffffff166108fc829081150290604051600060405180830381858888f19350505050158015610d33573d6000803e3d6000fd5b50505050565b600047905090565b60126020528060005260406000206000915090505481565b600b6020528060005260406000206000915090505481565b610d82610d7c611c81565b82611d42565b610dc1576040517f08c379a0000000000000000000000000000000000000000000000000000000008152600401610db890613a2b565b60405180910390fd5b610dcc838383611dd7565b505050565b610ddc838383610ee2565b505050565b600f6020528060005260406000206000915054906101000a900473ffffffffffffffffffffffffffffffffffffffff1681565b60126000828152602001908152602001600020546011600083815260200190815260200160002054610e469190613a4b565b341015610e88576040517f08c379a0000000000000000000000000000000000000000000000000000000008152600401610e7f90613acb565b60405180910390fd5b6001601360003373ffffffffffffffffffffffffffffffffffffffff1673ffffffffffffffffffffffffffffffffffffffff1681526020019081526020016000206000828254610ed89190613a4b565b9250508190555050565b600073ffffffffffffffffffffffffffffffffffffffff168373ffffffffffffffffffffffffffffffffffffffff1603610f51576040517f08c379a0000000000000000000000000000000000000000000000000000000008152600401610f4890613b37565b60405180910390fd5b600073ffffffffffffffffffffffffffffffffffffffff168273ffffffffffffffffffffffffffffffffffffffff1603610fc0576040517f08c379a0000000000000000000000000000000000000000000000000000000008152600401610fb790613ba3565b60405180910390fd5b610fca8382611d42565b611009576040517f08c379a000000000000000000000000000000000000000000000000000000000815260040161100090613c0f565b60405180910390fd5b611014838383611dd7565b505050565b600e6020528060005260406000206000915090505481565b60008061103d836120d0565b9050600073ffffffffffffffffffffffffffffffffffffffff168173ffffffffffffffffffffffffffffffffffffffff16036110ae576040517f08c379a00000000000000000000000000000000000000000000000000000000081526004016110a590613c7b565b60405180910390fd5b80915050919050565b60008073ffffffffffffffffffffffffffffffffffffffff168273ffffffffffffffffffffffffffffffffffffffff1603611127576040517f08c379a000000000000000000000000000000000000000000000000000000000815260040161111e90613d0d565b60405180910390fd5b600360008373ffffffffffffffffffffffffffffffffffffffff1673ffffffffffffffffffffffffffffffffffffffff168152602001908152602001600020549050919050565b61117661210d565b611180600061218b565b565b600c6020528060005260406000206000915090505481565b6111a43384611d42565b6111e3576040517f08c379a00000000000000000000000000000000000000000000000000000000081526004016111da90613d9f565b60405180910390fd5b816011600085815260200190815260200160002081905550806012600085815260200190815260200160002081905550505050565b60088060000154905081565b60116020528060005260406000206000915090505481565b6000806112496008612251565b90508091505090565b6000600760009054906101000a900473ffffffffffffffffffffffffffffffffffffffff16905090565b60106020528060005260406000206000915054906101000a900473ffffffffffffffffffffffffffffffffffffffff1681565b6060600180546112be90613795565b80601f01602080910402602001604051908101604052809291908181526020018280546112ea90613795565b80156113375780601f1061130c57610100808354040283529160200191611337565b820191906000526020600020905b81548152906001019060200180831161131a57829003601f168201915b5050505050905090565b600060016009836040516113559190613dfb565b908152602001604051809103902060009054906101000a900460ff1660ff16149050919050565b61138e611387611c81565b838361225f565b5050565b600061139c61210d565b6113a583611341565b156113e5576040517f08c379a00000000000000000000000000000000000000000000000000000000081526004016113dc90613e5e565b60405180910390fd5b60006113ef61123c565b90506113fb60086123cb565b600160098560405161140d9190613dfb565b908152602001604051809103902060006101000a81548160ff021916908360ff160217905550604051806020016040528084815250600a856040516114529190613dfb565b908152602001604051809103902090600161146e929190612d90565b5061147985826123e1565b61148381856125fe565b61148d3382611c89565b809150509392505050565b600c6000838152602001908152602001600020543410156114ee576040517f08c379a00000000000000000000000000000000000000000000000000000000081526004016114e590613acb565b60405180910390fd5b80600f60003373ffffffffffffffffffffffffffffffffffffffff1673ffffffffffffffffffffffffffffffffffffffff16815260200190815260200160002060006101000a81548173ffffffffffffffffffffffffffffffffffffffff021916908373ffffffffffffffffffffffffffffffffffffffff1602179055506000600d6000848152602001908152602001600020905080829080600181540180825580915050600190039060005260206000200160009091909190916101000a81548173ffffffffffffffffffffffffffffffffffffffff021916908373ffffffffffffffffffffffffffffffffffffffff16021790555080600d6000858152602001908152602001600020908054611607929190612de9565b50505050565b6116173383611d42565b611656576040517f08c379a000000000000000000000000000000000000000000000000000000000815260040161164d90613ef0565b60405180910390fd5b611661333084610dd1565b6000600d60008481526020019081526020016000208054806020026020016040519081016040528092919081815260200182805480156116f657602002820191906000526020600020905b8160009054906101000a900473ffffffffffffffffffffffffffffffffffffffff1673ffffffffffffffffffffffffffffffffffffffff16815260200190600101908083116116ac575b5050505050905060005b8151811015611849578273ffffffffffffffffffffffffffffffffffffffff1682828151811061173357611732613f10565b5b602002602001015173ffffffffffffffffffffffffffffffffffffffff1614611836576000600f600084848151811061176f5761176e613f10565b5b602002602001015173ffffffffffffffffffffffffffffffffffffffff1673ffffffffffffffffffffffffffffffffffffffff16815260200190815260200160002060009054906101000a900473ffffffffffffffffffffffffffffffffffffffff1690506000600c60008781526020019081526020016000205490508173ffffffffffffffffffffffffffffffffffffffff166108fc829081150290604051600060405180830381858888f19350505050158015611832573d6000803e3d6000fd5b5050505b808061184190613f3f565b915050611700565b50505050565b61186061185a611c81565b83611d42565b61189f576040517f08c379a000000000000000000000000000000000000000000000000000000000815260040161189690613a2b565b60405180910390fd5b6118ab8484848461266b565b50505050565b600d60205281600052604060002081815481106118cd57600080fd5b906000526020600020016000915091509054906101000a900473ffffffffffffffffffffffffffffffffffffffff1681565b6119093384611d42565b611948576040517f08c379a000000000000000000000000000000000000000000000000000000000815260040161193f90613ff9565b60405180910390fd5b81600b60008581526020019081526020016000208190555080600c60008581526020019081526020016000208190555060003390506000819050806010600087815260200190815260200160002060006101000a81548173ffffffffffffffffffffffffffffffffffffffff021916908373ffffffffffffffffffffffffffffffffffffffff1602179055505050505050565b60606119e6826126c7565b9050919050565b6012600082815260200190815260200160002054341015611a43576040517f08c379a0000000000000000000000000000000000000000000000000000000008152600401611a3a90613999565b60405180910390fd5b6001601360003373ffffffffffffffffffffffffffffffffffffffff1673ffffffffffffffffffffffffffffffffffffffff1681526020019081526020016000206000828254611a939190613a4b565b9250508190555050565b6000600560008473ffffffffffffffffffffffffffffffffffffffff1673ffffffffffffffffffffffffffffffffffffffff16815260200190815260200160002060008373ffffffffffffffffffffffffffffffffffffffff1673ffffffffffffffffffffffffffffffffffffffff16815260200190815260200160002060009054906101000a900460ff16905092915050565b611b3961210d565b600073ffffffffffffffffffffffffffffffffffffffff168173ffffffffffffffffffffffffffffffffffffffff1603611ba8576040517f08c379a0000000000000000000000000000000000000000000000000000000008152600401611b9f9061408b565b60405180910390fd5b611bb18161218b565b50565b60136020528060005260406000206000915090505481565b60007f01ffc9a7000000000000000000000000000000000000000000000000000000007bffffffffffffffffffffffffffffffffffffffffffffffffffffffff1916827bffffffffffffffffffffffffffffffffffffffffffffffffffffffff1916149050919050565b611c3f816127d9565b611c7e576040517f08c379a0000000000000000000000000000000000000000000000000000000008152600401611c7590613c7b565b60405180910390fd5b50565b600033905090565b816004600083815260200190815260200160002060006101000a81548173ffffffffffffffffffffffffffffffffffffffff021916908373ffffffffffffffffffffffffffffffffffffffff160217905550808273ffffffffffffffffffffffffffffffffffffffff16611cfc83611031565b73ffffffffffffffffffffffffffffffffffffffff167f8c5be1e5ebec7d5bd14f71427d1e84f3dd0314c0f7b2291e5b200ac8c7c3b92560405160405180910390a45050565b600080611d4e83611031565b90508073ffffffffffffffffffffffffffffffffffffffff168473ffffffffffffffffffffffffffffffffffffffff161480611d905750611d8f8185611a9d565b5b80611dce57508373ffffffffffffffffffffffffffffffffffffffff16611db684610ac1565b73ffffffffffffffffffffffffffffffffffffffff16145b91505092915050565b8273ffffffffffffffffffffffffffffffffffffffff16611df782611031565b73ffffffffffffffffffffffffffffffffffffffff1614611e4d576040517f08c379a0000000000000000000000000000000000000000000000000000000008152600401611e449061411d565b60405180910390fd5b600073ffffffffffffffffffffffffffffffffffffffff168273ffffffffffffffffffffffffffffffffffffffff1603611ebc576040517f08c379a0000000000000000000000000000000000000000000000000000000008152600401611eb3906141af565b60405180910390fd5b611ec9838383600161281a565b8273ffffffffffffffffffffffffffffffffffffffff16611ee982611031565b73ffffffffffffffffffffffffffffffffffffffff1614611f3f576040517f08c379a0000000000000000000000000000000000000000000000000000000008152600401611f369061411d565b60405180910390fd5b6004600082815260200190815260200160002060006101000a81549073ffffffffffffffffffffffffffffffffffffffff02191690556001600360008573ffffffffffffffffffffffffffffffffffffffff1673ffffffffffffffffffffffffffffffffffffffff168152602001908152602001600020600082825403925050819055506001600360008473ffffffffffffffffffffffffffffffffffffffff1673ffffffffffffffffffffffffffffffffffffffff16815260200190815260200160002060008282540192505081905550816002600083815260200190815260200160002060006101000a81548173ffffffffffffffffffffffffffffffffffffffff021916908373ffffffffffffffffffffffffffffffffffffffff160217905550808273ffffffffffffffffffffffffffffffffffffffff168473ffffffffffffffffffffffffffffffffffffffff167fddf252ad1be2c89b69c2b068fc378daa952ba7f163c4a11628f55a4df523b3ef60405160405180910390a46120cb8383836001612940565b505050565b60006002600083815260200190815260200160002060009054906101000a900473ffffffffffffffffffffffffffffffffffffffff169050919050565b612115611c81565b73ffffffffffffffffffffffffffffffffffffffff16612133611252565b73ffffffffffffffffffffffffffffffffffffffff1614612189576040517f08c379a00000000000000000000000000000000000000000000000000000000081526004016121809061421b565b60405180910390fd5b565b6000600760009054906101000a900473ffffffffffffffffffffffffffffffffffffffff16905081600760006101000a81548173ffffffffffffffffffffffffffffffffffffffff021916908373ffffffffffffffffffffffffffffffffffffffff1602179055508173ffffffffffffffffffffffffffffffffffffffff168173ffffffffffffffffffffffffffffffffffffffff167f8be0079c531659141344cd1fd0a4f28419497f9722a3daafe3b4186f6b6457e060405160405180910390a35050565b600081600001549050919050565b8173ffffffffffffffffffffffffffffffffffffffff168373ffffffffffffffffffffffffffffffffffffffff16036122cd576040517f08c379a00000000000000000000000000000000000000000000000000000000081526004016122c490614287565b60405180910390fd5b80600560008573ffffffffffffffffffffffffffffffffffffffff1673ffffffffffffffffffffffffffffffffffffffff16815260200190815260200160002060008473ffffffffffffffffffffffffffffffffffffffff1673ffffffffffffffffffffffffffffffffffffffff16815260200190815260200160002060006101000a81548160ff0219169083151502179055508173ffffffffffffffffffffffffffffffffffffffff168373ffffffffffffffffffffffffffffffffffffffff167f17307eab39ab6107e8899845ad3d59bd9653f200f220920489ca2b5937696c31836040516123be9190612f70565b60405180910390a3505050565b6001816000016000828254019250508190555050565b600073ffffffffffffffffffffffffffffffffffffffff168273ffffffffffffffffffffffffffffffffffffffff1603612450576040517f08c379a0000000000000000000000000000000000000000000000000000000008152600401612447906142f3565b60405180910390fd5b612459816127d9565b15612499576040517f08c379a00000000000000000000000000000000000000000000000000000000081526004016124909061435f565b60405180910390fd5b6124a760008383600161281a565b6124b0816127d9565b156124f0576040517f08c379a00000000000000000000000000000000000000000000000000000000081526004016124e79061435f565b60405180910390fd5b6001600360008473ffffffffffffffffffffffffffffffffffffffff1673ffffffffffffffffffffffffffffffffffffffff16815260200190815260200160002060008282540192505081905550816002600083815260200190815260200160002060006101000a81548173ffffffffffffffffffffffffffffffffffffffff021916908373ffffffffffffffffffffffffffffffffffffffff160217905550808273ffffffffffffffffffffffffffffffffffffffff16600073ffffffffffffffffffffffffffffffffffffffff167fddf252ad1be2c89b69c2b068fc378daa952ba7f163c4a11628f55a4df523b3ef60405160405180910390a46125fa600083836001612940565b5050565b612607826127d9565b612646576040517f08c379a000000000000000000000000000000000000000000000000000000000815260040161263d906143f1565b60405180910390fd5b8060066000848152602001908152602001600020908161266691906145bd565b505050565b612676848484611dd7565b61268284848484612946565b6126c1576040517f08c379a00000000000000000000000000000000000000000000000000000000081526004016126b890614701565b60405180910390fd5b50505050565b60606126d282611c36565b60006006600084815260200190815260200160002080546126f290613795565b80601f016020809104026020016040519081016040528092919081815260200182805461271e90613795565b801561276b5780601f106127405761010080835404028352916020019161276b565b820191906000526020600020905b81548152906001019060200180831161274e57829003601f168201915b50505050509050600061277c612acd565b905060008151036127915781925050506127d4565b6000825111156127c65780826040516020016127ae929190614721565b604051602081830303815290604052925050506127d4565b6127cf84612ae4565b925050505b919050565b60008073ffffffffffffffffffffffffffffffffffffffff166127fb836120d0565b73ffffffffffffffffffffffffffffffffffffffff1614159050919050565b600181111561293a57600073ffffffffffffffffffffffffffffffffffffffff168473ffffffffffffffffffffffffffffffffffffffff16146128ae5780600360008673ffffffffffffffffffffffffffffffffffffffff1673ffffffffffffffffffffffffffffffffffffffff16815260200190815260200160002060008282546128a69190613919565b925050819055505b600073ffffffffffffffffffffffffffffffffffffffff168373ffffffffffffffffffffffffffffffffffffffff16146129395780600360008573ffffffffffffffffffffffffffffffffffffffff1673ffffffffffffffffffffffffffffffffffffffff16815260200190815260200160002060008282546129319190613a4b565b925050819055505b5b50505050565b50505050565b60006129678473ffffffffffffffffffffffffffffffffffffffff16612b4c565b15612ac0578373ffffffffffffffffffffffffffffffffffffffff1663150b7a02612990611c81565b8786866040518563ffffffff1660e01b81526004016129b2949392919061479a565b6020604051808303816000875af19250505080156129ee57506040513d601f19601f820116820180604052508101906129eb91906147fb565b60015b612a70573d8060008114612a1e576040519150601f19603f3d011682016040523d82523d6000602084013e612a23565b606091505b506000815103612a68576040517f08c379a0000000000000000000000000000000000000000000000000000000008152600401612a5f90614701565b60405180910390fd5b805181602001fd5b63150b7a0260e01b7bffffffffffffffffffffffffffffffffffffffffffffffffffffffff1916817bffffffffffffffffffffffffffffffffffffffffffffffffffffffff191614915050612ac5565b600190505b949350505050565b606060405180602001604052806000815250905090565b6060612aef82611c36565b6000612af9612acd565b90506000815111612b195760405180602001604052806000815250612b44565b80612b2384612b6f565b604051602001612b34929190614721565b6040516020818303038152906040525b915050919050565b6000808273ffffffffffffffffffffffffffffffffffffffff163b119050919050565b606060006001612b7e84612c3d565b01905060008167ffffffffffffffff811115612b9d57612b9c6132ab565b5b6040519080825280601f01601f191660200182016040528015612bcf5781602001600182028036833780820191505090505b509050600082602001820190505b600115612c32578080600190039150507f3031323334353637383961626364656600000000000000000000000000000000600a86061a8153600a8581612c2657612c25614828565b5b04945060008503612bdd575b819350505050919050565b600080600090507a184f03e93ff9f4daa797ed6e38ed64bf6a1f0100000000000000008310612c9b577a184f03e93ff9f4daa797ed6e38ed64bf6a1f0100000000000000008381612c9157612c90614828565b5b0492506040810190505b6d04ee2d6d415b85acef81000000008310612cd8576d04ee2d6d415b85acef81000000008381612cce57612ccd614828565b5b0492506020810190505b662386f26fc100008310612d0757662386f26fc100008381612cfd57612cfc614828565b5b0492506010810190505b6305f5e1008310612d30576305f5e1008381612d2657612d25614828565b5b0492506008810190505b6127108310612d55576127108381612d4b57612d4a614828565b5b0492506004810190505b60648310612d785760648381612d6e57612d6d614828565b5b0492506002810190505b600a8310612d87576001810190505b80915050919050565b828054828255906000526020600020908101928215612dd8579160200282015b82811115612dd7578251829081612dc791906145bd565b5091602001919060010190612db0565b5b509050612de59190612e3b565b5090565b828054828255906000526020600020908101928215612e2a5760005260206000209182015b82811115612e29578254825591600101919060010190612e0e565b5b509050612e379190612e5f565b5090565b5b80821115612e5b5760008181612e529190612e7c565b50600101612e3c565b5090565b5b80821115612e78576000816000905550600101612e60565b5090565b508054612e8890613795565b6000825580601f10612e9a5750612eb9565b601f016020900490600052602060002090810190612eb89190612e5f565b5b50565b6000604051905090565b600080fd5b600080fd5b60007fffffffff0000000000000000000000000000000000000000000000000000000082169050919050565b612f0581612ed0565b8114612f1057600080fd5b50565b600081359050612f2281612efc565b92915050565b600060208284031215612f3e57612f3d612ec6565b5b6000612f4c84828501612f13565b91505092915050565b60008115159050919050565b612f6a81612f55565b82525050565b6000602082019050612f856000830184612f61565b92915050565b600081519050919050565b600082825260208201905092915050565b60005b83811015612fc5578082015181840152602081019050612faa565b60008484015250505050565b6000601f19601f8301169050919050565b6000612fed82612f8b565b612ff78185612f96565b9350613007818560208601612fa7565b61301081612fd1565b840191505092915050565b600060208201905081810360008301526130358184612fe2565b905092915050565b6000819050919050565b6130508161303d565b811461305b57600080fd5b50565b60008135905061306d81613047565b92915050565b60006020828403121561308957613088612ec6565b5b60006130978482850161305e565b91505092915050565b600073ffffffffffffffffffffffffffffffffffffffff82169050919050565b60006130cb826130a0565b9050919050565b6130db816130c0565b82525050565b60006020820190506130f660008301846130d2565b92915050565b613105816130c0565b811461311057600080fd5b50565b600081359050613122816130fc565b92915050565b6000806040838503121561313f5761313e612ec6565b5b600061314d85828601613113565b925050602061315e8582860161305e565b9150509250929050565b6131718161303d565b82525050565b600060208201905061318c6000830184613168565b92915050565b6000806000606084860312156131ab576131aa612ec6565b5b60006131b986828701613113565b93505060206131ca86828701613113565b92505060406131db8682870161305e565b9150509250925092565b6000602082840312156131fb576131fa612ec6565b5b600061320984828501613113565b91505092915050565b600061321d826130a0565b9050919050565b61322d81613212565b82525050565b60006020820190506132486000830184613224565b92915050565b60008060006060848603121561326757613266612ec6565b5b60006132758682870161305e565b93505060206132868682870161305e565b92505060406132978682870161305e565b9150509250925092565b600080fd5b600080fd5b7f4e487b7100000000000000000000000000000000000000000000000000000000600052604160045260246000fd5b6132e382612fd1565b810181811067ffffffffffffffff82111715613302576133016132ab565b5b80604052505050565b6000613315612ebc565b905061332182826132da565b919050565b600067ffffffffffffffff821115613341576133406132ab565b5b61334a82612fd1565b9050602081019050919050565b82818337600083830152505050565b600061337961337484613326565b61330b565b905082815260208101848484011115613395576133946132a6565b5b6133a0848285613357565b509392505050565b600082601f8301126133bd576133bc6132a1565b5b81356133cd848260208601613366565b91505092915050565b6000602082840312156133ec576133eb612ec6565b5b600082013567ffffffffffffffff81111561340a57613409612ecb565b5b613416848285016133a8565b91505092915050565b61342881612f55565b811461343357600080fd5b50565b6000813590506134458161341f565b92915050565b6000806040838503121561346257613461612ec6565b5b600061347085828601613113565b925050602061348185828601613436565b9150509250929050565b6000806000606084860312156134a4576134a3612ec6565b5b60006134b286828701613113565b935050602084013567ffffffffffffffff8111156134d3576134d2612ecb565b5b6134df868287016133a8565b925050604084013567ffffffffffffffff811115613500576134ff612ecb565b5b61350c868287016133a8565b9150509250925092565b61351f81613212565b811461352a57600080fd5b50565b60008135905061353c81613516565b92915050565b6000806040838503121561355957613558612ec6565b5b60006135678582860161305e565b92505060206135788582860161352d565b9150509250929050565b6000806040838503121561359957613598612ec6565b5b60006135a78582860161305e565b92505060206135b885828601613113565b9150509250929050565b600067ffffffffffffffff8211156135dd576135dc6132ab565b5b6135e682612fd1565b9050602081019050919050565b6000613606613601846135c2565b61330b565b905082815260208101848484011115613622576136216132a6565b5b61362d848285613357565b509392505050565b600082601f83011261364a576136496132a1565b5b813561365a8482602086016135f3565b91505092915050565b6000806000806080858703121561367d5761367c612ec6565b5b600061368b87828801613113565b945050602061369c87828801613113565b93505060406136ad8782880161305e565b925050606085013567ffffffffffffffff8111156136ce576136cd612ecb565b5b6136da87828801613635565b91505092959194509250565b600080604083850312156136fd576136fc612ec6565b5b600061370b8582860161305e565b925050602061371c8582860161305e565b9150509250929050565b6000806040838503121561373d5761373c612ec6565b5b600061374b85828601613113565b925050602061375c85828601613113565b9150509250929050565b7f4e487b7100000000000000000000000000000000000000000000000000000000600052602260045260246000fd5b600060028204905060018216806137ad57607f821691505b6020821081036137c0576137bf613766565b5b50919050565b7f4552433732313a20617070726f76616c20746f2063757272656e74206f776e6560008201527f7200000000000000000000000000000000000000000000000000000000000000602082015250565b6000613822602183612f96565b915061382d826137c6565b604082019050919050565b6000602082019050818103600083015261385181613815565b9050919050565b7f4552433732313a20617070726f76652063616c6c6572206973206e6f7420746f60008201527f6b656e206f776e6572206f7220617070726f76656420666f7220616c6c000000602082015250565b60006138b4603d83612f96565b91506138bf82613858565b604082019050919050565b600060208201905081810360008301526138e3816138a7565b9050919050565b7f4e487b7100000000000000000000000000000000000000000000000000000000600052601160045260246000fd5b60006139248261303d565b915061392f8361303d565b9250828203905081811115613947576139466138ea565b5b92915050565b7f706c656173652070617920636f727265637420616d6f756e7400000000000000600082015250565b6000613983601983612f96565b915061398e8261394d565b602082019050919050565b600060208201905081810360008301526139b281613976565b9050919050565b7f4552433732313a2063616c6c6572206973206e6f7420746f6b656e206f776e6560008201527f72206f7220617070726f76656400000000000000000000000000000000000000602082015250565b6000613a15602d83612f96565b9150613a20826139b9565b604082019050919050565b60006020820190508181036000830152613a4481613a08565b9050919050565b6000613a568261303d565b9150613a618361303d565b9250828201905080821115613a7957613a786138ea565b5b92915050565b7f706c65617365206465706f73697420636f727265637420616d6f756e74000000600082015250565b6000613ab5601d83612f96565b9150613ac082613a7f565b602082019050919050565b60006020820190508181036000830152613ae481613aa8565b9050919050565b7f46726f6d2061646472657373206973206e6f742076616c696400000000000000600082015250565b6000613b21601983612f96565b9150613b2c82613aeb565b602082019050919050565b60006020820190508181036000830152613b5081613b14565b9050919050565b7f546f2061646472657373206973206e6f742076616c6964000000000000000000600082015250565b6000613b8d601783612f96565b9150613b9882613b57565b602082019050919050565b60006020820190508181036000830152613bbc81613b80565b9050919050565b7f5472616e73666572206e6f74207065726d697474656400000000000000000000600082015250565b6000613bf9601683612f96565b9150613c0482613bc3565b602082019050919050565b60006020820190508181036000830152613c2881613bec565b9050919050565b7f4552433732313a20696e76616c696420746f6b656e2049440000000000000000600082015250565b6000613c65601883612f96565b9150613c7082613c2f565b602082019050919050565b60006020820190508181036000830152613c9481613c58565b9050919050565b7f4552433732313a2061646472657373207a65726f206973206e6f74206120766160008201527f6c6964206f776e65720000000000000000000000000000000000000000000000602082015250565b6000613cf7602983612f96565b9150613d0282613c9b565b604082019050919050565b60006020820190508181036000830152613d2681613cea565b9050919050565b7f6f6e6c79206f776e6572206f66204e46542063616e206c6973742070726f706560008201527f72747920666f722072656e740000000000000000000000000000000000000000602082015250565b6000613d89602c83612f96565b9150613d9482613d2d565b604082019050919050565b60006020820190508181036000830152613db881613d7c565b9050919050565b600081905092915050565b6000613dd582612f8b565b613ddf8185613dbf565b9350613def818560208601612fa7565b80840191505092915050565b6000613e078284613dca565b915081905092915050565b7f4e465420616c7265616479206d696e7465640000000000000000000000000000600082015250565b6000613e48601283612f96565b9150613e5382613e12565b602082019050919050565b60006020820190508181036000830152613e7781613e3b565b9050919050565b7f6f6e6c79206f776e6572206f66204e46542063616e207374617274206573637260008201527f6f772070726f6365737300000000000000000000000000000000000000000000602082015250565b6000613eda602a83612f96565b9150613ee582613e7e565b604082019050919050565b60006020820190508181036000830152613f0981613ecd565b9050919050565b7f4e487b7100000000000000000000000000000000000000000000000000000000600052603260045260246000fd5b6000613f4a8261303d565b91507fffffffffffffffffffffffffffffffffffffffffffffffffffffffffffffffff8203613f7c57613f7b6138ea565b5b600182019050919050565b7f6f6e6c79206f776e6572206f66204e46542063616e20637265617465206c697360008201527f74696e6700000000000000000000000000000000000000000000000000000000602082015250565b6000613fe3602483612f96565b9150613fee82613f87565b604082019050919050565b6000602082019050818103600083015261401281613fd6565b9050919050565b7f4f776e61626c653a206e6577206f776e657220697320746865207a65726f206160008201527f6464726573730000000000000000000000000000000000000000000000000000602082015250565b6000614075602683612f96565b915061408082614019565b604082019050919050565b600060208201905081810360008301526140a481614068565b9050919050565b7f4552433732313a207472616e736665722066726f6d20696e636f72726563742060008201527f6f776e6572000000000000000000000000000000000000000000000000000000602082015250565b6000614107602583612f96565b9150614112826140ab565b604082019050919050565b60006020820190508181036000830152614136816140fa565b9050919050565b7f4552433732313a207472616e7366657220746f20746865207a65726f2061646460008201527f7265737300000000000000000000000000000000000000000000000000000000602082015250565b6000614199602483612f96565b91506141a48261413d565b604082019050919050565b600060208201905081810360008301526141c88161418c565b9050919050565b7f4f776e61626c653a2063616c6c6572206973206e6f7420746865206f776e6572600082015250565b6000614205602083612f96565b9150614210826141cf565b602082019050919050565b60006020820190508181036000830152614234816141f8565b9050919050565b7f4552433732313a20617070726f766520746f2063616c6c657200000000000000600082015250565b6000614271601983612f96565b915061427c8261423b565b602082019050919050565b600060208201905081810360008301526142a081614264565b9050919050565b7f4552433732313a206d696e7420746f20746865207a65726f2061646472657373600082015250565b60006142dd602083612f96565b91506142e8826142a7565b602082019050919050565b6000602082019050818103600083015261430c816142d0565b9050919050565b7f4552433732313a20746f6b656e20616c7265616479206d696e74656400000000600082015250565b6000614349601c83612f96565b915061435482614313565b602082019050919050565b600060208201905081810360008301526143788161433c565b9050919050565b7f45524337323155524953746f726167653a2055524920736574206f66206e6f6e60008201527f6578697374656e7420746f6b656e000000000000000000000000000000000000602082015250565b60006143db602e83612f96565b91506143e68261437f565b604082019050919050565b6000602082019050818103600083015261440a816143ce565b9050919050565b60008190508160005260206000209050919050565b60006020601f8301049050919050565b600082821b905092915050565b6000600883026144737fffffffffffffffffffffffffffffffffffffffffffffffffffffffffffffffff82614436565b61447d8683614436565b95508019841693508086168417925050509392505050565b6000819050919050565b60006144ba6144b56144b08461303d565b614495565b61303d565b9050919050565b6000819050919050565b6144d48361449f565b6144e86144e0826144c1565b848454614443565b825550505050565b600090565b6144fd6144f0565b6145088184846144cb565b505050565b5b8181101561452c576145216000826144f5565b60018101905061450e565b5050565b601f8211156145715761454281614411565b61454b84614426565b8101602085101561455a578190505b61456e61456685614426565b83018261450d565b50505b505050565b600082821c905092915050565b600061459460001984600802614576565b1980831691505092915050565b60006145ad8383614583565b9150826002028217905092915050565b6145c682612f8b565b67ffffffffffffffff8111156145df576145de6132ab565b5b6145e98254613795565b6145f4828285614530565b600060209050601f8311600181146146275760008415614615578287015190505b61461f85826145a1565b865550614687565b601f19841661463586614411565b60005b8281101561465d57848901518255600182019150602085019450602081019050614638565b8683101561467a5784890151614676601f891682614583565b8355505b6001600288020188555050505b505050505050565b7f4552433732313a207472616e7366657220746f206e6f6e20455243373231526560008201527f63656976657220696d706c656d656e7465720000000000000000000000000000602082015250565b60006146eb603283612f96565b91506146f68261468f565b604082019050919050565b6000602082019050818103600083015261471a816146de565b9050919050565b600061472d8285613dca565b91506147398284613dca565b91508190509392505050565b600081519050919050565b600082825260208201905092915050565b600061476c82614745565b6147768185614750565b9350614786818560208601612fa7565b61478f81612fd1565b840191505092915050565b60006080820190506147af60008301876130d2565b6147bc60208301866130d2565b6147c96040830185613168565b81810360608301526147db8184614761565b905095945050505050565b6000815190506147f581612efc565b92915050565b60006020828403121561481157614810612ec6565b5b600061481f848285016147e6565b91505092915050565b7f4e487b7100000000000000000000000000000000000000000000000000000000600052601260045260246000fdfea2646970667358221220bf71d8778f80d565451c7effb00a9e5335058c8faef9c5aca0c61ad3a836731364736f6c63430008110033",
  "linkReferences": {},
  "deployedLinkReferences": {}
}