{
  "_format": "hh-sol-artifact-1",
  "contractName": "PolyBricks",
  "sourceName": "contracts/PolyBricks.sol",
  "abi": [
    {
      "inputs": [],
      "stateMutability": "nonpayable",
      "type": "constructor"
    },
    {
      "anonymous": false,
      "inputs": [
        {
          "indexed": true,
          "internalType": "address",
          "name": "owner",
          "type": "address"
        },
        {
          "indexed": true,
          "internalType": "address",
          "name": "approved",
          "type": "address"
        },
        {
          "indexed": true,
          "internalType": "uint256",
          "name": "tokenId",
          "type": "uint256"
        }
      ],
      "name": "Approval",
      "type": "event"
    },
    {
      "anonymous": false,
      "inputs": [
        {
          "indexed": true,
          "internalType": "address",
          "name": "owner",
          "type": "address"
        },
        {
          "indexed": true,
          "internalType": "address",
          "name": "operator",
          "type": "address"
        },
        {
          "indexed": false,
          "internalType": "bool",
          "name": "approved",
          "type": "bool"
        }
      ],
      "name": "ApprovalForAll",
      "type": "event"
    },
    {
      "anonymous": false,
      "inputs": [
        {
          "indexed": true,
          "internalType": "address",
          "name": "previousOwner",
          "type": "address"
        },
        {
          "indexed": true,
          "internalType": "address",
          "name": "newOwner",
          "type": "address"
        }
      ],
      "name": "OwnershipTransferred",
      "type": "event"
    },
    {
      "anonymous": false,
      "inputs": [
        {
          "indexed": true,
          "internalType": "address",
          "name": "from",
          "type": "address"
        },
        {
          "indexed": true,
          "internalType": "address",
          "name": "to",
          "type": "address"
        },
        {
          "indexed": true,
          "internalType": "uint256",
          "name": "tokenId",
          "type": "uint256"
        }
      ],
      "name": "Transfer",
      "type": "event"
    },
    {
      "inputs": [
        {
          "internalType": "uint256",
          "name": "tokenId",
          "type": "uint256"
        },
        {
          "internalType": "address",
          "name": "chosenBuyer",
          "type": "address"
        }
      ],
      "name": "NFTOwnerStartEscrow",
      "outputs": [],
      "stateMutability": "payable",
      "type": "function"
    },
    {
      "inputs": [],
      "name": "_tokenIdCounter",
      "outputs": [
        {
          "internalType": "uint256",
          "name": "_value",
          "type": "uint256"
        }
      ],
      "stateMutability": "view",
      "type": "function"
    },
    {
      "inputs": [
        {
          "internalType": "address",
          "name": "to",
          "type": "address"
        },
        {
          "internalType": "uint256",
          "name": "tokenId",
          "type": "uint256"
        }
      ],
      "name": "approve",
      "outputs": [],
      "stateMutability": "nonpayable",
      "type": "function"
    },
    {
      "inputs": [
        {
          "internalType": "address",
          "name": "owner",
          "type": "address"
        }
      ],
      "name": "balanceOf",
      "outputs": [
        {
          "internalType": "uint256",
          "name": "",
          "type": "uint256"
        }
      ],
      "stateMutability": "view",
      "type": "function"
    },
    {
      "inputs": [
        {
          "internalType": "address",
          "name": "",
          "type": "address"
        }
      ],
      "name": "buyerAddressToBuyerPayableAddress",
      "outputs": [
        {
          "internalType": "address payable",
          "name": "",
          "type": "address"
        }
      ],
      "stateMutability": "view",
      "type": "function"
    },
    {
      "inputs": [
        {
          "internalType": "address",
          "name": "",
          "type": "address"
        }
      ],
      "name": "buyerAddressToDownPayment",
      "outputs": [
        {
          "internalType": "uint256",
          "name": "",
          "type": "uint256"
        }
      ],
      "stateMutability": "view",
      "type": "function"
    },
    {
      "inputs": [
        {
          "internalType": "uint256",
          "name": "tokenId",
          "type": "uint256"
        }
      ],
      "name": "buyerPayRentAndDeposit",
      "outputs": [],
      "stateMutability": "payable",
      "type": "function"
    },
    {
      "inputs": [
        {
          "internalType": "uint256",
          "name": "tokenId",
          "type": "uint256"
        }
      ],
      "name": "completePaymentAndEsrow",
      "outputs": [],
      "stateMutability": "payable",
      "type": "function"
    },
    {
      "inputs": [
        {
          "internalType": "uint256",
          "name": "tokenId",
          "type": "uint256"
        },
        {
          "internalType": "uint256",
          "name": "_propertyPrice",
          "type": "uint256"
        },
        {
          "internalType": "uint256",
          "name": "_downPayment",
          "type": "uint256"
        }
      ],
      "name": "createPropertyListing",
      "outputs": [],
      "stateMutability": "nonpayable",
      "type": "function"
    },
    {
      "inputs": [
        {
          "internalType": "uint256",
          "name": "",
          "type": "uint256"
        }
      ],
      "name": "depositAmount",
      "outputs": [
        {
          "internalType": "uint256",
          "name": "",
          "type": "uint256"
        }
      ],
      "stateMutability": "view",
      "type": "function"
    },
    {
      "inputs": [
        {
          "internalType": "uint256",
          "name": "",
          "type": "uint256"
        }
      ],
      "name": "downPayment",
      "outputs": [
        {
          "internalType": "uint256",
          "name": "",
          "type": "uint256"
        }
      ],
      "stateMutability": "view",
      "type": "function"
    },
    {
      "inputs": [
        {
          "internalType": "uint256",
          "name": "tokenId",
          "type": "uint256"
        }
      ],
      "name": "getApproved",
      "outputs": [
        {
          "internalType": "address",
          "name": "",
          "type": "address"
        }
      ],
      "stateMutability": "view",
      "type": "function"
    },
    {
      "inputs": [],
      "name": "getBalance",
      "outputs": [
        {
          "internalType": "uint256",
          "name": "",
          "type": "uint256"
        }
      ],
      "stateMutability": "view",
      "type": "function"
    },
    {
      "inputs": [],
      "name": "getCurrentTokenIdCounter",
      "outputs": [
        {
          "internalType": "uint256",
          "name": "",
          "type": "uint256"
        }
      ],
      "stateMutability": "view",
      "type": "function"
    },
    {
      "inputs": [
        {
          "internalType": "address",
          "name": "owner",
          "type": "address"
        },
        {
          "internalType": "address",
          "name": "operator",
          "type": "address"
        }
      ],
      "name": "isApprovedForAll",
      "outputs": [
        {
          "internalType": "bool",
          "name": "",
          "type": "bool"
        }
      ],
      "stateMutability": "view",
      "type": "function"
    },
    {
      "inputs": [
        {
          "internalType": "string",
          "name": "uri",
          "type": "string"
        }
      ],
      "name": "isContentOwned",
      "outputs": [
        {
          "internalType": "bool",
          "name": "",
          "type": "bool"
        }
      ],
      "stateMutability": "view",
      "type": "function"
    },
    {
      "inputs": [
        {
          "internalType": "uint256",
          "name": "tokenId",
          "type": "uint256"
        },
        {
          "internalType": "uint256",
          "name": "_depositAmount",
          "type": "uint256"
        },
        {
          "internalType": "uint256",
          "name": "_monthlyRentAmount",
          "type": "uint256"
        }
      ],
      "name": "listPropertyForRent",
      "outputs": [],
      "stateMutability": "nonpayable",
      "type": "function"
    },
    {
      "inputs": [
        {
          "internalType": "uint256",
          "name": "tokenId",
          "type": "uint256"
        },
        {
          "internalType": "address payable",
          "name": "userPayableAddress",
          "type": "address"
        }
      ],
      "name": "makeDownPayment",
      "outputs": [],
      "stateMutability": "payable",
      "type": "function"
    },
    {
      "inputs": [
        {
          "internalType": "address",
          "name": "recipient",
          "type": "address"
        },
        {
          "internalType": "string",
          "name": "ipfsTitleDeedURI",
          "type": "string"
        },
        {
          "internalType": "string",
          "name": "propertyId",
          "type": "string"
        }
      ],
      "name": "mintNFT",
      "outputs": [
        {
          "internalType": "uint256",
          "name": "",
          "type": "uint256"
        }
      ],
      "stateMutability": "nonpayable",
      "type": "function"
    },
    {
      "inputs": [
        {
          "internalType": "uint256",
          "name": "",
          "type": "uint256"
        }
      ],
      "name": "monthlyRentAmount",
      "outputs": [
        {
          "internalType": "uint256",
          "name": "",
          "type": "uint256"
        }
      ],
      "stateMutability": "view",
      "type": "function"
    },
    {
      "inputs": [],
      "name": "name",
      "outputs": [
        {
          "internalType": "string",
          "name": "",
          "type": "string"
        }
      ],
      "stateMutability": "view",
      "type": "function"
    },
    {
      "inputs": [],
      "name": "owner",
      "outputs": [
        {
          "internalType": "address",
          "name": "",
          "type": "address"
        }
      ],
      "stateMutability": "view",
      "type": "function"
    },
    {
      "inputs": [
        {
          "internalType": "uint256",
          "name": "tokenId",
          "type": "uint256"
        }
      ],
      "name": "ownerOf",
      "outputs": [
        {
          "internalType": "address",
          "name": "",
          "type": "address"
        }
      ],
      "stateMutability": "view",
      "type": "function"
    },
    {
      "inputs": [
        {
          "internalType": "uint256",
          "name": "tokenId",
          "type": "uint256"
        }
      ],
      "name": "payRent",
      "outputs": [],
      "stateMutability": "payable",
      "type": "function"
    },
    {
      "inputs": [
        {
          "internalType": "uint256",
          "name": "",
          "type": "uint256"
        }
      ],
      "name": "propertyPrice",
      "outputs": [
        {
          "internalType": "uint256",
          "name": "",
          "type": "uint256"
        }
      ],
      "stateMutability": "view",
      "type": "function"
    },
    {
      "inputs": [],
      "name": "renounceOwnership",
      "outputs": [],
      "stateMutability": "nonpayable",
      "type": "function"
    },
    {
      "inputs": [
        {
          "internalType": "address",
          "name": "",
          "type": "address"
        }
      ],
      "name": "renterAddressToMonthsPaid",
      "outputs": [
        {
          "internalType": "uint256",
          "name": "",
          "type": "uint256"
        }
      ],
      "stateMutability": "view",
      "type": "function"
    },
    {
      "inputs": [
        {
          "internalType": "address",
          "name": "from",
          "type": "address"
        },
        {
          "internalType": "address",
          "name": "to",
          "type": "address"
        },
        {
          "internalType": "uint256",
          "name": "tokenId",
          "type": "uint256"
        }
      ],
      "name": "safeTransferFrom",
      "outputs": [],
      "stateMutability": "nonpayable",
      "type": "function"
    },
    {
      "inputs": [
        {
          "internalType": "address",
          "name": "from",
          "type": "address"
        },
        {
          "internalType": "address",
          "name": "to",
          "type": "address"
        },
        {
          "internalType": "uint256",
          "name": "tokenId",
          "type": "uint256"
        },
        {
          "internalType": "bytes",
          "name": "data",
          "type": "bytes"
        }
      ],
      "name": "safeTransferFrom",
      "outputs": [],
      "stateMutability": "nonpayable",
      "type": "function"
    },
    {
      "inputs": [
        {
          "internalType": "address",
          "name": "operator",
          "type": "address"
        },
        {
          "internalType": "bool",
          "name": "approved",
          "type": "bool"
        }
      ],
      "name": "setApprovalForAll",
      "outputs": [],
      "stateMutability": "nonpayable",
      "type": "function"
    },
    {
      "inputs": [
        {
          "internalType": "bytes4",
          "name": "interfaceId",
          "type": "bytes4"
        }
      ],
      "name": "supportsInterface",
      "outputs": [
        {
          "internalType": "bool",
          "name": "",
          "type": "bool"
        }
      ],
      "stateMutability": "view",
      "type": "function"
    },
    {
      "inputs": [],
      "name": "symbol",
      "outputs": [
        {
          "internalType": "string",
          "name": "",
          "type": "string"
        }
      ],
      "stateMutability": "view",
      "type": "function"
    },
    {
      "inputs": [
        {
          "internalType": "uint256",
          "name": "",
          "type": "uint256"
        },
        {
          "internalType": "uint256",
          "name": "",
          "type": "uint256"
        }
      ],
      "name": "tokenIdToBuyerAddress",
      "outputs": [
        {
          "internalType": "address",
          "name": "",
          "type": "address"
        }
      ],
      "stateMutability": "view",
      "type": "function"
    },
    {
      "inputs": [
        {
          "internalType": "uint256",
          "name": "",
          "type": "uint256"
        }
      ],
      "name": "tokenIdToSellerPayableAddress",
      "outputs": [
        {
          "internalType": "address payable",
          "name": "",
          "type": "address"
        }
      ],
      "stateMutability": "view",
      "type": "function"
    },
    {
      "inputs": [
        {
          "internalType": "uint256",
          "name": "tokenId",
          "type": "uint256"
        }
      ],
      "name": "tokenURI",
      "outputs": [
        {
          "internalType": "string",
          "name": "",
          "type": "string"
        }
      ],
      "stateMutability": "view",
      "type": "function"
    },
    {
      "inputs": [
        {
          "internalType": "address",
          "name": "from",
          "type": "address"
        },
        {
          "internalType": "address",
          "name": "to",
          "type": "address"
        },
        {
          "internalType": "uint256",
          "name": "tokenId",
          "type": "uint256"
        }
      ],
      "name": "tranfer",
      "outputs": [],
      "stateMutability": "nonpayable",
      "type": "function"
    },
    {
      "inputs": [
        {
          "internalType": "address",
          "name": "from",
          "type": "address"
        },
        {
          "internalType": "address",
          "name": "to",
          "type": "address"
        },
        {
          "internalType": "uint256",
          "name": "tokenId",
          "type": "uint256"
        }
      ],
      "name": "transferFrom",
      "outputs": [],
      "stateMutability": "nonpayable",
      "type": "function"
    },
    {
      "inputs": [
        {
          "internalType": "address",
          "name": "newOwner",
          "type": "address"
        }
      ],
      "name": "transferOwnership",
      "outputs": [],
      "stateMutability": "nonpayable",
      "type": "function"
    }
  ],
  "bytecode": "0x60806040523480156200001157600080fd5b506040518060400160405280600a81526020017f506f6c79427269636b73000000000000000000000000000000000000000000008152506040518060400160405280600481526020017f504252530000000000000000000000000000000000000000000000000000000081525081600090816200008f919062000412565b508060019081620000a1919062000412565b505050620000c4620000b8620000ca60201b60201c565b620000d260201b60201c565b620004f9565b600033905090565b6000600760009054906101000a900473ffffffffffffffffffffffffffffffffffffffff16905081600760006101000a81548173ffffffffffffffffffffffffffffffffffffffff021916908373ffffffffffffffffffffffffffffffffffffffff1602179055508173ffffffffffffffffffffffffffffffffffffffff168173ffffffffffffffffffffffffffffffffffffffff167f8be0079c531659141344cd1fd0a4f28419497f9722a3daafe3b4186f6b6457e060405160405180910390a35050565b600081519050919050565b7f4e487b7100000000000000000000000000000000000000000000000000000000600052604160045260246000fd5b7f4e487b7100000000000000000000000000000000000000000000000000000000600052602260045260246000fd5b600060028204905060018216806200021a57607f821691505b60208210810362000230576200022f620001d2565b5b50919050565b60008190508160005260206000209050919050565b60006020601f8301049050919050565b600082821b905092915050565b6000600883026200029a7fffffffffffffffffffffffffffffffffffffffffffffffffffffffffffffffff826200025b565b620002a686836200025b565b95508019841693508086168417925050509392505050565b6000819050919050565b6000819050919050565b6000620002f3620002ed620002e784620002be565b620002c8565b620002be565b9050919050565b6000819050919050565b6200030f83620002d2565b620003276200031e82620002fa565b84845462000268565b825550505050565b600090565b6200033e6200032f565b6200034b81848462000304565b505050565b5b8181101562000373576200036760008262000334565b60018101905062000351565b5050565b601f821115620003c2576200038c8162000236565b62000397846200024b565b81016020851015620003a7578190505b620003bf620003b6856200024b565b83018262000350565b50505b505050565b600082821c905092915050565b6000620003e760001984600802620003c7565b1980831691505092915050565b6000620004028383620003d4565b9150826002028217905092915050565b6200041d8262000198565b67ffffffffffffffff811115620004395762000438620001a3565b5b62000445825462000201565b6200045282828562000377565b600060209050601f8311600181146200048a576000841562000475578287015190505b620004818582620003f4565b865550620004f1565b601f1984166200049a8662000236565b60005b82811015620004c4578489015182556001820191506020850194506020810190506200049d565b86831015620004e45784890151620004e0601f891682620003d4565b8355505b6001600288020188555050505b505050505050565b61490780620005096000396000f3fe6080604052600436106102255760003560e01c806384c4bd4b11610123578063a983fa49116100ab578063c87b56dd1161006f578063c87b56dd14610851578063d9e8843f1461088e578063e985e9c5146108aa578063f2fde38b146108e7578063f60c91b01461091057610225565b8063a983fa491461078a578063b364cf7d146107a6578063b88d4fde146107c2578063bd1157a9146107eb578063c12e1a071461082857610225565b8063914e58f5116100f2578063914e58f51461067f57806395d89b41146106bc5780639f1cabc6146106e7578063a22cb46514610724578063a3ee38ae1461074d57610225565b806384c4bd4b146105c157806387f8ab26146105ec5780638c6743e0146106295780638da5cb5b1461065457610225565b806326530f39116101b15780636352211e116101755780636352211e146104ca57806370a0823114610507578063715018a614610544578063747f9b4f1461055b57806377c5ab0e1461059857610225565b806326530f39146103e25780633a28551e1461040b578063401d765b1461044857806342842e0e146104645780634412e4391461048d57610225565b806309f5c475116101f857806309f5c475146102f857806312065fe0146103145780631358d4491461033f57806314050c5a1461037c57806323b872dd146103b957610225565b806301ffc9a71461022a57806306fdde0314610267578063081812fc14610292578063095ea7b3146102cf575b600080fd5b34801561023657600080fd5b50610251600480360381019061024c9190612fa2565b61094d565b60405161025e9190612fea565b60405180910390f35b34801561027357600080fd5b5061027c610a2f565b6040516102899190613095565b60405180910390f35b34801561029e57600080fd5b506102b960048036038101906102b491906130ed565b610ac1565b6040516102c6919061315b565b60405180910390f35b3480156102db57600080fd5b506102f660048036038101906102f191906131a2565b610b07565b005b610312600480360381019061030d91906130ed565b610c1e565b005b34801561032057600080fd5b50610329610d39565b60405161033691906131f1565b60405180910390f35b34801561034b57600080fd5b50610366600480360381019061036191906130ed565b610d41565b60405161037391906131f1565b60405180910390f35b34801561038857600080fd5b506103a3600480360381019061039e91906130ed565b610d59565b6040516103b091906131f1565b60405180910390f35b3480156103c557600080fd5b506103e060048036038101906103db919061320c565b610d71565b005b3480156103ee57600080fd5b506104096004803603810190610404919061320c565b610dd1565b005b34801561041757600080fd5b50610432600480360381019061042d919061325f565b610de1565b60405161043f91906132ad565b60405180910390f35b610462600480360381019061045d91906130ed565b610e14565b005b34801561047057600080fd5b5061048b6004803603810190610486919061320c565b610ee2565b005b34801561049957600080fd5b506104b460048036038101906104af919061325f565b611019565b6040516104c191906131f1565b60405180910390f35b3480156104d657600080fd5b506104f160048036038101906104ec91906130ed565b611031565b6040516104fe919061315b565b60405180910390f35b34801561051357600080fd5b5061052e6004803603810190610529919061325f565b6110b7565b60405161053b91906131f1565b60405180910390f35b34801561055057600080fd5b5061055961116e565b005b34801561056757600080fd5b50610582600480360381019061057d91906130ed565b611182565b60405161058f91906131f1565b60405180910390f35b3480156105a457600080fd5b506105bf60048036038101906105ba91906132c8565b61119a565b005b3480156105cd57600080fd5b506105d6611218565b6040516105e391906131f1565b60405180910390f35b3480156105f857600080fd5b50610613600480360381019061060e91906130ed565b611224565b60405161062091906131f1565b60405180910390f35b34801561063557600080fd5b5061063e61123c565b60405161064b91906131f1565b60405180910390f35b34801561066057600080fd5b50610669611252565b604051610676919061315b565b60405180910390f35b34801561068b57600080fd5b506106a660048036038101906106a191906130ed565b61127c565b6040516106b391906132ad565b60405180910390f35b3480156106c857600080fd5b506106d16112af565b6040516106de9190613095565b60405180910390f35b3480156106f357600080fd5b5061070e60048036038101906107099190613450565b611341565b60405161071b9190612fea565b60405180910390f35b34801561073057600080fd5b5061074b600480360381019061074691906134c5565b61137c565b005b34801561075957600080fd5b50610774600480360381019061076f9190613505565b611392565b60405161078191906131f1565b60405180910390f35b6107a4600480360381019061079f91906135bc565b611498565b005b6107c060048036038101906107bb91906135fc565b61160d565b005b3480156107ce57600080fd5b506107e960048036038101906107e491906136dd565b61184f565b005b3480156107f757600080fd5b50610812600480360381019061080d9190613760565b6118b1565b60405161081f919061315b565b60405180910390f35b34801561083457600080fd5b5061084f600480360381019061084a91906132c8565b6118ff565b005b34801561085d57600080fd5b50610878600480360381019061087391906130ed565b6119db565b6040516108859190613095565b60405180910390f35b6108a860048036038101906108a391906130ed565b6119ed565b005b3480156108b657600080fd5b506108d160048036038101906108cc91906137a0565b611b17565b6040516108de9190612fea565b60405180910390f35b3480156108f357600080fd5b5061090e6004803603810190610909919061325f565b611bab565b005b34801561091c57600080fd5b506109376004803603810190610932919061325f565b611c2e565b60405161094491906131f1565b60405180910390f35b60007f80ac58cd000000000000000000000000000000000000000000000000000000007bffffffffffffffffffffffffffffffffffffffffffffffffffffffff1916827bffffffffffffffffffffffffffffffffffffffffffffffffffffffff19161480610a1857507f5b5e139f000000000000000000000000000000000000000000000000000000007bffffffffffffffffffffffffffffffffffffffffffffffffffffffff1916827bffffffffffffffffffffffffffffffffffffffffffffffffffffffff1916145b80610a285750610a2782611c46565b5b9050919050565b606060008054610a3e9061380f565b80601f0160208091040260200160405190810160405280929190818152602001828054610a6a9061380f565b8015610ab75780601f10610a8c57610100808354040283529160200191610ab7565b820191906000526020600020905b815481529060010190602001808311610a9a57829003601f168201915b5050505050905090565b6000610acc82611cb0565b6004600083815260200190815260200160002060009054906101000a900473ffffffffffffffffffffffffffffffffffffffff169050919050565b6000610b1282611031565b90508073ffffffffffffffffffffffffffffffffffffffff168373ffffffffffffffffffffffffffffffffffffffff1603610b82576040517f08c379a0000000000000000000000000000000000000000000000000000000008152600401610b79906138b2565b60405180910390fd5b8073ffffffffffffffffffffffffffffffffffffffff16610ba1611cfb565b73ffffffffffffffffffffffffffffffffffffffff161480610bd05750610bcf81610bca611cfb565b611b17565b5b610c0f576040517f08c379a0000000000000000000000000000000000000000000000000000000008152600401610c0690613944565b60405180910390fd5b610c198383611d03565b505050565b600c600082815260200190815260200160002054600b600083815260200190815260200160002054610c509190613993565b341015610c92576040517f08c379a0000000000000000000000000000000000000000000000000000000008152600401610c8990613a13565b60405180910390fd5b610c9d303383610dd1565b60006010600083815260200190815260200160002060009054906101000a900473ffffffffffffffffffffffffffffffffffffffff1690506000600b60008481526020019081526020016000205490508173ffffffffffffffffffffffffffffffffffffffff166108fc829081150290604051600060405180830381858888f19350505050158015610d33573d6000803e3d6000fd5b50505050565b600047905090565b60126020528060005260406000206000915090505481565b600b6020528060005260406000206000915090505481565b610d82610d7c611cfb565b82611dbc565b610dc1576040517f08c379a0000000000000000000000000000000000000000000000000000000008152600401610db890613aa5565b60405180910390fd5b610dcc838383611e51565b505050565b610ddc838383610ee2565b505050565b600f6020528060005260406000206000915054906101000a900473ffffffffffffffffffffffffffffffffffffffff1681565b60126000828152602001908152602001600020546011600083815260200190815260200160002054610e469190613ac5565b341015610e88576040517f08c379a0000000000000000000000000000000000000000000000000000000008152600401610e7f90613b45565b60405180910390fd5b6001601360003373ffffffffffffffffffffffffffffffffffffffff1673ffffffffffffffffffffffffffffffffffffffff1681526020019081526020016000206000828254610ed89190613ac5565b9250508190555050565b600073ffffffffffffffffffffffffffffffffffffffff168373ffffffffffffffffffffffffffffffffffffffff1603610f51576040517f08c379a0000000000000000000000000000000000000000000000000000000008152600401610f4890613bb1565b60405180910390fd5b600073ffffffffffffffffffffffffffffffffffffffff168273ffffffffffffffffffffffffffffffffffffffff1603610fc0576040517f08c379a0000000000000000000000000000000000000000000000000000000008152600401610fb790613c1d565b60405180910390fd5b610fca8382611dbc565b611009576040517f08c379a000000000000000000000000000000000000000000000000000000000815260040161100090613c89565b60405180910390fd5b611014838383611e51565b505050565b600e6020528060005260406000206000915090505481565b60008061103d8361214a565b9050600073ffffffffffffffffffffffffffffffffffffffff168173ffffffffffffffffffffffffffffffffffffffff16036110ae576040517f08c379a00000000000000000000000000000000000000000000000000000000081526004016110a590613cf5565b60405180910390fd5b80915050919050565b60008073ffffffffffffffffffffffffffffffffffffffff168273ffffffffffffffffffffffffffffffffffffffff1603611127576040517f08c379a000000000000000000000000000000000000000000000000000000000815260040161111e90613d87565b60405180910390fd5b600360008373ffffffffffffffffffffffffffffffffffffffff1673ffffffffffffffffffffffffffffffffffffffff168152602001908152602001600020549050919050565b611176612187565b6111806000612205565b565b600c6020528060005260406000206000915090505481565b6111a43384611dbc565b6111e3576040517f08c379a00000000000000000000000000000000000000000000000000000000081526004016111da90613e19565b60405180910390fd5b816011600085815260200190815260200160002081905550806012600085815260200190815260200160002081905550505050565b60088060000154905081565b60116020528060005260406000206000915090505481565b60008061124960086122cb565b90508091505090565b6000600760009054906101000a900473ffffffffffffffffffffffffffffffffffffffff16905090565b60106020528060005260406000206000915054906101000a900473ffffffffffffffffffffffffffffffffffffffff1681565b6060600180546112be9061380f565b80601f01602080910402602001604051908101604052809291908181526020018280546112ea9061380f565b80156113375780601f1061130c57610100808354040283529160200191611337565b820191906000526020600020905b81548152906001019060200180831161131a57829003601f168201915b5050505050905090565b600060016009836040516113559190613e75565b908152602001604051809103902060009054906101000a900460ff1660ff16149050919050565b61138e611387611cfb565b83836122d9565b5050565b600061139c612187565b6113a583611341565b156113e5576040517f08c379a00000000000000000000000000000000000000000000000000000000081526004016113dc90613ed8565b60405180910390fd5b60006113ef61123c565b90506113fb6008612445565b600160098560405161140d9190613e75565b908152602001604051809103902060006101000a81548160ff021916908360ff160217905550604051806020016040528084815250600a856040516114529190613e75565b908152602001604051809103902090600161146e929190612e0a565b50611479858261245b565b6114838185612678565b61148d3382611d03565b809150509392505050565b600c6000838152602001908152602001600020543410156114ee576040517f08c379a00000000000000000000000000000000000000000000000000000000081526004016114e590613b45565b60405180910390fd5b80600f60003373ffffffffffffffffffffffffffffffffffffffff1673ffffffffffffffffffffffffffffffffffffffff16815260200190815260200160002060006101000a81548173ffffffffffffffffffffffffffffffffffffffff021916908373ffffffffffffffffffffffffffffffffffffffff1602179055506000600d6000848152602001908152602001600020905080829080600181540180825580915050600190039060005260206000200160009091909190916101000a81548173ffffffffffffffffffffffffffffffffffffffff021916908373ffffffffffffffffffffffffffffffffffffffff16021790555080600d6000858152602001908152602001600020908054611607929190612e63565b50505050565b6116173383611dbc565b611656576040517f08c379a000000000000000000000000000000000000000000000000000000000815260040161164d90613f6a565b60405180910390fd5b611661333084610dd1565b6000600d60008481526020019081526020016000208054806020026020016040519081016040528092919081815260200182805480156116f657602002820191906000526020600020905b8160009054906101000a900473ffffffffffffffffffffffffffffffffffffffff1673ffffffffffffffffffffffffffffffffffffffff16815260200190600101908083116116ac575b5050505050905060005b8151811015611849578273ffffffffffffffffffffffffffffffffffffffff1682828151811061173357611732613f8a565b5b602002602001015173ffffffffffffffffffffffffffffffffffffffff1614611836576000600f600084848151811061176f5761176e613f8a565b5b602002602001015173ffffffffffffffffffffffffffffffffffffffff1673ffffffffffffffffffffffffffffffffffffffff16815260200190815260200160002060009054906101000a900473ffffffffffffffffffffffffffffffffffffffff1690506000600c60008781526020019081526020016000205490508173ffffffffffffffffffffffffffffffffffffffff166108fc829081150290604051600060405180830381858888f19350505050158015611832573d6000803e3d6000fd5b5050505b808061184190613fb9565b915050611700565b50505050565b61186061185a611cfb565b83611dbc565b61189f576040517f08c379a000000000000000000000000000000000000000000000000000000000815260040161189690613aa5565b60405180910390fd5b6118ab848484846126e5565b50505050565b600d60205281600052604060002081815481106118cd57600080fd5b906000526020600020016000915091509054906101000a900473ffffffffffffffffffffffffffffffffffffffff1681565b6119093384611dbc565b611948576040517f08c379a000000000000000000000000000000000000000000000000000000000815260040161193f90614073565b60405180910390fd5b81600b60008581526020019081526020016000208190555080600c60008581526020019081526020016000208190555060003390506000819050806010600087815260200190815260200160002060006101000a81548173ffffffffffffffffffffffffffffffffffffffff021916908373ffffffffffffffffffffffffffffffffffffffff1602179055505050505050565b60606119e682612741565b9050919050565b6012600082815260200190815260200160002054341015611a43576040517f08c379a0000000000000000000000000000000000000000000000000000000008152600401611a3a90613a13565b60405180910390fd5b6001601360003373ffffffffffffffffffffffffffffffffffffffff1673ffffffffffffffffffffffffffffffffffffffff1681526020019081526020016000206000828254611a939190613ac5565b925050819055506010600082815260200190815260200160002060009054906101000a900473ffffffffffffffffffffffffffffffffffffffff1673ffffffffffffffffffffffffffffffffffffffff166108fc349081150290604051600060405180830381858888f19350505050158015611b13573d6000803e3d6000fd5b5050565b6000600560008473ffffffffffffffffffffffffffffffffffffffff1673ffffffffffffffffffffffffffffffffffffffff16815260200190815260200160002060008373ffffffffffffffffffffffffffffffffffffffff1673ffffffffffffffffffffffffffffffffffffffff16815260200190815260200160002060009054906101000a900460ff16905092915050565b611bb3612187565b600073ffffffffffffffffffffffffffffffffffffffff168173ffffffffffffffffffffffffffffffffffffffff1603611c22576040517f08c379a0000000000000000000000000000000000000000000000000000000008152600401611c1990614105565b60405180910390fd5b611c2b81612205565b50565b60136020528060005260406000206000915090505481565b60007f01ffc9a7000000000000000000000000000000000000000000000000000000007bffffffffffffffffffffffffffffffffffffffffffffffffffffffff1916827bffffffffffffffffffffffffffffffffffffffffffffffffffffffff1916149050919050565b611cb981612853565b611cf8576040517f08c379a0000000000000000000000000000000000000000000000000000000008152600401611cef90613cf5565b60405180910390fd5b50565b600033905090565b816004600083815260200190815260200160002060006101000a81548173ffffffffffffffffffffffffffffffffffffffff021916908373ffffffffffffffffffffffffffffffffffffffff160217905550808273ffffffffffffffffffffffffffffffffffffffff16611d7683611031565b73ffffffffffffffffffffffffffffffffffffffff167f8c5be1e5ebec7d5bd14f71427d1e84f3dd0314c0f7b2291e5b200ac8c7c3b92560405160405180910390a45050565b600080611dc883611031565b90508073ffffffffffffffffffffffffffffffffffffffff168473ffffffffffffffffffffffffffffffffffffffff161480611e0a5750611e098185611b17565b5b80611e4857508373ffffffffffffffffffffffffffffffffffffffff16611e3084610ac1565b73ffffffffffffffffffffffffffffffffffffffff16145b91505092915050565b8273ffffffffffffffffffffffffffffffffffffffff16611e7182611031565b73ffffffffffffffffffffffffffffffffffffffff1614611ec7576040517f08c379a0000000000000000000000000000000000000000000000000000000008152600401611ebe90614197565b60405180910390fd5b600073ffffffffffffffffffffffffffffffffffffffff168273ffffffffffffffffffffffffffffffffffffffff1603611f36576040517f08c379a0000000000000000000000000000000000000000000000000000000008152600401611f2d90614229565b60405180910390fd5b611f438383836001612894565b8273ffffffffffffffffffffffffffffffffffffffff16611f6382611031565b73ffffffffffffffffffffffffffffffffffffffff1614611fb9576040517f08c379a0000000000000000000000000000000000000000000000000000000008152600401611fb090614197565b60405180910390fd5b6004600082815260200190815260200160002060006101000a81549073ffffffffffffffffffffffffffffffffffffffff02191690556001600360008573ffffffffffffffffffffffffffffffffffffffff1673ffffffffffffffffffffffffffffffffffffffff168152602001908152602001600020600082825403925050819055506001600360008473ffffffffffffffffffffffffffffffffffffffff1673ffffffffffffffffffffffffffffffffffffffff16815260200190815260200160002060008282540192505081905550816002600083815260200190815260200160002060006101000a81548173ffffffffffffffffffffffffffffffffffffffff021916908373ffffffffffffffffffffffffffffffffffffffff160217905550808273ffffffffffffffffffffffffffffffffffffffff168473ffffffffffffffffffffffffffffffffffffffff167fddf252ad1be2c89b69c2b068fc378daa952ba7f163c4a11628f55a4df523b3ef60405160405180910390a461214583838360016129ba565b505050565b60006002600083815260200190815260200160002060009054906101000a900473ffffffffffffffffffffffffffffffffffffffff169050919050565b61218f611cfb565b73ffffffffffffffffffffffffffffffffffffffff166121ad611252565b73ffffffffffffffffffffffffffffffffffffffff1614612203576040517f08c379a00000000000000000000000000000000000000000000000000000000081526004016121fa90614295565b60405180910390fd5b565b6000600760009054906101000a900473ffffffffffffffffffffffffffffffffffffffff16905081600760006101000a81548173ffffffffffffffffffffffffffffffffffffffff021916908373ffffffffffffffffffffffffffffffffffffffff1602179055508173ffffffffffffffffffffffffffffffffffffffff168173ffffffffffffffffffffffffffffffffffffffff167f8be0079c531659141344cd1fd0a4f28419497f9722a3daafe3b4186f6b6457e060405160405180910390a35050565b600081600001549050919050565b8173ffffffffffffffffffffffffffffffffffffffff168373ffffffffffffffffffffffffffffffffffffffff1603612347576040517f08c379a000000000000000000000000000000000000000000000000000000000815260040161233e90614301565b60405180910390fd5b80600560008573ffffffffffffffffffffffffffffffffffffffff1673ffffffffffffffffffffffffffffffffffffffff16815260200190815260200160002060008473ffffffffffffffffffffffffffffffffffffffff1673ffffffffffffffffffffffffffffffffffffffff16815260200190815260200160002060006101000a81548160ff0219169083151502179055508173ffffffffffffffffffffffffffffffffffffffff168373ffffffffffffffffffffffffffffffffffffffff167f17307eab39ab6107e8899845ad3d59bd9653f200f220920489ca2b5937696c31836040516124389190612fea565b60405180910390a3505050565b6001816000016000828254019250508190555050565b600073ffffffffffffffffffffffffffffffffffffffff168273ffffffffffffffffffffffffffffffffffffffff16036124ca576040517f08c379a00000000000000000000000000000000000000000000000000000000081526004016124c19061436d565b60405180910390fd5b6124d381612853565b15612513576040517f08c379a000000000000000000000000000000000000000000000000000000000815260040161250a906143d9565b60405180910390fd5b612521600083836001612894565b61252a81612853565b1561256a576040517f08c379a0000000000000000000000000000000000000000000000000000000008152600401612561906143d9565b60405180910390fd5b6001600360008473ffffffffffffffffffffffffffffffffffffffff1673ffffffffffffffffffffffffffffffffffffffff16815260200190815260200160002060008282540192505081905550816002600083815260200190815260200160002060006101000a81548173ffffffffffffffffffffffffffffffffffffffff021916908373ffffffffffffffffffffffffffffffffffffffff160217905550808273ffffffffffffffffffffffffffffffffffffffff16600073ffffffffffffffffffffffffffffffffffffffff167fddf252ad1be2c89b69c2b068fc378daa952ba7f163c4a11628f55a4df523b3ef60405160405180910390a46126746000838360016129ba565b5050565b61268182612853565b6126c0576040517f08c379a00000000000000000000000000000000000000000000000000000000081526004016126b79061446b565b60405180910390fd5b806006600084815260200190815260200160002090816126e09190614637565b505050565b6126f0848484611e51565b6126fc848484846129c0565b61273b576040517f08c379a00000000000000000000000000000000000000000000000000000000081526004016127329061477b565b60405180910390fd5b50505050565b606061274c82611cb0565b600060066000848152602001908152602001600020805461276c9061380f565b80601f01602080910402602001604051908101604052809291908181526020018280546127989061380f565b80156127e55780601f106127ba576101008083540402835291602001916127e5565b820191906000526020600020905b8154815290600101906020018083116127c857829003601f168201915b5050505050905060006127f6612b47565b9050600081510361280b57819250505061284e565b60008251111561284057808260405160200161282892919061479b565b6040516020818303038152906040529250505061284e565b61284984612b5e565b925050505b919050565b60008073ffffffffffffffffffffffffffffffffffffffff166128758361214a565b73ffffffffffffffffffffffffffffffffffffffff1614159050919050565b60018111156129b457600073ffffffffffffffffffffffffffffffffffffffff168473ffffffffffffffffffffffffffffffffffffffff16146129285780600360008673ffffffffffffffffffffffffffffffffffffffff1673ffffffffffffffffffffffffffffffffffffffff16815260200190815260200160002060008282546129209190613993565b925050819055505b600073ffffffffffffffffffffffffffffffffffffffff168373ffffffffffffffffffffffffffffffffffffffff16146129b35780600360008573ffffffffffffffffffffffffffffffffffffffff1673ffffffffffffffffffffffffffffffffffffffff16815260200190815260200160002060008282546129ab9190613ac5565b925050819055505b5b50505050565b50505050565b60006129e18473ffffffffffffffffffffffffffffffffffffffff16612bc6565b15612b3a578373ffffffffffffffffffffffffffffffffffffffff1663150b7a02612a0a611cfb565b8786866040518563ffffffff1660e01b8152600401612a2c9493929190614814565b6020604051808303816000875af1925050508015612a6857506040513d601f19601f82011682018060405250810190612a659190614875565b60015b612aea573d8060008114612a98576040519150601f19603f3d011682016040523d82523d6000602084013e612a9d565b606091505b506000815103612ae2576040517f08c379a0000000000000000000000000000000000000000000000000000000008152600401612ad99061477b565b60405180910390fd5b805181602001fd5b63150b7a0260e01b7bffffffffffffffffffffffffffffffffffffffffffffffffffffffff1916817bffffffffffffffffffffffffffffffffffffffffffffffffffffffff191614915050612b3f565b600190505b949350505050565b606060405180602001604052806000815250905090565b6060612b6982611cb0565b6000612b73612b47565b90506000815111612b935760405180602001604052806000815250612bbe565b80612b9d84612be9565b604051602001612bae92919061479b565b6040516020818303038152906040525b915050919050565b6000808273ffffffffffffffffffffffffffffffffffffffff163b119050919050565b606060006001612bf884612cb7565b01905060008167ffffffffffffffff811115612c1757612c16613325565b5b6040519080825280601f01601f191660200182016040528015612c495781602001600182028036833780820191505090505b509050600082602001820190505b600115612cac578080600190039150507f3031323334353637383961626364656600000000000000000000000000000000600a86061a8153600a8581612ca057612c9f6148a2565b5b04945060008503612c57575b819350505050919050565b600080600090507a184f03e93ff9f4daa797ed6e38ed64bf6a1f0100000000000000008310612d15577a184f03e93ff9f4daa797ed6e38ed64bf6a1f0100000000000000008381612d0b57612d0a6148a2565b5b0492506040810190505b6d04ee2d6d415b85acef81000000008310612d52576d04ee2d6d415b85acef81000000008381612d4857612d476148a2565b5b0492506020810190505b662386f26fc100008310612d8157662386f26fc100008381612d7757612d766148a2565b5b0492506010810190505b6305f5e1008310612daa576305f5e1008381612da057612d9f6148a2565b5b0492506008810190505b6127108310612dcf576127108381612dc557612dc46148a2565b5b0492506004810190505b60648310612df25760648381612de857612de76148a2565b5b0492506002810190505b600a8310612e01576001810190505b80915050919050565b828054828255906000526020600020908101928215612e52579160200282015b82811115612e51578251829081612e419190614637565b5091602001919060010190612e2a565b5b509050612e5f9190612eb5565b5090565b828054828255906000526020600020908101928215612ea45760005260206000209182015b82811115612ea3578254825591600101919060010190612e88565b5b509050612eb19190612ed9565b5090565b5b80821115612ed55760008181612ecc9190612ef6565b50600101612eb6565b5090565b5b80821115612ef2576000816000905550600101612eda565b5090565b508054612f029061380f565b6000825580601f10612f145750612f33565b601f016020900490600052602060002090810190612f329190612ed9565b5b50565b6000604051905090565b600080fd5b600080fd5b60007fffffffff0000000000000000000000000000000000000000000000000000000082169050919050565b612f7f81612f4a565b8114612f8a57600080fd5b50565b600081359050612f9c81612f76565b92915050565b600060208284031215612fb857612fb7612f40565b5b6000612fc684828501612f8d565b91505092915050565b60008115159050919050565b612fe481612fcf565b82525050565b6000602082019050612fff6000830184612fdb565b92915050565b600081519050919050565b600082825260208201905092915050565b60005b8381101561303f578082015181840152602081019050613024565b60008484015250505050565b6000601f19601f8301169050919050565b600061306782613005565b6130718185613010565b9350613081818560208601613021565b61308a8161304b565b840191505092915050565b600060208201905081810360008301526130af818461305c565b905092915050565b6000819050919050565b6130ca816130b7565b81146130d557600080fd5b50565b6000813590506130e7816130c1565b92915050565b60006020828403121561310357613102612f40565b5b6000613111848285016130d8565b91505092915050565b600073ffffffffffffffffffffffffffffffffffffffff82169050919050565b60006131458261311a565b9050919050565b6131558161313a565b82525050565b6000602082019050613170600083018461314c565b92915050565b61317f8161313a565b811461318a57600080fd5b50565b60008135905061319c81613176565b92915050565b600080604083850312156131b9576131b8612f40565b5b60006131c78582860161318d565b92505060206131d8858286016130d8565b9150509250929050565b6131eb816130b7565b82525050565b600060208201905061320660008301846131e2565b92915050565b60008060006060848603121561322557613224612f40565b5b60006132338682870161318d565b93505060206132448682870161318d565b9250506040613255868287016130d8565b9150509250925092565b60006020828403121561327557613274612f40565b5b60006132838482850161318d565b91505092915050565b60006132978261311a565b9050919050565b6132a78161328c565b82525050565b60006020820190506132c2600083018461329e565b92915050565b6000806000606084860312156132e1576132e0612f40565b5b60006132ef868287016130d8565b9350506020613300868287016130d8565b9250506040613311868287016130d8565b9150509250925092565b600080fd5b600080fd5b7f4e487b7100000000000000000000000000000000000000000000000000000000600052604160045260246000fd5b61335d8261304b565b810181811067ffffffffffffffff8211171561337c5761337b613325565b5b80604052505050565b600061338f612f36565b905061339b8282613354565b919050565b600067ffffffffffffffff8211156133bb576133ba613325565b5b6133c48261304b565b9050602081019050919050565b82818337600083830152505050565b60006133f36133ee846133a0565b613385565b90508281526020810184848401111561340f5761340e613320565b5b61341a8482856133d1565b509392505050565b600082601f8301126134375761343661331b565b5b81356134478482602086016133e0565b91505092915050565b60006020828403121561346657613465612f40565b5b600082013567ffffffffffffffff81111561348457613483612f45565b5b61349084828501613422565b91505092915050565b6134a281612fcf565b81146134ad57600080fd5b50565b6000813590506134bf81613499565b92915050565b600080604083850312156134dc576134db612f40565b5b60006134ea8582860161318d565b92505060206134fb858286016134b0565b9150509250929050565b60008060006060848603121561351e5761351d612f40565b5b600061352c8682870161318d565b935050602084013567ffffffffffffffff81111561354d5761354c612f45565b5b61355986828701613422565b925050604084013567ffffffffffffffff81111561357a57613579612f45565b5b61358686828701613422565b9150509250925092565b6135998161328c565b81146135a457600080fd5b50565b6000813590506135b681613590565b92915050565b600080604083850312156135d3576135d2612f40565b5b60006135e1858286016130d8565b92505060206135f2858286016135a7565b9150509250929050565b6000806040838503121561361357613612612f40565b5b6000613621858286016130d8565b92505060206136328582860161318d565b9150509250929050565b600067ffffffffffffffff82111561365757613656613325565b5b6136608261304b565b9050602081019050919050565b600061368061367b8461363c565b613385565b90508281526020810184848401111561369c5761369b613320565b5b6136a78482856133d1565b509392505050565b600082601f8301126136c4576136c361331b565b5b81356136d484826020860161366d565b91505092915050565b600080600080608085870312156136f7576136f6612f40565b5b60006137058782880161318d565b94505060206137168782880161318d565b9350506040613727878288016130d8565b925050606085013567ffffffffffffffff81111561374857613747612f45565b5b613754878288016136af565b91505092959194509250565b6000806040838503121561377757613776612f40565b5b6000613785858286016130d8565b9250506020613796858286016130d8565b9150509250929050565b600080604083850312156137b7576137b6612f40565b5b60006137c58582860161318d565b92505060206137d68582860161318d565b9150509250929050565b7f4e487b7100000000000000000000000000000000000000000000000000000000600052602260045260246000fd5b6000600282049050600182168061382757607f821691505b60208210810361383a576138396137e0565b5b50919050565b7f4552433732313a20617070726f76616c20746f2063757272656e74206f776e6560008201527f7200000000000000000000000000000000000000000000000000000000000000602082015250565b600061389c602183613010565b91506138a782613840565b604082019050919050565b600060208201905081810360008301526138cb8161388f565b9050919050565b7f4552433732313a20617070726f76652063616c6c6572206973206e6f7420746f60008201527f6b656e206f776e6572206f7220617070726f76656420666f7220616c6c000000602082015250565b600061392e603d83613010565b9150613939826138d2565b604082019050919050565b6000602082019050818103600083015261395d81613921565b9050919050565b7f4e487b7100000000000000000000000000000000000000000000000000000000600052601160045260246000fd5b600061399e826130b7565b91506139a9836130b7565b92508282039050818111156139c1576139c0613964565b5b92915050565b7f706c656173652070617920636f727265637420616d6f756e7400000000000000600082015250565b60006139fd601983613010565b9150613a08826139c7565b602082019050919050565b60006020820190508181036000830152613a2c816139f0565b9050919050565b7f4552433732313a2063616c6c6572206973206e6f7420746f6b656e206f776e6560008201527f72206f7220617070726f76656400000000000000000000000000000000000000602082015250565b6000613a8f602d83613010565b9150613a9a82613a33565b604082019050919050565b60006020820190508181036000830152613abe81613a82565b9050919050565b6000613ad0826130b7565b9150613adb836130b7565b9250828201905080821115613af357613af2613964565b5b92915050565b7f706c65617365206465706f73697420636f727265637420616d6f756e74000000600082015250565b6000613b2f601d83613010565b9150613b3a82613af9565b602082019050919050565b60006020820190508181036000830152613b5e81613b22565b9050919050565b7f46726f6d2061646472657373206973206e6f742076616c696400000000000000600082015250565b6000613b9b601983613010565b9150613ba682613b65565b602082019050919050565b60006020820190508181036000830152613bca81613b8e565b9050919050565b7f546f2061646472657373206973206e6f742076616c6964000000000000000000600082015250565b6000613c07601783613010565b9150613c1282613bd1565b602082019050919050565b60006020820190508181036000830152613c3681613bfa565b9050919050565b7f5472616e73666572206e6f74207065726d697474656400000000000000000000600082015250565b6000613c73601683613010565b9150613c7e82613c3d565b602082019050919050565b60006020820190508181036000830152613ca281613c66565b9050919050565b7f4552433732313a20696e76616c696420746f6b656e2049440000000000000000600082015250565b6000613cdf601883613010565b9150613cea82613ca9565b602082019050919050565b60006020820190508181036000830152613d0e81613cd2565b9050919050565b7f4552433732313a2061646472657373207a65726f206973206e6f74206120766160008201527f6c6964206f776e65720000000000000000000000000000000000000000000000602082015250565b6000613d71602983613010565b9150613d7c82613d15565b604082019050919050565b60006020820190508181036000830152613da081613d64565b9050919050565b7f6f6e6c79206f776e6572206f66204e46542063616e206c6973742070726f706560008201527f72747920666f722072656e740000000000000000000000000000000000000000602082015250565b6000613e03602c83613010565b9150613e0e82613da7565b604082019050919050565b60006020820190508181036000830152613e3281613df6565b9050919050565b600081905092915050565b6000613e4f82613005565b613e598185613e39565b9350613e69818560208601613021565b80840191505092915050565b6000613e818284613e44565b915081905092915050565b7f4e465420616c7265616479206d696e7465640000000000000000000000000000600082015250565b6000613ec2601283613010565b9150613ecd82613e8c565b602082019050919050565b60006020820190508181036000830152613ef181613eb5565b9050919050565b7f6f6e6c79206f776e6572206f66204e46542063616e207374617274206573637260008201527f6f772070726f6365737300000000000000000000000000000000000000000000602082015250565b6000613f54602a83613010565b9150613f5f82613ef8565b604082019050919050565b60006020820190508181036000830152613f8381613f47565b9050919050565b7f4e487b7100000000000000000000000000000000000000000000000000000000600052603260045260246000fd5b6000613fc4826130b7565b91507fffffffffffffffffffffffffffffffffffffffffffffffffffffffffffffffff8203613ff657613ff5613964565b5b600182019050919050565b7f6f6e6c79206f776e6572206f66204e46542063616e20637265617465206c697360008201527f74696e6700000000000000000000000000000000000000000000000000000000602082015250565b600061405d602483613010565b915061406882614001565b604082019050919050565b6000602082019050818103600083015261408c81614050565b9050919050565b7f4f776e61626c653a206e6577206f776e657220697320746865207a65726f206160008201527f6464726573730000000000000000000000000000000000000000000000000000602082015250565b60006140ef602683613010565b91506140fa82614093565b604082019050919050565b6000602082019050818103600083015261411e816140e2565b9050919050565b7f4552433732313a207472616e736665722066726f6d20696e636f72726563742060008201527f6f776e6572000000000000000000000000000000000000000000000000000000602082015250565b6000614181602583613010565b915061418c82614125565b604082019050919050565b600060208201905081810360008301526141b081614174565b9050919050565b7f4552433732313a207472616e7366657220746f20746865207a65726f2061646460008201527f7265737300000000000000000000000000000000000000000000000000000000602082015250565b6000614213602483613010565b915061421e826141b7565b604082019050919050565b6000602082019050818103600083015261424281614206565b9050919050565b7f4f776e61626c653a2063616c6c6572206973206e6f7420746865206f776e6572600082015250565b600061427f602083613010565b915061428a82614249565b602082019050919050565b600060208201905081810360008301526142ae81614272565b9050919050565b7f4552433732313a20617070726f766520746f2063616c6c657200000000000000600082015250565b60006142eb601983613010565b91506142f6826142b5565b602082019050919050565b6000602082019050818103600083015261431a816142de565b9050919050565b7f4552433732313a206d696e7420746f20746865207a65726f2061646472657373600082015250565b6000614357602083613010565b915061436282614321565b602082019050919050565b600060208201905081810360008301526143868161434a565b9050919050565b7f4552433732313a20746f6b656e20616c7265616479206d696e74656400000000600082015250565b60006143c3601c83613010565b91506143ce8261438d565b602082019050919050565b600060208201905081810360008301526143f2816143b6565b9050919050565b7f45524337323155524953746f726167653a2055524920736574206f66206e6f6e60008201527f6578697374656e7420746f6b656e000000000000000000000000000000000000602082015250565b6000614455602e83613010565b9150614460826143f9565b604082019050919050565b6000602082019050818103600083015261448481614448565b9050919050565b60008190508160005260206000209050919050565b60006020601f8301049050919050565b600082821b905092915050565b6000600883026144ed7fffffffffffffffffffffffffffffffffffffffffffffffffffffffffffffffff826144b0565b6144f786836144b0565b95508019841693508086168417925050509392505050565b6000819050919050565b600061453461452f61452a846130b7565b61450f565b6130b7565b9050919050565b6000819050919050565b61454e83614519565b61456261455a8261453b565b8484546144bd565b825550505050565b600090565b61457761456a565b614582818484614545565b505050565b5b818110156145a65761459b60008261456f565b600181019050614588565b5050565b601f8211156145eb576145bc8161448b565b6145c5846144a0565b810160208510156145d4578190505b6145e86145e0856144a0565b830182614587565b50505b505050565b600082821c905092915050565b600061460e600019846008026145f0565b1980831691505092915050565b600061462783836145fd565b9150826002028217905092915050565b61464082613005565b67ffffffffffffffff81111561465957614658613325565b5b614663825461380f565b61466e8282856145aa565b600060209050601f8311600181146146a1576000841561468f578287015190505b614699858261461b565b865550614701565b601f1984166146af8661448b565b60005b828110156146d7578489015182556001820191506020850194506020810190506146b2565b868310156146f457848901516146f0601f8916826145fd565b8355505b6001600288020188555050505b505050505050565b7f4552433732313a207472616e7366657220746f206e6f6e20455243373231526560008201527f63656976657220696d706c656d656e7465720000000000000000000000000000602082015250565b6000614765603283613010565b915061477082614709565b604082019050919050565b6000602082019050818103600083015261479481614758565b9050919050565b60006147a78285613e44565b91506147b38284613e44565b91508190509392505050565b600081519050919050565b600082825260208201905092915050565b60006147e6826147bf565b6147f081856147ca565b9350614800818560208601613021565b6148098161304b565b840191505092915050565b6000608082019050614829600083018761314c565b614836602083018661314c565b61484360408301856131e2565b818103606083015261485581846147db565b905095945050505050565b60008151905061486f81612f76565b92915050565b60006020828403121561488b5761488a612f40565b5b600061489984828501614860565b91505092915050565b7f4e487b7100000000000000000000000000000000000000000000000000000000600052601260045260246000fdfea264697066735822122002cd9ed824dece217f48e90dcee19bc1ef799ea90120ac6bda04043ed29e15b864736f6c63430008110033",
  "linkReferences": {},
  "deployedLinkReferences": {}
}