{
  "_format": "hh-sol-artifact-1",
  "contractName": "PolyBricks",
  "sourceName": "contracts/PolyBricks.sol",
  "abi": [
    {
      "inputs": [],
      "stateMutability": "nonpayable",
      "type": "constructor"
    },
    {
      "anonymous": false,
      "inputs": [
        {
          "indexed": true,
          "internalType": "address",
          "name": "owner",
          "type": "address"
        },
        {
          "indexed": true,
          "internalType": "address",
          "name": "approved",
          "type": "address"
        },
        {
          "indexed": true,
          "internalType": "uint256",
          "name": "tokenId",
          "type": "uint256"
        }
      ],
      "name": "Approval",
      "type": "event"
    },
    {
      "anonymous": false,
      "inputs": [
        {
          "indexed": true,
          "internalType": "address",
          "name": "owner",
          "type": "address"
        },
        {
          "indexed": true,
          "internalType": "address",
          "name": "operator",
          "type": "address"
        },
        {
          "indexed": false,
          "internalType": "bool",
          "name": "approved",
          "type": "bool"
        }
      ],
      "name": "ApprovalForAll",
      "type": "event"
    },
    {
      "anonymous": false,
      "inputs": [
        {
          "indexed": true,
          "internalType": "address",
          "name": "previousOwner",
          "type": "address"
        },
        {
          "indexed": true,
          "internalType": "address",
          "name": "newOwner",
          "type": "address"
        }
      ],
      "name": "OwnershipTransferred",
      "type": "event"
    },
    {
      "anonymous": false,
      "inputs": [
        {
          "indexed": true,
          "internalType": "address",
          "name": "from",
          "type": "address"
        },
        {
          "indexed": true,
          "internalType": "address",
          "name": "to",
          "type": "address"
        },
        {
          "indexed": true,
          "internalType": "uint256",
          "name": "tokenId",
          "type": "uint256"
        }
      ],
      "name": "Transfer",
      "type": "event"
    },
    {
      "inputs": [
        {
          "internalType": "uint256",
          "name": "tokenId",
          "type": "uint256"
        },
        {
          "internalType": "address",
          "name": "chosenBuyer",
          "type": "address"
        }
      ],
      "name": "NFTOwnerStartEscrow",
      "outputs": [],
      "stateMutability": "payable",
      "type": "function"
    },
    {
      "inputs": [],
      "name": "_tokenIdCounter",
      "outputs": [
        {
          "internalType": "uint256",
          "name": "_value",
          "type": "uint256"
        }
      ],
      "stateMutability": "view",
      "type": "function"
    },
    {
      "inputs": [
        {
          "internalType": "address",
          "name": "to",
          "type": "address"
        },
        {
          "internalType": "uint256",
          "name": "tokenId",
          "type": "uint256"
        }
      ],
      "name": "approve",
      "outputs": [],
      "stateMutability": "nonpayable",
      "type": "function"
    },
    {
      "inputs": [
        {
          "internalType": "address",
          "name": "owner",
          "type": "address"
        }
      ],
      "name": "balanceOf",
      "outputs": [
        {
          "internalType": "uint256",
          "name": "",
          "type": "uint256"
        }
      ],
      "stateMutability": "view",
      "type": "function"
    },
    {
      "inputs": [
        {
          "internalType": "address",
          "name": "",
          "type": "address"
        }
      ],
      "name": "buyerAddressToBuyerPayableAddress",
      "outputs": [
        {
          "internalType": "address payable",
          "name": "",
          "type": "address"
        }
      ],
      "stateMutability": "view",
      "type": "function"
    },
    {
      "inputs": [
        {
          "internalType": "address",
          "name": "",
          "type": "address"
        }
      ],
      "name": "buyerAddressToDownPayment",
      "outputs": [
        {
          "internalType": "uint256",
          "name": "",
          "type": "uint256"
        }
      ],
      "stateMutability": "view",
      "type": "function"
    },
    {
      "inputs": [
        {
          "internalType": "uint256",
          "name": "tokenId",
          "type": "uint256"
        },
        {
          "internalType": "address payable",
          "name": "userPayableAddress",
          "type": "address"
        }
      ],
      "name": "buyerPayRentAndDeposit",
      "outputs": [],
      "stateMutability": "payable",
      "type": "function"
    },
    {
      "inputs": [
        {
          "internalType": "uint256",
          "name": "tokenId",
          "type": "uint256"
        }
      ],
      "name": "completePaymentAndEsrow",
      "outputs": [],
      "stateMutability": "payable",
      "type": "function"
    },
    {
      "inputs": [
        {
          "internalType": "uint256",
          "name": "tokenId",
          "type": "uint256"
        },
        {
          "internalType": "uint256",
          "name": "_propertyPrice",
          "type": "uint256"
        },
        {
          "internalType": "uint256",
          "name": "_downPayment",
          "type": "uint256"
        }
      ],
      "name": "createPropertyListing",
      "outputs": [],
      "stateMutability": "nonpayable",
      "type": "function"
    },
    {
      "inputs": [
        {
          "internalType": "uint256",
          "name": "",
          "type": "uint256"
        }
      ],
      "name": "depositAmount",
      "outputs": [
        {
          "internalType": "uint256",
          "name": "",
          "type": "uint256"
        }
      ],
      "stateMutability": "view",
      "type": "function"
    },
    {
      "inputs": [
        {
          "internalType": "uint256",
          "name": "",
          "type": "uint256"
        }
      ],
      "name": "downPayment",
      "outputs": [
        {
          "internalType": "uint256",
          "name": "",
          "type": "uint256"
        }
      ],
      "stateMutability": "view",
      "type": "function"
    },
    {
      "inputs": [
        {
          "internalType": "uint256",
          "name": "tokenId",
          "type": "uint256"
        }
      ],
      "name": "getApproved",
      "outputs": [
        {
          "internalType": "address",
          "name": "",
          "type": "address"
        }
      ],
      "stateMutability": "view",
      "type": "function"
    },
    {
      "inputs": [],
      "name": "getBalance",
      "outputs": [
        {
          "internalType": "uint256",
          "name": "",
          "type": "uint256"
        }
      ],
      "stateMutability": "view",
      "type": "function"
    },
    {
      "inputs": [],
      "name": "getCurrentTokenIdCounter",
      "outputs": [
        {
          "internalType": "uint256",
          "name": "",
          "type": "uint256"
        }
      ],
      "stateMutability": "view",
      "type": "function"
    },
    {
      "inputs": [
        {
          "internalType": "address",
          "name": "owner",
          "type": "address"
        },
        {
          "internalType": "address",
          "name": "operator",
          "type": "address"
        }
      ],
      "name": "isApprovedForAll",
      "outputs": [
        {
          "internalType": "bool",
          "name": "",
          "type": "bool"
        }
      ],
      "stateMutability": "view",
      "type": "function"
    },
    {
      "inputs": [
        {
          "internalType": "string",
          "name": "uri",
          "type": "string"
        }
      ],
      "name": "isContentOwned",
      "outputs": [
        {
          "internalType": "bool",
          "name": "",
          "type": "bool"
        }
      ],
      "stateMutability": "view",
      "type": "function"
    },
    {
      "inputs": [
        {
          "internalType": "uint256",
          "name": "tokenId",
          "type": "uint256"
        },
        {
          "internalType": "uint256",
          "name": "_depositAmount",
          "type": "uint256"
        },
        {
          "internalType": "uint256",
          "name": "_monthlyRentAmount",
          "type": "uint256"
        }
      ],
      "name": "listPropertyForRent",
      "outputs": [],
      "stateMutability": "nonpayable",
      "type": "function"
    },
    {
      "inputs": [
        {
          "internalType": "uint256",
          "name": "tokenId",
          "type": "uint256"
        },
        {
          "internalType": "address payable",
          "name": "userPayableAddress",
          "type": "address"
        }
      ],
      "name": "makeDownPayment",
      "outputs": [],
      "stateMutability": "payable",
      "type": "function"
    },
    {
      "inputs": [
        {
          "internalType": "address",
          "name": "recipient",
          "type": "address"
        },
        {
          "internalType": "string",
          "name": "ipfsTitleDeedURI",
          "type": "string"
        },
        {
          "internalType": "string",
          "name": "propertyId",
          "type": "string"
        }
      ],
      "name": "mintNFT",
      "outputs": [
        {
          "internalType": "uint256",
          "name": "",
          "type": "uint256"
        }
      ],
      "stateMutability": "nonpayable",
      "type": "function"
    },
    {
      "inputs": [
        {
          "internalType": "uint256",
          "name": "",
          "type": "uint256"
        }
      ],
      "name": "monthlyRentAmount",
      "outputs": [
        {
          "internalType": "uint256",
          "name": "",
          "type": "uint256"
        }
      ],
      "stateMutability": "view",
      "type": "function"
    },
    {
      "inputs": [],
      "name": "name",
      "outputs": [
        {
          "internalType": "string",
          "name": "",
          "type": "string"
        }
      ],
      "stateMutability": "view",
      "type": "function"
    },
    {
      "inputs": [],
      "name": "owner",
      "outputs": [
        {
          "internalType": "address",
          "name": "",
          "type": "address"
        }
      ],
      "stateMutability": "view",
      "type": "function"
    },
    {
      "inputs": [
        {
          "internalType": "uint256",
          "name": "tokenId",
          "type": "uint256"
        }
      ],
      "name": "ownerOf",
      "outputs": [
        {
          "internalType": "address",
          "name": "",
          "type": "address"
        }
      ],
      "stateMutability": "view",
      "type": "function"
    },
    {
      "inputs": [
        {
          "internalType": "uint256",
          "name": "",
          "type": "uint256"
        }
      ],
      "name": "propertyPrice",
      "outputs": [
        {
          "internalType": "uint256",
          "name": "",
          "type": "uint256"
        }
      ],
      "stateMutability": "view",
      "type": "function"
    },
    {
      "inputs": [],
      "name": "renounceOwnership",
      "outputs": [],
      "stateMutability": "nonpayable",
      "type": "function"
    },
    {
      "inputs": [
        {
          "internalType": "address",
          "name": "from",
          "type": "address"
        },
        {
          "internalType": "address",
          "name": "to",
          "type": "address"
        },
        {
          "internalType": "uint256",
          "name": "tokenId",
          "type": "uint256"
        }
      ],
      "name": "safeTransferFrom",
      "outputs": [],
      "stateMutability": "nonpayable",
      "type": "function"
    },
    {
      "inputs": [
        {
          "internalType": "address",
          "name": "from",
          "type": "address"
        },
        {
          "internalType": "address",
          "name": "to",
          "type": "address"
        },
        {
          "internalType": "uint256",
          "name": "tokenId",
          "type": "uint256"
        },
        {
          "internalType": "bytes",
          "name": "data",
          "type": "bytes"
        }
      ],
      "name": "safeTransferFrom",
      "outputs": [],
      "stateMutability": "nonpayable",
      "type": "function"
    },
    {
      "inputs": [
        {
          "internalType": "address",
          "name": "operator",
          "type": "address"
        },
        {
          "internalType": "bool",
          "name": "approved",
          "type": "bool"
        }
      ],
      "name": "setApprovalForAll",
      "outputs": [],
      "stateMutability": "nonpayable",
      "type": "function"
    },
    {
      "inputs": [
        {
          "internalType": "bytes4",
          "name": "interfaceId",
          "type": "bytes4"
        }
      ],
      "name": "supportsInterface",
      "outputs": [
        {
          "internalType": "bool",
          "name": "",
          "type": "bool"
        }
      ],
      "stateMutability": "view",
      "type": "function"
    },
    {
      "inputs": [],
      "name": "symbol",
      "outputs": [
        {
          "internalType": "string",
          "name": "",
          "type": "string"
        }
      ],
      "stateMutability": "view",
      "type": "function"
    },
    {
      "inputs": [
        {
          "internalType": "uint256",
          "name": "",
          "type": "uint256"
        },
        {
          "internalType": "uint256",
          "name": "",
          "type": "uint256"
        }
      ],
      "name": "tokenIdToBuyerAddress",
      "outputs": [
        {
          "internalType": "address",
          "name": "",
          "type": "address"
        }
      ],
      "stateMutability": "view",
      "type": "function"
    },
    {
      "inputs": [
        {
          "internalType": "uint256",
          "name": "",
          "type": "uint256"
        }
      ],
      "name": "tokenIdToRenterPayableAddress",
      "outputs": [
        {
          "internalType": "address payable",
          "name": "",
          "type": "address"
        }
      ],
      "stateMutability": "view",
      "type": "function"
    },
    {
      "inputs": [
        {
          "internalType": "uint256",
          "name": "",
          "type": "uint256"
        }
      ],
      "name": "tokenIdToSellerPayableAddress",
      "outputs": [
        {
          "internalType": "address payable",
          "name": "",
          "type": "address"
        }
      ],
      "stateMutability": "view",
      "type": "function"
    },
    {
      "inputs": [
        {
          "internalType": "uint256",
          "name": "tokenId",
          "type": "uint256"
        }
      ],
      "name": "tokenURI",
      "outputs": [
        {
          "internalType": "string",
          "name": "",
          "type": "string"
        }
      ],
      "stateMutability": "view",
      "type": "function"
    },
    {
      "inputs": [
        {
          "internalType": "address",
          "name": "from",
          "type": "address"
        },
        {
          "internalType": "address",
          "name": "to",
          "type": "address"
        },
        {
          "internalType": "uint256",
          "name": "tokenId",
          "type": "uint256"
        }
      ],
      "name": "tranfer",
      "outputs": [],
      "stateMutability": "nonpayable",
      "type": "function"
    },
    {
      "inputs": [
        {
          "internalType": "address",
          "name": "from",
          "type": "address"
        },
        {
          "internalType": "address",
          "name": "to",
          "type": "address"
        },
        {
          "internalType": "uint256",
          "name": "tokenId",
          "type": "uint256"
        }
      ],
      "name": "transferFrom",
      "outputs": [],
      "stateMutability": "nonpayable",
      "type": "function"
    },
    {
      "inputs": [
        {
          "internalType": "address",
          "name": "newOwner",
          "type": "address"
        }
      ],
      "name": "transferOwnership",
      "outputs": [],
      "stateMutability": "nonpayable",
      "type": "function"
    }
  ],
  "bytecode": "0x60806040523480156200001157600080fd5b506040518060400160405280600a81526020017f506f6c79427269636b73000000000000000000000000000000000000000000008152506040518060400160405280600481526020017f504252530000000000000000000000000000000000000000000000000000000081525081600090816200008f919062000412565b508060019081620000a1919062000412565b505050620000c4620000b8620000ca60201b60201c565b620000d260201b60201c565b620004f9565b600033905090565b6000600760009054906101000a900473ffffffffffffffffffffffffffffffffffffffff16905081600760006101000a81548173ffffffffffffffffffffffffffffffffffffffff021916908373ffffffffffffffffffffffffffffffffffffffff1602179055508173ffffffffffffffffffffffffffffffffffffffff168173ffffffffffffffffffffffffffffffffffffffff167f8be0079c531659141344cd1fd0a4f28419497f9722a3daafe3b4186f6b6457e060405160405180910390a35050565b600081519050919050565b7f4e487b7100000000000000000000000000000000000000000000000000000000600052604160045260246000fd5b7f4e487b7100000000000000000000000000000000000000000000000000000000600052602260045260246000fd5b600060028204905060018216806200021a57607f821691505b60208210810362000230576200022f620001d2565b5b50919050565b60008190508160005260206000209050919050565b60006020601f8301049050919050565b600082821b905092915050565b6000600883026200029a7fffffffffffffffffffffffffffffffffffffffffffffffffffffffffffffffff826200025b565b620002a686836200025b565b95508019841693508086168417925050509392505050565b6000819050919050565b6000819050919050565b6000620002f3620002ed620002e784620002be565b620002c8565b620002be565b9050919050565b6000819050919050565b6200030f83620002d2565b620003276200031e82620002fa565b84845462000268565b825550505050565b600090565b6200033e6200032f565b6200034b81848462000304565b505050565b5b8181101562000373576200036760008262000334565b60018101905062000351565b5050565b601f821115620003c2576200038c8162000236565b62000397846200024b565b81016020851015620003a7578190505b620003bf620003b6856200024b565b83018262000350565b50505b505050565b600082821c905092915050565b6000620003e760001984600802620003c7565b1980831691505092915050565b6000620004028383620003d4565b9150826002028217905092915050565b6200041d8262000198565b67ffffffffffffffff811115620004395762000438620001a3565b5b62000445825462000201565b6200045282828562000377565b600060209050601f8311600181146200048a576000841562000475578287015190505b620004818582620003f4565b865550620004f1565b601f1984166200049a8662000236565b60005b82811015620004c4578489015182556001820191506020850194506020810190506200049d565b86831015620004e45784890151620004e0601f891682620003d4565b8355505b6001600288020188555050505b505050505050565b6147cd80620005096000396000f3fe60806040526004361061021a5760003560e01c8063747f9b4f11610123578063a22cb465116100ab578063bd1157a91161006f578063bd1157a91461081d578063c12e1a071461085a578063c87b56dd14610883578063e985e9c5146108c0578063f2fde38b146108fd5761021a565b8063a22cb46514610756578063a3ee38ae1461077f578063a983fa49146107bc578063b364cf7d146107d8578063b88d4fde146107f45761021a565b80638c6743e0116100f25780638c6743e01461065b5780638da5cb5b14610686578063914e58f5146106b157806395d89b41146106ee5780639f1cabc6146107195761021a565b8063747f9b4f1461058d57806377c5ab0e146105ca57806384c4bd4b146105f357806387f8ab261461061e5761021a565b806323b872dd116101a65780634412e439116101755780634412e439146104a35780634671d4d1146104e05780636352211e146104fc57806370a0823114610539578063715018a6146105765761021a565b806323b872dd146103eb57806326530f39146104145780633a28551e1461043d57806342842e0e1461047a5761021a565b806309f5c475116101ed57806309f5c475146102ed57806312065fe0146103095780631358d4491461033457806314050c5a146103715780631d5d0441146103ae5761021a565b806301ffc9a71461021f57806306fdde031461025c578063081812fc14610287578063095ea7b3146102c4575b600080fd5b34801561022b57600080fd5b5061024660048036038101906102419190612e68565b610926565b6040516102539190612eb0565b60405180910390f35b34801561026857600080fd5b50610271610a08565b60405161027e9190612f5b565b60405180910390f35b34801561029357600080fd5b506102ae60048036038101906102a99190612fb3565b610a9a565b6040516102bb9190613021565b60405180910390f35b3480156102d057600080fd5b506102eb60048036038101906102e69190613068565b610ae0565b005b61030760048036038101906103029190612fb3565b610bf7565b005b34801561031557600080fd5b5061031e610d12565b60405161032b91906130b7565b60405180910390f35b34801561034057600080fd5b5061035b60048036038101906103569190612fb3565b610d1a565b60405161036891906130b7565b60405180910390f35b34801561037d57600080fd5b5061039860048036038101906103939190612fb3565b610d32565b6040516103a591906130b7565b60405180910390f35b3480156103ba57600080fd5b506103d560048036038101906103d09190612fb3565b610d4a565b6040516103e291906130f3565b60405180910390f35b3480156103f757600080fd5b50610412600480360381019061040d919061310e565b610d7d565b005b34801561042057600080fd5b5061043b6004803603810190610436919061310e565b610ddd565b005b34801561044957600080fd5b50610464600480360381019061045f9190613161565b610ded565b60405161047191906130f3565b60405180910390f35b34801561048657600080fd5b506104a1600480360381019061049c919061310e565b610e20565b005b3480156104af57600080fd5b506104ca60048036038101906104c59190613161565b610f57565b6040516104d791906130b7565b60405180910390f35b6104fa60048036038101906104f591906131ba565b610f6f565b005b34801561050857600080fd5b50610523600480360381019061051e9190612fb3565b611039565b6040516105309190613021565b60405180910390f35b34801561054557600080fd5b50610560600480360381019061055b9190613161565b6110bf565b60405161056d91906130b7565b60405180910390f35b34801561058257600080fd5b5061058b611176565b005b34801561059957600080fd5b506105b460048036038101906105af9190612fb3565b61118a565b6040516105c191906130b7565b60405180910390f35b3480156105d657600080fd5b506105f160048036038101906105ec91906131fa565b6111a2565b005b3480156105ff57600080fd5b50610608611220565b60405161061591906130b7565b60405180910390f35b34801561062a57600080fd5b5061064560048036038101906106409190612fb3565b61122c565b60405161065291906130b7565b60405180910390f35b34801561066757600080fd5b50610670611244565b60405161067d91906130b7565b60405180910390f35b34801561069257600080fd5b5061069b61125a565b6040516106a89190613021565b60405180910390f35b3480156106bd57600080fd5b506106d860048036038101906106d39190612fb3565b611284565b6040516106e591906130f3565b60405180910390f35b3480156106fa57600080fd5b506107036112b7565b6040516107109190612f5b565b60405180910390f35b34801561072557600080fd5b50610740600480360381019061073b9190613382565b611349565b60405161074d9190612eb0565b60405180910390f35b34801561076257600080fd5b5061077d600480360381019061077891906133f7565b611384565b005b34801561078b57600080fd5b506107a660048036038101906107a19190613437565b61139a565b6040516107b391906130b7565b60405180910390f35b6107d660048036038101906107d191906131ba565b6114a0565b005b6107f260048036038101906107ed91906134c2565b611615565b005b34801561080057600080fd5b5061081b600480360381019061081691906135a3565b611857565b005b34801561082957600080fd5b50610844600480360381019061083f9190613626565b6118b9565b6040516108519190613021565b60405180910390f35b34801561086657600080fd5b50610881600480360381019061087c91906131fa565b611907565b005b34801561088f57600080fd5b506108aa60048036038101906108a59190612fb3565b6119e3565b6040516108b79190612f5b565b60405180910390f35b3480156108cc57600080fd5b506108e760048036038101906108e29190613666565b6119f5565b6040516108f49190612eb0565b60405180910390f35b34801561090957600080fd5b50610924600480360381019061091f9190613161565b611a89565b005b60007f80ac58cd000000000000000000000000000000000000000000000000000000007bffffffffffffffffffffffffffffffffffffffffffffffffffffffff1916827bffffffffffffffffffffffffffffffffffffffffffffffffffffffff191614806109f157507f5b5e139f000000000000000000000000000000000000000000000000000000007bffffffffffffffffffffffffffffffffffffffffffffffffffffffff1916827bffffffffffffffffffffffffffffffffffffffffffffffffffffffff1916145b80610a015750610a0082611b0c565b5b9050919050565b606060008054610a17906136d5565b80601f0160208091040260200160405190810160405280929190818152602001828054610a43906136d5565b8015610a905780601f10610a6557610100808354040283529160200191610a90565b820191906000526020600020905b815481529060010190602001808311610a7357829003601f168201915b5050505050905090565b6000610aa582611b76565b6004600083815260200190815260200160002060009054906101000a900473ffffffffffffffffffffffffffffffffffffffff169050919050565b6000610aeb82611039565b90508073ffffffffffffffffffffffffffffffffffffffff168373ffffffffffffffffffffffffffffffffffffffff1603610b5b576040517f08c379a0000000000000000000000000000000000000000000000000000000008152600401610b5290613778565b60405180910390fd5b8073ffffffffffffffffffffffffffffffffffffffff16610b7a611bc1565b73ffffffffffffffffffffffffffffffffffffffff161480610ba95750610ba881610ba3611bc1565b6119f5565b5b610be8576040517f08c379a0000000000000000000000000000000000000000000000000000000008152600401610bdf9061380a565b60405180910390fd5b610bf28383611bc9565b505050565b600c600082815260200190815260200160002054600b600083815260200190815260200160002054610c299190613859565b341015610c6b576040517f08c379a0000000000000000000000000000000000000000000000000000000008152600401610c62906138d9565b60405180910390fd5b610c76303383610ddd565b60006010600083815260200190815260200160002060009054906101000a900473ffffffffffffffffffffffffffffffffffffffff1690506000600b60008481526020019081526020016000205490508173ffffffffffffffffffffffffffffffffffffffff166108fc829081150290604051600060405180830381858888f19350505050158015610d0c573d6000803e3d6000fd5b50505050565b600047905090565b60126020528060005260406000206000915090505481565b600b6020528060005260406000206000915090505481565b60136020528060005260406000206000915054906101000a900473ffffffffffffffffffffffffffffffffffffffff1681565b610d8e610d88611bc1565b82611c82565b610dcd576040517f08c379a0000000000000000000000000000000000000000000000000000000008152600401610dc49061396b565b60405180910390fd5b610dd8838383611d17565b505050565b610de8838383610e20565b505050565b600f6020528060005260406000206000915054906101000a900473ffffffffffffffffffffffffffffffffffffffff1681565b600073ffffffffffffffffffffffffffffffffffffffff168373ffffffffffffffffffffffffffffffffffffffff1603610e8f576040517f08c379a0000000000000000000000000000000000000000000000000000000008152600401610e86906139d7565b60405180910390fd5b600073ffffffffffffffffffffffffffffffffffffffff168273ffffffffffffffffffffffffffffffffffffffff1603610efe576040517f08c379a0000000000000000000000000000000000000000000000000000000008152600401610ef590613a43565b60405180910390fd5b610f088382611c82565b610f47576040517f08c379a0000000000000000000000000000000000000000000000000000000008152600401610f3e90613aaf565b60405180910390fd5b610f52838383611d17565b505050565b600e6020528060005260406000206000915090505481565b60126000838152602001908152602001600020546011600084815260200190815260200160002054610fa19190613acf565b341015610fe3576040517f08c379a0000000000000000000000000000000000000000000000000000000008152600401610fda90613b4f565b60405180910390fd5b806013600084815260200190815260200160002060006101000a81548173ffffffffffffffffffffffffffffffffffffffff021916908373ffffffffffffffffffffffffffffffffffffffff1602179055505050565b60008061104583612010565b9050600073ffffffffffffffffffffffffffffffffffffffff168173ffffffffffffffffffffffffffffffffffffffff16036110b6576040517f08c379a00000000000000000000000000000000000000000000000000000000081526004016110ad90613bbb565b60405180910390fd5b80915050919050565b60008073ffffffffffffffffffffffffffffffffffffffff168273ffffffffffffffffffffffffffffffffffffffff160361112f576040517f08c379a000000000000000000000000000000000000000000000000000000000815260040161112690613c4d565b60405180910390fd5b600360008373ffffffffffffffffffffffffffffffffffffffff1673ffffffffffffffffffffffffffffffffffffffff168152602001908152602001600020549050919050565b61117e61204d565b61118860006120cb565b565b600c6020528060005260406000206000915090505481565b6111ac3384611c82565b6111eb576040517f08c379a00000000000000000000000000000000000000000000000000000000081526004016111e290613cdf565b60405180910390fd5b816011600085815260200190815260200160002081905550806012600085815260200190815260200160002081905550505050565b60088060000154905081565b60116020528060005260406000206000915090505481565b6000806112516008612191565b90508091505090565b6000600760009054906101000a900473ffffffffffffffffffffffffffffffffffffffff16905090565b60106020528060005260406000206000915054906101000a900473ffffffffffffffffffffffffffffffffffffffff1681565b6060600180546112c6906136d5565b80601f01602080910402602001604051908101604052809291908181526020018280546112f2906136d5565b801561133f5780601f106113145761010080835404028352916020019161133f565b820191906000526020600020905b81548152906001019060200180831161132257829003601f168201915b5050505050905090565b6000600160098360405161135d9190613d3b565b908152602001604051809103902060009054906101000a900460ff1660ff16149050919050565b61139661138f611bc1565b838361219f565b5050565b60006113a461204d565b6113ad83611349565b156113ed576040517f08c379a00000000000000000000000000000000000000000000000000000000081526004016113e490613d9e565b60405180910390fd5b60006113f7611244565b9050611403600861230b565b60016009856040516114159190613d3b565b908152602001604051809103902060006101000a81548160ff021916908360ff160217905550604051806020016040528084815250600a8560405161145a9190613d3b565b9081526020016040518091039020906001611476929190612cd0565b506114818582612321565b61148b818561253e565b6114953382611bc9565b809150509392505050565b600c6000838152602001908152602001600020543410156114f6576040517f08c379a00000000000000000000000000000000000000000000000000000000081526004016114ed90613b4f565b60405180910390fd5b80600f60003373ffffffffffffffffffffffffffffffffffffffff1673ffffffffffffffffffffffffffffffffffffffff16815260200190815260200160002060006101000a81548173ffffffffffffffffffffffffffffffffffffffff021916908373ffffffffffffffffffffffffffffffffffffffff1602179055506000600d6000848152602001908152602001600020905080829080600181540180825580915050600190039060005260206000200160009091909190916101000a81548173ffffffffffffffffffffffffffffffffffffffff021916908373ffffffffffffffffffffffffffffffffffffffff16021790555080600d600085815260200190815260200160002090805461160f929190612d29565b50505050565b61161f3383611c82565b61165e576040517f08c379a000000000000000000000000000000000000000000000000000000000815260040161165590613e30565b60405180910390fd5b611669333084610ddd565b6000600d60008481526020019081526020016000208054806020026020016040519081016040528092919081815260200182805480156116fe57602002820191906000526020600020905b8160009054906101000a900473ffffffffffffffffffffffffffffffffffffffff1673ffffffffffffffffffffffffffffffffffffffff16815260200190600101908083116116b4575b5050505050905060005b8151811015611851578273ffffffffffffffffffffffffffffffffffffffff1682828151811061173b5761173a613e50565b5b602002602001015173ffffffffffffffffffffffffffffffffffffffff161461183e576000600f600084848151811061177757611776613e50565b5b602002602001015173ffffffffffffffffffffffffffffffffffffffff1673ffffffffffffffffffffffffffffffffffffffff16815260200190815260200160002060009054906101000a900473ffffffffffffffffffffffffffffffffffffffff1690506000600c60008781526020019081526020016000205490508173ffffffffffffffffffffffffffffffffffffffff166108fc829081150290604051600060405180830381858888f1935050505015801561183a573d6000803e3d6000fd5b5050505b808061184990613e7f565b915050611708565b50505050565b611868611862611bc1565b83611c82565b6118a7576040517f08c379a000000000000000000000000000000000000000000000000000000000815260040161189e9061396b565b60405180910390fd5b6118b3848484846125ab565b50505050565b600d60205281600052604060002081815481106118d557600080fd5b906000526020600020016000915091509054906101000a900473ffffffffffffffffffffffffffffffffffffffff1681565b6119113384611c82565b611950576040517f08c379a000000000000000000000000000000000000000000000000000000000815260040161194790613f39565b60405180910390fd5b81600b60008581526020019081526020016000208190555080600c60008581526020019081526020016000208190555060003390506000819050806010600087815260200190815260200160002060006101000a81548173ffffffffffffffffffffffffffffffffffffffff021916908373ffffffffffffffffffffffffffffffffffffffff1602179055505050505050565b60606119ee82612607565b9050919050565b6000600560008473ffffffffffffffffffffffffffffffffffffffff1673ffffffffffffffffffffffffffffffffffffffff16815260200190815260200160002060008373ffffffffffffffffffffffffffffffffffffffff1673ffffffffffffffffffffffffffffffffffffffff16815260200190815260200160002060009054906101000a900460ff16905092915050565b611a9161204d565b600073ffffffffffffffffffffffffffffffffffffffff168173ffffffffffffffffffffffffffffffffffffffff1603611b00576040517f08c379a0000000000000000000000000000000000000000000000000000000008152600401611af790613fcb565b60405180910390fd5b611b09816120cb565b50565b60007f01ffc9a7000000000000000000000000000000000000000000000000000000007bffffffffffffffffffffffffffffffffffffffffffffffffffffffff1916827bffffffffffffffffffffffffffffffffffffffffffffffffffffffff1916149050919050565b611b7f81612719565b611bbe576040517f08c379a0000000000000000000000000000000000000000000000000000000008152600401611bb590613bbb565b60405180910390fd5b50565b600033905090565b816004600083815260200190815260200160002060006101000a81548173ffffffffffffffffffffffffffffffffffffffff021916908373ffffffffffffffffffffffffffffffffffffffff160217905550808273ffffffffffffffffffffffffffffffffffffffff16611c3c83611039565b73ffffffffffffffffffffffffffffffffffffffff167f8c5be1e5ebec7d5bd14f71427d1e84f3dd0314c0f7b2291e5b200ac8c7c3b92560405160405180910390a45050565b600080611c8e83611039565b90508073ffffffffffffffffffffffffffffffffffffffff168473ffffffffffffffffffffffffffffffffffffffff161480611cd05750611ccf81856119f5565b5b80611d0e57508373ffffffffffffffffffffffffffffffffffffffff16611cf684610a9a565b73ffffffffffffffffffffffffffffffffffffffff16145b91505092915050565b8273ffffffffffffffffffffffffffffffffffffffff16611d3782611039565b73ffffffffffffffffffffffffffffffffffffffff1614611d8d576040517f08c379a0000000000000000000000000000000000000000000000000000000008152600401611d849061405d565b60405180910390fd5b600073ffffffffffffffffffffffffffffffffffffffff168273ffffffffffffffffffffffffffffffffffffffff1603611dfc576040517f08c379a0000000000000000000000000000000000000000000000000000000008152600401611df3906140ef565b60405180910390fd5b611e09838383600161275a565b8273ffffffffffffffffffffffffffffffffffffffff16611e2982611039565b73ffffffffffffffffffffffffffffffffffffffff1614611e7f576040517f08c379a0000000000000000000000000000000000000000000000000000000008152600401611e769061405d565b60405180910390fd5b6004600082815260200190815260200160002060006101000a81549073ffffffffffffffffffffffffffffffffffffffff02191690556001600360008573ffffffffffffffffffffffffffffffffffffffff1673ffffffffffffffffffffffffffffffffffffffff168152602001908152602001600020600082825403925050819055506001600360008473ffffffffffffffffffffffffffffffffffffffff1673ffffffffffffffffffffffffffffffffffffffff16815260200190815260200160002060008282540192505081905550816002600083815260200190815260200160002060006101000a81548173ffffffffffffffffffffffffffffffffffffffff021916908373ffffffffffffffffffffffffffffffffffffffff160217905550808273ffffffffffffffffffffffffffffffffffffffff168473ffffffffffffffffffffffffffffffffffffffff167fddf252ad1be2c89b69c2b068fc378daa952ba7f163c4a11628f55a4df523b3ef60405160405180910390a461200b8383836001612880565b505050565b60006002600083815260200190815260200160002060009054906101000a900473ffffffffffffffffffffffffffffffffffffffff169050919050565b612055611bc1565b73ffffffffffffffffffffffffffffffffffffffff1661207361125a565b73ffffffffffffffffffffffffffffffffffffffff16146120c9576040517f08c379a00000000000000000000000000000000000000000000000000000000081526004016120c09061415b565b60405180910390fd5b565b6000600760009054906101000a900473ffffffffffffffffffffffffffffffffffffffff16905081600760006101000a81548173ffffffffffffffffffffffffffffffffffffffff021916908373ffffffffffffffffffffffffffffffffffffffff1602179055508173ffffffffffffffffffffffffffffffffffffffff168173ffffffffffffffffffffffffffffffffffffffff167f8be0079c531659141344cd1fd0a4f28419497f9722a3daafe3b4186f6b6457e060405160405180910390a35050565b600081600001549050919050565b8173ffffffffffffffffffffffffffffffffffffffff168373ffffffffffffffffffffffffffffffffffffffff160361220d576040517f08c379a0000000000000000000000000000000000000000000000000000000008152600401612204906141c7565b60405180910390fd5b80600560008573ffffffffffffffffffffffffffffffffffffffff1673ffffffffffffffffffffffffffffffffffffffff16815260200190815260200160002060008473ffffffffffffffffffffffffffffffffffffffff1673ffffffffffffffffffffffffffffffffffffffff16815260200190815260200160002060006101000a81548160ff0219169083151502179055508173ffffffffffffffffffffffffffffffffffffffff168373ffffffffffffffffffffffffffffffffffffffff167f17307eab39ab6107e8899845ad3d59bd9653f200f220920489ca2b5937696c31836040516122fe9190612eb0565b60405180910390a3505050565b6001816000016000828254019250508190555050565b600073ffffffffffffffffffffffffffffffffffffffff168273ffffffffffffffffffffffffffffffffffffffff1603612390576040517f08c379a000000000000000000000000000000000000000000000000000000000815260040161238790614233565b60405180910390fd5b61239981612719565b156123d9576040517f08c379a00000000000000000000000000000000000000000000000000000000081526004016123d09061429f565b60405180910390fd5b6123e760008383600161275a565b6123f081612719565b15612430576040517f08c379a00000000000000000000000000000000000000000000000000000000081526004016124279061429f565b60405180910390fd5b6001600360008473ffffffffffffffffffffffffffffffffffffffff1673ffffffffffffffffffffffffffffffffffffffff16815260200190815260200160002060008282540192505081905550816002600083815260200190815260200160002060006101000a81548173ffffffffffffffffffffffffffffffffffffffff021916908373ffffffffffffffffffffffffffffffffffffffff160217905550808273ffffffffffffffffffffffffffffffffffffffff16600073ffffffffffffffffffffffffffffffffffffffff167fddf252ad1be2c89b69c2b068fc378daa952ba7f163c4a11628f55a4df523b3ef60405160405180910390a461253a600083836001612880565b5050565b61254782612719565b612586576040517f08c379a000000000000000000000000000000000000000000000000000000000815260040161257d90614331565b60405180910390fd5b806006600084815260200190815260200160002090816125a691906144fd565b505050565b6125b6848484611d17565b6125c284848484612886565b612601576040517f08c379a00000000000000000000000000000000000000000000000000000000081526004016125f890614641565b60405180910390fd5b50505050565b606061261282611b76565b6000600660008481526020019081526020016000208054612632906136d5565b80601f016020809104026020016040519081016040528092919081815260200182805461265e906136d5565b80156126ab5780601f10612680576101008083540402835291602001916126ab565b820191906000526020600020905b81548152906001019060200180831161268e57829003601f168201915b5050505050905060006126bc612a0d565b905060008151036126d1578192505050612714565b6000825111156127065780826040516020016126ee929190614661565b60405160208183030381529060405292505050612714565b61270f84612a24565b925050505b919050565b60008073ffffffffffffffffffffffffffffffffffffffff1661273b83612010565b73ffffffffffffffffffffffffffffffffffffffff1614159050919050565b600181111561287a57600073ffffffffffffffffffffffffffffffffffffffff168473ffffffffffffffffffffffffffffffffffffffff16146127ee5780600360008673ffffffffffffffffffffffffffffffffffffffff1673ffffffffffffffffffffffffffffffffffffffff16815260200190815260200160002060008282546127e69190613859565b925050819055505b600073ffffffffffffffffffffffffffffffffffffffff168373ffffffffffffffffffffffffffffffffffffffff16146128795780600360008573ffffffffffffffffffffffffffffffffffffffff1673ffffffffffffffffffffffffffffffffffffffff16815260200190815260200160002060008282546128719190613acf565b925050819055505b5b50505050565b50505050565b60006128a78473ffffffffffffffffffffffffffffffffffffffff16612a8c565b15612a00578373ffffffffffffffffffffffffffffffffffffffff1663150b7a026128d0611bc1565b8786866040518563ffffffff1660e01b81526004016128f294939291906146da565b6020604051808303816000875af192505050801561292e57506040513d601f19601f8201168201806040525081019061292b919061473b565b60015b6129b0573d806000811461295e576040519150601f19603f3d011682016040523d82523d6000602084013e612963565b606091505b5060008151036129a8576040517f08c379a000000000000000000000000000000000000000000000000000000000815260040161299f90614641565b60405180910390fd5b805181602001fd5b63150b7a0260e01b7bffffffffffffffffffffffffffffffffffffffffffffffffffffffff1916817bffffffffffffffffffffffffffffffffffffffffffffffffffffffff191614915050612a05565b600190505b949350505050565b606060405180602001604052806000815250905090565b6060612a2f82611b76565b6000612a39612a0d565b90506000815111612a595760405180602001604052806000815250612a84565b80612a6384612aaf565b604051602001612a74929190614661565b6040516020818303038152906040525b915050919050565b6000808273ffffffffffffffffffffffffffffffffffffffff163b119050919050565b606060006001612abe84612b7d565b01905060008167ffffffffffffffff811115612add57612adc613257565b5b6040519080825280601f01601f191660200182016040528015612b0f5781602001600182028036833780820191505090505b509050600082602001820190505b600115612b72578080600190039150507f3031323334353637383961626364656600000000000000000000000000000000600a86061a8153600a8581612b6657612b65614768565b5b04945060008503612b1d575b819350505050919050565b600080600090507a184f03e93ff9f4daa797ed6e38ed64bf6a1f0100000000000000008310612bdb577a184f03e93ff9f4daa797ed6e38ed64bf6a1f0100000000000000008381612bd157612bd0614768565b5b0492506040810190505b6d04ee2d6d415b85acef81000000008310612c18576d04ee2d6d415b85acef81000000008381612c0e57612c0d614768565b5b0492506020810190505b662386f26fc100008310612c4757662386f26fc100008381612c3d57612c3c614768565b5b0492506010810190505b6305f5e1008310612c70576305f5e1008381612c6657612c65614768565b5b0492506008810190505b6127108310612c95576127108381612c8b57612c8a614768565b5b0492506004810190505b60648310612cb85760648381612cae57612cad614768565b5b0492506002810190505b600a8310612cc7576001810190505b80915050919050565b828054828255906000526020600020908101928215612d18579160200282015b82811115612d17578251829081612d0791906144fd565b5091602001919060010190612cf0565b5b509050612d259190612d7b565b5090565b828054828255906000526020600020908101928215612d6a5760005260206000209182015b82811115612d69578254825591600101919060010190612d4e565b5b509050612d779190612d9f565b5090565b5b80821115612d9b5760008181612d929190612dbc565b50600101612d7c565b5090565b5b80821115612db8576000816000905550600101612da0565b5090565b508054612dc8906136d5565b6000825580601f10612dda5750612df9565b601f016020900490600052602060002090810190612df89190612d9f565b5b50565b6000604051905090565b600080fd5b600080fd5b60007fffffffff0000000000000000000000000000000000000000000000000000000082169050919050565b612e4581612e10565b8114612e5057600080fd5b50565b600081359050612e6281612e3c565b92915050565b600060208284031215612e7e57612e7d612e06565b5b6000612e8c84828501612e53565b91505092915050565b60008115159050919050565b612eaa81612e95565b82525050565b6000602082019050612ec56000830184612ea1565b92915050565b600081519050919050565b600082825260208201905092915050565b60005b83811015612f05578082015181840152602081019050612eea565b60008484015250505050565b6000601f19601f8301169050919050565b6000612f2d82612ecb565b612f378185612ed6565b9350612f47818560208601612ee7565b612f5081612f11565b840191505092915050565b60006020820190508181036000830152612f758184612f22565b905092915050565b6000819050919050565b612f9081612f7d565b8114612f9b57600080fd5b50565b600081359050612fad81612f87565b92915050565b600060208284031215612fc957612fc8612e06565b5b6000612fd784828501612f9e565b91505092915050565b600073ffffffffffffffffffffffffffffffffffffffff82169050919050565b600061300b82612fe0565b9050919050565b61301b81613000565b82525050565b60006020820190506130366000830184613012565b92915050565b61304581613000565b811461305057600080fd5b50565b6000813590506130628161303c565b92915050565b6000806040838503121561307f5761307e612e06565b5b600061308d85828601613053565b925050602061309e85828601612f9e565b9150509250929050565b6130b181612f7d565b82525050565b60006020820190506130cc60008301846130a8565b92915050565b60006130dd82612fe0565b9050919050565b6130ed816130d2565b82525050565b600060208201905061310860008301846130e4565b92915050565b60008060006060848603121561312757613126612e06565b5b600061313586828701613053565b935050602061314686828701613053565b925050604061315786828701612f9e565b9150509250925092565b60006020828403121561317757613176612e06565b5b600061318584828501613053565b91505092915050565b613197816130d2565b81146131a257600080fd5b50565b6000813590506131b48161318e565b92915050565b600080604083850312156131d1576131d0612e06565b5b60006131df85828601612f9e565b92505060206131f0858286016131a5565b9150509250929050565b60008060006060848603121561321357613212612e06565b5b600061322186828701612f9e565b935050602061323286828701612f9e565b925050604061324386828701612f9e565b9150509250925092565b600080fd5b600080fd5b7f4e487b7100000000000000000000000000000000000000000000000000000000600052604160045260246000fd5b61328f82612f11565b810181811067ffffffffffffffff821117156132ae576132ad613257565b5b80604052505050565b60006132c1612dfc565b90506132cd8282613286565b919050565b600067ffffffffffffffff8211156132ed576132ec613257565b5b6132f682612f11565b9050602081019050919050565b82818337600083830152505050565b6000613325613320846132d2565b6132b7565b90508281526020810184848401111561334157613340613252565b5b61334c848285613303565b509392505050565b600082601f8301126133695761336861324d565b5b8135613379848260208601613312565b91505092915050565b60006020828403121561339857613397612e06565b5b600082013567ffffffffffffffff8111156133b6576133b5612e0b565b5b6133c284828501613354565b91505092915050565b6133d481612e95565b81146133df57600080fd5b50565b6000813590506133f1816133cb565b92915050565b6000806040838503121561340e5761340d612e06565b5b600061341c85828601613053565b925050602061342d858286016133e2565b9150509250929050565b6000806000606084860312156134505761344f612e06565b5b600061345e86828701613053565b935050602084013567ffffffffffffffff81111561347f5761347e612e0b565b5b61348b86828701613354565b925050604084013567ffffffffffffffff8111156134ac576134ab612e0b565b5b6134b886828701613354565b9150509250925092565b600080604083850312156134d9576134d8612e06565b5b60006134e785828601612f9e565b92505060206134f885828601613053565b9150509250929050565b600067ffffffffffffffff82111561351d5761351c613257565b5b61352682612f11565b9050602081019050919050565b600061354661354184613502565b6132b7565b90508281526020810184848401111561356257613561613252565b5b61356d848285613303565b509392505050565b600082601f83011261358a5761358961324d565b5b813561359a848260208601613533565b91505092915050565b600080600080608085870312156135bd576135bc612e06565b5b60006135cb87828801613053565b94505060206135dc87828801613053565b93505060406135ed87828801612f9e565b925050606085013567ffffffffffffffff81111561360e5761360d612e0b565b5b61361a87828801613575565b91505092959194509250565b6000806040838503121561363d5761363c612e06565b5b600061364b85828601612f9e565b925050602061365c85828601612f9e565b9150509250929050565b6000806040838503121561367d5761367c612e06565b5b600061368b85828601613053565b925050602061369c85828601613053565b9150509250929050565b7f4e487b7100000000000000000000000000000000000000000000000000000000600052602260045260246000fd5b600060028204905060018216806136ed57607f821691505b602082108103613700576136ff6136a6565b5b50919050565b7f4552433732313a20617070726f76616c20746f2063757272656e74206f776e6560008201527f7200000000000000000000000000000000000000000000000000000000000000602082015250565b6000613762602183612ed6565b915061376d82613706565b604082019050919050565b6000602082019050818103600083015261379181613755565b9050919050565b7f4552433732313a20617070726f76652063616c6c6572206973206e6f7420746f60008201527f6b656e206f776e6572206f7220617070726f76656420666f7220616c6c000000602082015250565b60006137f4603d83612ed6565b91506137ff82613798565b604082019050919050565b60006020820190508181036000830152613823816137e7565b9050919050565b7f4e487b7100000000000000000000000000000000000000000000000000000000600052601160045260246000fd5b600061386482612f7d565b915061386f83612f7d565b92508282039050818111156138875761388661382a565b5b92915050565b7f706c656173652070617920636f727265637420616d6f756e7400000000000000600082015250565b60006138c3601983612ed6565b91506138ce8261388d565b602082019050919050565b600060208201905081810360008301526138f2816138b6565b9050919050565b7f4552433732313a2063616c6c6572206973206e6f7420746f6b656e206f776e6560008201527f72206f7220617070726f76656400000000000000000000000000000000000000602082015250565b6000613955602d83612ed6565b9150613960826138f9565b604082019050919050565b6000602082019050818103600083015261398481613948565b9050919050565b7f46726f6d2061646472657373206973206e6f742076616c696400000000000000600082015250565b60006139c1601983612ed6565b91506139cc8261398b565b602082019050919050565b600060208201905081810360008301526139f0816139b4565b9050919050565b7f546f2061646472657373206973206e6f742076616c6964000000000000000000600082015250565b6000613a2d601783612ed6565b9150613a38826139f7565b602082019050919050565b60006020820190508181036000830152613a5c81613a20565b9050919050565b7f5472616e73666572206e6f74207065726d697474656400000000000000000000600082015250565b6000613a99601683612ed6565b9150613aa482613a63565b602082019050919050565b60006020820190508181036000830152613ac881613a8c565b9050919050565b6000613ada82612f7d565b9150613ae583612f7d565b9250828201905080821115613afd57613afc61382a565b5b92915050565b7f706c65617365206465706f73697420636f727265637420616d6f756e74000000600082015250565b6000613b39601d83612ed6565b9150613b4482613b03565b602082019050919050565b60006020820190508181036000830152613b6881613b2c565b9050919050565b7f4552433732313a20696e76616c696420746f6b656e2049440000000000000000600082015250565b6000613ba5601883612ed6565b9150613bb082613b6f565b602082019050919050565b60006020820190508181036000830152613bd481613b98565b9050919050565b7f4552433732313a2061646472657373207a65726f206973206e6f74206120766160008201527f6c6964206f776e65720000000000000000000000000000000000000000000000602082015250565b6000613c37602983612ed6565b9150613c4282613bdb565b604082019050919050565b60006020820190508181036000830152613c6681613c2a565b9050919050565b7f6f6e6c79206f776e6572206f66204e46542063616e206c6973742070726f706560008201527f72747920666f722072656e740000000000000000000000000000000000000000602082015250565b6000613cc9602c83612ed6565b9150613cd482613c6d565b604082019050919050565b60006020820190508181036000830152613cf881613cbc565b9050919050565b600081905092915050565b6000613d1582612ecb565b613d1f8185613cff565b9350613d2f818560208601612ee7565b80840191505092915050565b6000613d478284613d0a565b915081905092915050565b7f4e465420616c7265616479206d696e7465640000000000000000000000000000600082015250565b6000613d88601283612ed6565b9150613d9382613d52565b602082019050919050565b60006020820190508181036000830152613db781613d7b565b9050919050565b7f6f6e6c79206f776e6572206f66204e46542063616e207374617274206573637260008201527f6f772070726f6365737300000000000000000000000000000000000000000000602082015250565b6000613e1a602a83612ed6565b9150613e2582613dbe565b604082019050919050565b60006020820190508181036000830152613e4981613e0d565b9050919050565b7f4e487b7100000000000000000000000000000000000000000000000000000000600052603260045260246000fd5b6000613e8a82612f7d565b91507fffffffffffffffffffffffffffffffffffffffffffffffffffffffffffffffff8203613ebc57613ebb61382a565b5b600182019050919050565b7f6f6e6c79206f776e6572206f66204e46542063616e20637265617465206c697360008201527f74696e6700000000000000000000000000000000000000000000000000000000602082015250565b6000613f23602483612ed6565b9150613f2e82613ec7565b604082019050919050565b60006020820190508181036000830152613f5281613f16565b9050919050565b7f4f776e61626c653a206e6577206f776e657220697320746865207a65726f206160008201527f6464726573730000000000000000000000000000000000000000000000000000602082015250565b6000613fb5602683612ed6565b9150613fc082613f59565b604082019050919050565b60006020820190508181036000830152613fe481613fa8565b9050919050565b7f4552433732313a207472616e736665722066726f6d20696e636f72726563742060008201527f6f776e6572000000000000000000000000000000000000000000000000000000602082015250565b6000614047602583612ed6565b915061405282613feb565b604082019050919050565b600060208201905081810360008301526140768161403a565b9050919050565b7f4552433732313a207472616e7366657220746f20746865207a65726f2061646460008201527f7265737300000000000000000000000000000000000000000000000000000000602082015250565b60006140d9602483612ed6565b91506140e48261407d565b604082019050919050565b60006020820190508181036000830152614108816140cc565b9050919050565b7f4f776e61626c653a2063616c6c6572206973206e6f7420746865206f776e6572600082015250565b6000614145602083612ed6565b91506141508261410f565b602082019050919050565b6000602082019050818103600083015261417481614138565b9050919050565b7f4552433732313a20617070726f766520746f2063616c6c657200000000000000600082015250565b60006141b1601983612ed6565b91506141bc8261417b565b602082019050919050565b600060208201905081810360008301526141e0816141a4565b9050919050565b7f4552433732313a206d696e7420746f20746865207a65726f2061646472657373600082015250565b600061421d602083612ed6565b9150614228826141e7565b602082019050919050565b6000602082019050818103600083015261424c81614210565b9050919050565b7f4552433732313a20746f6b656e20616c7265616479206d696e74656400000000600082015250565b6000614289601c83612ed6565b915061429482614253565b602082019050919050565b600060208201905081810360008301526142b88161427c565b9050919050565b7f45524337323155524953746f726167653a2055524920736574206f66206e6f6e60008201527f6578697374656e7420746f6b656e000000000000000000000000000000000000602082015250565b600061431b602e83612ed6565b9150614326826142bf565b604082019050919050565b6000602082019050818103600083015261434a8161430e565b9050919050565b60008190508160005260206000209050919050565b60006020601f8301049050919050565b600082821b905092915050565b6000600883026143b37fffffffffffffffffffffffffffffffffffffffffffffffffffffffffffffffff82614376565b6143bd8683614376565b95508019841693508086168417925050509392505050565b6000819050919050565b60006143fa6143f56143f084612f7d565b6143d5565b612f7d565b9050919050565b6000819050919050565b614414836143df565b61442861442082614401565b848454614383565b825550505050565b600090565b61443d614430565b61444881848461440b565b505050565b5b8181101561446c57614461600082614435565b60018101905061444e565b5050565b601f8211156144b15761448281614351565b61448b84614366565b8101602085101561449a578190505b6144ae6144a685614366565b83018261444d565b50505b505050565b600082821c905092915050565b60006144d4600019846008026144b6565b1980831691505092915050565b60006144ed83836144c3565b9150826002028217905092915050565b61450682612ecb565b67ffffffffffffffff81111561451f5761451e613257565b5b61452982546136d5565b614534828285614470565b600060209050601f8311600181146145675760008415614555578287015190505b61455f85826144e1565b8655506145c7565b601f19841661457586614351565b60005b8281101561459d57848901518255600182019150602085019450602081019050614578565b868310156145ba57848901516145b6601f8916826144c3565b8355505b6001600288020188555050505b505050505050565b7f4552433732313a207472616e7366657220746f206e6f6e20455243373231526560008201527f63656976657220696d706c656d656e7465720000000000000000000000000000602082015250565b600061462b603283612ed6565b9150614636826145cf565b604082019050919050565b6000602082019050818103600083015261465a8161461e565b9050919050565b600061466d8285613d0a565b91506146798284613d0a565b91508190509392505050565b600081519050919050565b600082825260208201905092915050565b60006146ac82614685565b6146b68185614690565b93506146c6818560208601612ee7565b6146cf81612f11565b840191505092915050565b60006080820190506146ef6000830187613012565b6146fc6020830186613012565b61470960408301856130a8565b818103606083015261471b81846146a1565b905095945050505050565b60008151905061473581612e3c565b92915050565b60006020828403121561475157614750612e06565b5b600061475f84828501614726565b91505092915050565b7f4e487b7100000000000000000000000000000000000000000000000000000000600052601260045260246000fdfea2646970667358221220ad6c6d296edab5b4c57508a2be743ceb27488097f098428e4c8812d4e7b778f164736f6c63430008110033",
  "linkReferences": {},
  "deployedLinkReferences": {}
}